{
  "contractName": "Voting",
  "abi": [
    {
      "anonymous": false,
      "inputs": [
        {
          "indexed": true,
          "internalType": "address",
          "name": "previousOwner",
          "type": "address"
        },
        {
          "indexed": true,
          "internalType": "address",
          "name": "newOwner",
          "type": "address"
        }
      ],
      "name": "OwnershipTransferred",
      "type": "event"
    },
    {
      "anonymous": false,
      "inputs": [
        {
          "indexed": false,
          "internalType": "uint256",
          "name": "proposalId",
          "type": "uint256"
        }
      ],
      "name": "ProposalRegistered",
      "type": "event"
    },
    {
      "anonymous": false,
      "inputs": [],
      "name": "ProposalsRegistrationEnded",
      "type": "event"
    },
    {
      "anonymous": false,
      "inputs": [],
      "name": "ProposalsRegistrationStarted",
      "type": "event"
    },
    {
      "anonymous": false,
      "inputs": [
        {
          "indexed": false,
          "internalType": "address",
          "name": "voter",
          "type": "address"
        },
        {
          "indexed": false,
          "internalType": "uint256",
          "name": "proposalId",
          "type": "uint256"
        }
      ],
      "name": "Voted",
      "type": "event"
    },
    {
      "anonymous": false,
      "inputs": [
        {
          "indexed": false,
          "internalType": "address",
          "name": "voterAddress",
          "type": "address"
        }
      ],
      "name": "VoterRegistered",
      "type": "event"
    },
    {
      "anonymous": false,
      "inputs": [],
      "name": "VotesTallied",
      "type": "event"
    },
    {
      "anonymous": false,
      "inputs": [],
      "name": "VotingSessionEnded",
      "type": "event"
    },
    {
      "anonymous": false,
      "inputs": [],
      "name": "VotingSessionStarted",
      "type": "event"
    },
    {
      "anonymous": false,
      "inputs": [
        {
          "indexed": false,
          "internalType": "enum Voting.WorkflowStatus",
          "name": "previousStatus",
          "type": "uint8"
        },
        {
          "indexed": false,
          "internalType": "enum Voting.WorkflowStatus",
          "name": "newStatus",
          "type": "uint8"
        }
      ],
      "name": "WorkflowStatusChange",
      "type": "event"
    },
    {
      "inputs": [
        {
          "internalType": "uint256",
          "name": "",
          "type": "uint256"
        }
      ],
      "name": "_proposals",
      "outputs": [
        {
          "internalType": "string",
          "name": "description",
          "type": "string"
        },
        {
          "internalType": "uint256",
          "name": "voteCount",
          "type": "uint256"
        }
      ],
      "stateMutability": "view",
      "type": "function"
    },
    {
      "inputs": [
        {
          "internalType": "address",
          "name": "",
          "type": "address"
        }
      ],
      "name": "_voters",
      "outputs": [
        {
          "internalType": "bool",
          "name": "isRegistered",
          "type": "bool"
        },
        {
          "internalType": "bool",
          "name": "hasVoted",
          "type": "bool"
        },
        {
          "internalType": "uint256",
          "name": "votedProposalId",
          "type": "uint256"
        }
      ],
      "stateMutability": "view",
      "type": "function"
    },
    {
      "inputs": [
        {
          "internalType": "uint256",
          "name": "",
          "type": "uint256"
        }
      ],
      "name": "addresses",
      "outputs": [
        {
          "internalType": "address",
          "name": "",
          "type": "address"
        }
      ],
      "stateMutability": "view",
      "type": "function"
    },
    {
      "inputs": [],
      "name": "owner",
      "outputs": [
        {
          "internalType": "address",
          "name": "",
          "type": "address"
        }
      ],
      "stateMutability": "view",
      "type": "function"
    },
    {
      "inputs": [],
      "name": "renounceOwnership",
      "outputs": [],
      "stateMutability": "nonpayable",
      "type": "function"
    },
    {
      "inputs": [],
      "name": "status",
      "outputs": [
        {
          "internalType": "enum Voting.WorkflowStatus",
          "name": "",
          "type": "uint8"
        }
      ],
      "stateMutability": "view",
      "type": "function"
    },
    {
      "inputs": [
        {
          "internalType": "address",
          "name": "newOwner",
          "type": "address"
        }
      ],
      "name": "transferOwnership",
      "outputs": [],
      "stateMutability": "nonpayable",
      "type": "function"
    },
    {
      "inputs": [],
      "name": "winningProposalId",
      "outputs": [
        {
          "internalType": "uint256",
          "name": "",
          "type": "uint256"
        }
      ],
      "stateMutability": "view",
      "type": "function"
    },
    {
      "inputs": [
        {
          "internalType": "string",
          "name": "_description",
          "type": "string"
        }
      ],
      "name": "getProposalIdFromDescription",
      "outputs": [
        {
          "internalType": "uint256",
          "name": "",
          "type": "uint256"
        }
      ],
      "stateMutability": "view",
      "type": "function"
    },
    {
      "inputs": [],
      "name": "getAddresses",
      "outputs": [
        {
          "internalType": "address[]",
          "name": "",
          "type": "address[]"
        }
      ],
      "stateMutability": "view",
      "type": "function"
    },
    {
      "inputs": [],
      "name": "tally",
      "outputs": [],
      "stateMutability": "nonpayable",
      "type": "function"
    },
    {
      "inputs": [
        {
          "internalType": "string",
          "name": "_description",
          "type": "string"
        }
      ],
      "name": "vote",
      "outputs": [],
      "stateMutability": "nonpayable",
      "type": "function"
    },
    {
      "inputs": [
        {
          "internalType": "address",
          "name": "_address",
          "type": "address"
        }
      ],
      "name": "registerVoter",
      "outputs": [],
      "stateMutability": "nonpayable",
      "type": "function"
    },
    {
      "inputs": [
        {
          "internalType": "string",
          "name": "_description",
          "type": "string"
        }
      ],
      "name": "registerProposal",
      "outputs": [],
      "stateMutability": "nonpayable",
      "type": "function"
    },
    {
      "inputs": [],
      "name": "startProposalregistration",
      "outputs": [],
      "stateMutability": "nonpayable",
      "type": "function"
    },
    {
      "inputs": [],
      "name": "endProposalregistration",
      "outputs": [],
      "stateMutability": "nonpayable",
      "type": "function"
    },
    {
      "inputs": [],
      "name": "startVotingSession",
      "outputs": [],
      "stateMutability": "nonpayable",
      "type": "function"
    },
    {
      "inputs": [],
      "name": "endVotingSession",
      "outputs": [],
      "stateMutability": "nonpayable",
      "type": "function"
    }
  ],
  "bytecode": "0x608060405260006006556000600760006101000a81548160ff0219169083600581111561002857fe5b021790555034801561003957600080fd5b50600061004a6100ed60201b60201c565b9050806000806101000a81548173ffffffffffffffffffffffffffffffffffffffff021916908373ffffffffffffffffffffffffffffffffffffffff1602179055508073ffffffffffffffffffffffffffffffffffffffff16600073ffffffffffffffffffffffffffffffffffffffff167f8be0079c531659141344cd1fd0a4f28419497f9722a3daafe3b4186f6b6457e060405160405180910390a3506100f5565b600033905090565b61280280620001056000396000f3fe608060405234801561001057600080fd5b50600436106101165760003560e01c80639842ee9e116100a2578063c64963c511610071578063c64963c5146104ef578063edf26d9b1461050d578063ee74c67814610565578063f2fde38b1461056f578063fc36e15b146105b357610116565b80639842ee9e146103ad578063a39fac121461047c578063a7bfab16146104db578063b452eaa4146104e557610116565b806338db6dd3116100e957806338db6dd3146102b7578063410673e5146102fb578063715018a6146103055780638da5cb5b1461030f5780639029e1cf1461034357610116565b80630a4948401461011b578063200d2ed2146101c95780632f95355b146101f2578063328b8672146102ad575b600080fd5b6101476004803603602081101561013157600080fd5b810190808035906020019092919050505061066e565b6040518080602001838152602001828103825284818151815260200191508051906020019080838360005b8381101561018d578082015181840152602081019050610172565b50505050905090810190601f1680156101ba5780820380516001836020036101000a031916815260200191505b50935050505060405180910390f35b6101d161072a565b604051808260058111156101e157fe5b815260200191505060405180910390f35b6102ab6004803603602081101561020857600080fd5b810190808035906020019064010000000081111561022557600080fd5b82018360208201111561023757600080fd5b8035906020019184600183028401116401000000008311171561025957600080fd5b91908080601f016020809104026020016040519081016040528093929190818152602001838380828437600081840152601f19601f82011690508083019250505050505050919291929050505061073d565b005b6102b5610a97565b005b6102f9600480360360208110156102cd57600080fd5b81019080803573ffffffffffffffffffffffffffffffffffffffff169060200190929190505050610cac565b005b610303610fea565b005b61030d61130a565b005b610317611477565b604051808273ffffffffffffffffffffffffffffffffffffffff16815260200191505060405180910390f35b6103856004803603602081101561035957600080fd5b81019080803573ffffffffffffffffffffffffffffffffffffffff1690602001909291905050506114a0565b6040518084151581526020018315158152602001828152602001935050505060405180910390f35b610466600480360360208110156103c357600080fd5b81019080803590602001906401000000008111156103e057600080fd5b8201836020820111156103f257600080fd5b8035906020019184600183028401116401000000008311171561041457600080fd5b91908080601f016020809104026020016040519081016040528093929190818152602001838380828437600081840152601f19601f8201169050808301925050505050505091929192905050506114e4565b6040518082815260200191505060405180910390f35b61048461164f565b6040518080602001828103825283818151815260200191508051906020019060200280838360005b838110156104c75780820151818401526020810190506104ac565b505050509050019250505060405180910390f35b6104e36116dd565b005b6104ed6118f2565b005b6104f7611b86565b6040518082815260200191505060405180910390f35b6105396004803603602081101561052357600080fd5b8101908080359060200190929190505050611b8c565b604051808273ffffffffffffffffffffffffffffffffffffffff16815260200191505060405180910390f35b61056d611bc8565b005b6105b16004803603602081101561058557600080fd5b81019080803573ffffffffffffffffffffffffffffffffffffffff169060200190929190505050611e5c565b005b61066c600480360360208110156105c957600080fd5b81019080803590602001906401000000008111156105e657600080fd5b8201836020820111156105f857600080fd5b8035906020019184600183028401116401000000008311171561061a57600080fd5b91908080601f016020809104026020016040519081016040528093929190818152602001838380828437600081840152601f19601f82011690508083019250505050505050919291929050505061204e565b005b6001602052806000526040600020600091509050806000018054600181600116156101000203166002900480601f01602080910402602001604051908101604052809291908181526020018280546001816001161561010002031660029004801561071a5780601f106106ef5761010080835404028352916020019161071a565b820191906000526020600020905b8154815290600101906020018083116106fd57829003601f168201915b5050505050908060010154905082565b600760009054906101000a900460ff1681565b6001600581111561074a57fe5b600760009054906101000a900460ff16600581111561076557fe5b146107bb576040517f08c379a00000000000000000000000000000000000000000000000000000000081526004018080602001828103825260308152602001806126aa6030913960400191505060405180910390fd5b600260003373ffffffffffffffffffffffffffffffffffffffff1673ffffffffffffffffffffffffffffffffffffffff16815260200190815260200160002060000160009054906101000a900460ff16610860576040517f08c379a000000000000000000000000000000000000000000000000000000000815260040180806020018281038252602a81526020018061270d602a913960400191505060405180910390fd5b60003073ffffffffffffffffffffffffffffffffffffffff16639842ee9e836040518263ffffffff1660e01b81526004018080602001828103825283818151815260200191508051906020019080838360005b838110156108ce5780820151818401526020810190506108b3565b50505050905090810190601f1680156108fb5780820380516001836020036101000a031916815260200191505b509250505060206040518083038186803b15801561091857600080fd5b505afa15801561092c573d6000803e3d6000fd5b505050506040513d602081101561094257600080fd5b81019080805190602001909291905050509050600081146109cb576040517f08c379a00000000000000000000000000000000000000000000000000000000081526004018080602001828103825260188152602001807f50726f706f73616c20616c72656164792065786973742021000000000000000081525060200191505060405180910390fd5b6109d3612540565b828160000181905250600081602001818152505060006109f16124c0565b905081600160008381526020019081526020016000206000820151816000019080519060200190610a2392919061255a565b506020820151816001015590505060048190806001815401808255809150506001900390600052602060002001600090919091909150557f92e393e9b54e2f801d3ea4beb0c5e71a21cc34a5d34b77d0fb8a3aa1650dc18f816040518082815260200191505060405180910390a150505050565b610a9f612538565b73ffffffffffffffffffffffffffffffffffffffff16610abd611477565b73ffffffffffffffffffffffffffffffffffffffff1614610b46576040517f08c379a00000000000000000000000000000000000000000000000000000000081526004018080602001828103825260208152602001807f4f776e61626c653a2063616c6c6572206973206e6f7420746865206f776e657281525060200191505060405180910390fd5b60016005811115610b5357fe5b600760009054906101000a900460ff166005811115610b6e57fe5b14610be1576040517f08c379a000000000000000000000000000000000000000000000000000000000815260040180806020018281038252601d8152602001807f526567697374726174696f6e206973206e6f742073746172746564202100000081525060200191505060405180910390fd5b6000600760009054906101000a900460ff1690506002600760006101000a81548160ff02191690836005811115610c1457fe5b02179055507f0a97a4ee45751e2abf3e4fc8946939630b11b371ea8ae39ccdc3056e98f5cc3f81600760009054906101000a900460ff1660405180836005811115610c5b57fe5b8152602001826005811115610c6c57fe5b81526020019250505060405180910390a17f240cb87b2e4df4c318e72bd714d45a9cad60249e883ff56b1fffd83a4595a8fa60405160405180910390a150565b610cb4612538565b73ffffffffffffffffffffffffffffffffffffffff16610cd2611477565b73ffffffffffffffffffffffffffffffffffffffff1614610d5b576040517f08c379a00000000000000000000000000000000000000000000000000000000081526004018080602001828103825260208152602001807f4f776e61626c653a2063616c6c6572206973206e6f7420746865206f776e657281525060200191505060405180910390fd5b60006005811115610d6857fe5b600760009054906101000a900460ff166005811115610d8357fe5b14610dd9576040517f08c379a000000000000000000000000000000000000000000000000000000000815260040180806020018281038252602d815260200180612737602d913960400191505060405180910390fd5b600260008273ffffffffffffffffffffffffffffffffffffffff1673ffffffffffffffffffffffffffffffffffffffff16815260200190815260200160002060000160009054906101000a900460ff1615610e7f576040517f08c379a00000000000000000000000000000000000000000000000000000000081526004018080602001828103825260228152602001806127866022913960400191505060405180910390fd5b610e876125da565b6001816000019015159081151581525050600081602001901515908115158152505080600260008473ffffffffffffffffffffffffffffffffffffffff1673ffffffffffffffffffffffffffffffffffffffff16815260200190815260200160002060008201518160000160006101000a81548160ff02191690831515021790555060208201518160000160016101000a81548160ff021916908315150217905550604082015181600101559050506003829080600181540180825580915050600190039060005260206000200160009091909190916101000a81548173ffffffffffffffffffffffffffffffffffffffff021916908373ffffffffffffffffffffffffffffffffffffffff1602179055507fb6be2187d059cc2a55fe29e0e503b566e1e0f8c8780096e185429350acffd3dd82604051808273ffffffffffffffffffffffffffffffffffffffff16815260200191505060405180910390a15050565b610ff2612538565b73ffffffffffffffffffffffffffffffffffffffff16611010611477565b73ffffffffffffffffffffffffffffffffffffffff1614611099576040517f08c379a00000000000000000000000000000000000000000000000000000000081526004018080602001828103825260208152602001807f4f776e61626c653a2063616c6c6572206973206e6f7420746865206f776e657281525060200191505060405180910390fd5b600460058111156110a657fe5b600760009054906101000a900460ff1660058111156110c157fe5b14611117576040517f08c379a00000000000000000000000000000000000000000000000000000000081526004018080602001828103825260258152602001806127a86025913960400191505060405180910390fd5b60058081111561112357fe5b600760009054906101000a900460ff16600581111561113e57fe5b14156111b2576040517f08c379a00000000000000000000000000000000000000000000000000000000081526004018080602001828103825260158152602001807f566f746520616c72656164792074616c6c6965642e000000000000000000000081525060200191505060405180910390fd5b6000805b60048054905081101561123d578160016000600484815481106111d557fe5b9060005260206000200154815260200190815260200160002060010154111561123057600160008281526020019081526020016000206001015491506004818154811061121e57fe5b90600052602060002001546005819055505b80806001019150506111b6565b506000600760009054906101000a900460ff1690506005600760006101000a81548160ff0219169083600581111561127157fe5b02179055507f0a97a4ee45751e2abf3e4fc8946939630b11b371ea8ae39ccdc3056e98f5cc3f81600760009054906101000a900460ff16604051808360058111156112b857fe5b81526020018260058111156112c957fe5b81526020019250505060405180910390a17f0e5e95ff8725ab3e7a4b6b59998a4c344c2aa8d1485f5e60cb7f337768e6134760405160405180910390a15050565b611312612538565b73ffffffffffffffffffffffffffffffffffffffff16611330611477565b73ffffffffffffffffffffffffffffffffffffffff16146113b9576040517f08c379a00000000000000000000000000000000000000000000000000000000081526004018080602001828103825260208152602001807f4f776e61626c653a2063616c6c6572206973206e6f7420746865206f776e657281525060200191505060405180910390fd5b600073ffffffffffffffffffffffffffffffffffffffff1660008054906101000a900473ffffffffffffffffffffffffffffffffffffffff1673ffffffffffffffffffffffffffffffffffffffff167f8be0079c531659141344cd1fd0a4f28419497f9722a3daafe3b4186f6b6457e060405160405180910390a360008060006101000a81548173ffffffffffffffffffffffffffffffffffffffff021916908373ffffffffffffffffffffffffffffffffffffffff160217905550565b60008060009054906101000a900473ffffffffffffffffffffffffffffffffffffffff16905090565b60026020528060005260406000206000915090508060000160009054906101000a900460ff16908060000160019054906101000a900460ff16908060010154905083565b6000806000905060005b60048054905081101561164557836040516020018082805190602001908083835b60208310611532578051825260208201915060208101905060208303925061150f565b6001836020036101000a03801982511681845116808217855250505050505090500191505060405160208183030381529060405280519060200120600160006004848154811061157e57fe5b9060005260206000200154815260200190815260200160002060000160405160200180828054600181600116156101000203166002900480156115f85780601f106115d65761010080835404028352918201916115f8565b820191906000526020600020905b8154815290600101906020018083116115e4575b5050915050604051602081830303815290604052805190602001201415611638576004818154811061162657fe5b90600052602060002001549150611645565b80806001019150506114ee565b5080915050919050565b606060038054806020026020016040519081016040528092919081815260200182805480156116d357602002820191906000526020600020905b8160009054906101000a900473ffffffffffffffffffffffffffffffffffffffff1673ffffffffffffffffffffffffffffffffffffffff1681526020019060010190808311611689575b5050505050905090565b6116e5612538565b73ffffffffffffffffffffffffffffffffffffffff16611703611477565b73ffffffffffffffffffffffffffffffffffffffff161461178c576040517f08c379a00000000000000000000000000000000000000000000000000000000081526004018080602001828103825260208152602001807f4f776e61626c653a2063616c6c6572206973206e6f7420746865206f776e657281525060200191505060405180910390fd5b6003600581111561179957fe5b600760009054906101000a900460ff1660058111156117b457fe5b14611827576040517f08c379a000000000000000000000000000000000000000000000000000000000815260040180806020018281038252601f8152602001807f566f74696e672073657373696f6e206973206e6f74207374617274656420210081525060200191505060405180910390fd5b6000600760009054906101000a900460ff1690506004600760006101000a81548160ff0219169083600581111561185a57fe5b02179055507f0a97a4ee45751e2abf3e4fc8946939630b11b371ea8ae39ccdc3056e98f5cc3f81600760009054906101000a900460ff16604051808360058111156118a157fe5b81526020018260058111156118b257fe5b81526020019250505060405180910390a17fc379d349a6301baf50fb2f98d829f4ae10b1cdb7c66f4e4d8117302df7b8cd4c60405160405180910390a150565b6118fa612538565b73ffffffffffffffffffffffffffffffffffffffff16611918611477565b73ffffffffffffffffffffffffffffffffffffffff16146119a1576040517f08c379a00000000000000000000000000000000000000000000000000000000081526004018080602001828103825260208152602001807f4f776e61626c653a2063616c6c6572206973206e6f7420746865206f776e657281525060200191505060405180910390fd5b600160058111156119ae57fe5b600760009054906101000a900460ff1660058111156119c957fe5b1415611a3d576040517f08c379a000000000000000000000000000000000000000000000000000000000815260040180806020018281038252601c8152602001807f526567697374726174696f6e20616c726561647920737461727465640000000081525060200191505060405180910390fd5b60006005811115611a4a57fe5b600760009054906101000a900460ff166005811115611a6557fe5b14611abb576040517f08c379a000000000000000000000000000000000000000000000000000000000815260040180806020018281038252603881526020018061261d6038913960400191505060405180910390fd5b6000600760009054906101000a900460ff1690506001600760006101000a81548160ff02191690836005811115611aee57fe5b02179055507f0a97a4ee45751e2abf3e4fc8946939630b11b371ea8ae39ccdc3056e98f5cc3f81600760009054906101000a900460ff1660405180836005811115611b3557fe5b8152602001826005811115611b4657fe5b81526020019250505060405180910390a17f344c25562921d075a298d34b6dd1fd00d36ff293974539dfd4a8c625d9f0064c60405160405180910390a150565b60055481565b60038181548110611b9957fe5b906000526020600020016000915054906101000a900473ffffffffffffffffffffffffffffffffffffffff1681565b611bd0612538565b73ffffffffffffffffffffffffffffffffffffffff16611bee611477565b73ffffffffffffffffffffffffffffffffffffffff1614611c77576040517f08c379a00000000000000000000000000000000000000000000000000000000081526004018080602001828103825260208152602001807f4f776e61626c653a2063616c6c6572206973206e6f7420746865206f776e657281525060200191505060405180910390fd5b60036005811115611c8457fe5b600760009054906101000a900460ff166005811115611c9f57fe5b1415611d13576040517f08c379a000000000000000000000000000000000000000000000000000000000815260040180806020018281038252601e8152602001807f566f74696e672073657373696f6e20616c72656164792073746172746564000081525060200191505060405180910390fd5b60026005811115611d2057fe5b600760009054906101000a900460ff166005811115611d3b57fe5b14611d91576040517f08c379a00000000000000000000000000000000000000000000000000000000081526004018080602001828103825260338152602001806126da6033913960400191505060405180910390fd5b6000600760009054906101000a900460ff1690506003600760006101000a81548160ff02191690836005811115611dc457fe5b02179055507f0a97a4ee45751e2abf3e4fc8946939630b11b371ea8ae39ccdc3056e98f5cc3f81600760009054906101000a900460ff1660405180836005811115611e0b57fe5b8152602001826005811115611e1c57fe5b81526020019250505060405180910390a17f1b8e19a458c1bcd88553332c518cc5c4e2d5793e712ee766d4f1c14f672ef1f560405160405180910390a150565b611e64612538565b73ffffffffffffffffffffffffffffffffffffffff16611e82611477565b73ffffffffffffffffffffffffffffffffffffffff1614611f0b576040517f08c379a00000000000000000000000000000000000000000000000000000000081526004018080602001828103825260208152602001807f4f776e61626c653a2063616c6c6572206973206e6f7420746865206f776e657281525060200191505060405180910390fd5b600073ffffffffffffffffffffffffffffffffffffffff168173ffffffffffffffffffffffffffffffffffffffff161415611f91576040517f08c379a00000000000000000000000000000000000000000000000000000000081526004018080602001828103825260268152602001806126556026913960400191505060405180910390fd5b8073ffffffffffffffffffffffffffffffffffffffff1660008054906101000a900473ffffffffffffffffffffffffffffffffffffffff1673ffffffffffffffffffffffffffffffffffffffff167f8be0079c531659141344cd1fd0a4f28419497f9722a3daafe3b4186f6b6457e060405160405180910390a3806000806101000a81548173ffffffffffffffffffffffffffffffffffffffff021916908373ffffffffffffffffffffffffffffffffffffffff16021790555050565b6003600581111561205b57fe5b600760009054906101000a900460ff16600581111561207657fe5b146120cc576040517f08c379a00000000000000000000000000000000000000000000000000000000081526004018080602001828103825260228152602001806127646022913960400191505060405180910390fd5b600260003373ffffffffffffffffffffffffffffffffffffffff1673ffffffffffffffffffffffffffffffffffffffff16815260200190815260200160002060000160009054906101000a900460ff1661218e576040517f08c379a00000000000000000000000000000000000000000000000000000000081526004018080602001828103825260208152602001807f596f75206d757374206265207265676973746572656420746f20766f7465202181525060200191505060405180910390fd5b600260003373ffffffffffffffffffffffffffffffffffffffff1673ffffffffffffffffffffffffffffffffffffffff16815260200190815260200160002060000160019054906101000a900460ff1615612234576040517f08c379a000000000000000000000000000000000000000000000000000000000815260040180806020018281038252602f81526020018061267b602f913960400191505060405180910390fd5b60003073ffffffffffffffffffffffffffffffffffffffff16639842ee9e836040518263ffffffff1660e01b81526004018080602001828103825283818151815260200191508051906020019080838360005b838110156122a2578082015181840152602081019050612287565b50505050905090810190601f1680156122cf5780820380516001836020036101000a031916815260200191505b509250505060206040518083038186803b1580156122ec57600080fd5b505afa158015612300573d6000803e3d6000fd5b505050506040513d602081101561231657600080fd5b810190808051906020019092919050505090506000811161239f576040517f08c379a00000000000000000000000000000000000000000000000000000000081526004018080602001828103825260148152602001807f50726f706f73616c204e6f7420466f756e64202100000000000000000000000081525060200191505060405180910390fd5b60016000828152602001908152602001600020600101600081548092919060010191905055506001600260003373ffffffffffffffffffffffffffffffffffffffff1673ffffffffffffffffffffffffffffffffffffffff16815260200190815260200160002060000160016101000a81548160ff02191690831515021790555080600260003373ffffffffffffffffffffffffffffffffffffffff1673ffffffffffffffffffffffffffffffffffffffff168152602001908152602001600020600101819055507f4d99b957a2bc29a30ebd96a7be8e68fe50a3c701db28a91436490b7d53870ca43382604051808373ffffffffffffffffffffffffffffffffffffffff1681526020018281526020019250505060405180910390a15050565b600060066000815480929190600101919050555060644233600654604051602001808481526020018373ffffffffffffffffffffffffffffffffffffffff1660601b815260140182815260200193505050506040516020818303038152906040528051906020012060001c8161253257fe5b06905090565b600033905090565b604051806040016040528060608152602001600081525090565b828054600181600116156101000203166002900490600052602060002090601f016020900481019282601f1061259b57805160ff19168380011785556125c9565b828001600101855582156125c9579182015b828111156125c85782518255916020019190600101906125ad565b5b5090506125d691906125ff565b5090565b6040518060600160405280600015158152602001600015158152602001600081525090565b5b80821115612618576000816000905550600101612600565b509056fe596f752063616e206f6e6c792072656769737465722070726f706f73616c7320616674657220766f74657220726567697374726174696f6e4f776e61626c653a206e6577206f776e657220697320746865207a65726f2061646472657373596f752074686f7567687420796f7520636f756c6420766f7465207477696365203f204e69636520747279202e2e2e54686973206973206e6f74207468652074696d6520666f722070726f706f73616c20726567697374726174696f6e2021596f752063616e206f6e6c7920766f74652061667465722070726f706f73616c20726567697374726174696f6e20656e646564596f75206d757374206265207265676973746572656420746f2073656e6420612070726f706f73616c2e54686973206973206e6f74207468652074696d6520666f7220766f74657220726567697374726174696f6e202154686973206973206e6f7420796574207468652074696d6520746f20766f746520215468697320766f74657220697320616c726561647920726567697374657265642021576169742c2074686973206973206e6f74207468652074696d6520746f2074616c6c792021a26469706673582212209bdb376287b183c590b6650950ed25702d8d1f5917805263390e0daecb65067d64736f6c634300060c0033",
  "immutableReferences": {},
  "source": "// contracts/GameItem.sol\r\n// SPDX-License-Identifier: MIT\r\npragma solidity 0.6.12;\r\nimport \"@openzeppelin/contracts/access/Ownable.sol\";\r\n\r\ncontract Voting is Ownable {\r\n    enum WorkflowStatus {\r\n        RegisteringVoters,\r\n        ProposalsRegistrationStarted,\r\n        ProposalsRegistrationEnded,\r\n        VotingSessionStarted,\r\n        VotingSessionEnded,\r\n        VotesTallied\r\n    }\r\n    struct Voter {\r\n        bool isRegistered;\r\n        bool hasVoted;\r\n        uint votedProposalId;\r\n    }\r\n    struct Proposal {\r\n        string description;\r\n        uint voteCount;\r\n    }\r\n    mapping (uint => Proposal) public _proposals;\r\n    mapping (address => Voter) public _voters;\r\n    address[] public addresses; // TODO remove this (only DEBUG)\r\n    uint[] _proposalIds;\r\n    uint public winningProposalId;\r\n    uint private nonce = 0;\r\n    WorkflowStatus public status = WorkflowStatus.RegisteringVoters;\r\n\r\n    event VoterRegistered(address voterAddress);\r\n    event ProposalsRegistrationStarted();\r\n    event ProposalsRegistrationEnded();\r\n    event ProposalRegistered(uint proposalId);\r\n    event VotingSessionStarted();\r\n    event VotingSessionEnded();\r\n    event Voted (address voter, uint proposalId);\r\n    event VotesTallied();\r\n    event WorkflowStatusChange(WorkflowStatus previousStatus, WorkflowStatus newStatus);\r\n\r\n    function random() internal returns (uint) {\r\n        nonce++;\r\n        return uint(keccak256(abi.encodePacked(block.timestamp, msg.sender, nonce))) % 100;\r\n    }\r\n    \r\n    function getProposalIdFromDescription(string memory _description) external view returns (uint) {\r\n        uint id = 0;\r\n        for(uint i=0; i<_proposalIds.length; i++) {\r\n            if (keccak256(abi.encodePacked((_proposals[_proposalIds[i]].description))) == keccak256(abi.encodePacked((_description)))) {\r\n                id = _proposalIds[i];\r\n                break;\r\n            }\r\n        }\r\n        return id;\r\n    }\r\n    \r\n    // TODO remove this (only DEBUG)\r\n    function getAddresses() public view returns(address[] memory){\r\n        return addresses;\r\n    }\r\n\r\n    function tally() external onlyOwner {\r\n        require(status == WorkflowStatus.VotingSessionEnded, \"Wait, this is not the time to tally !\");\r\n        require(status != WorkflowStatus.VotesTallied, \"Vote already tallied.\");\r\n        \r\n        uint max = 0;\r\n        for(uint i=0; i<_proposalIds.length; i++) {\r\n            if (_proposals[_proposalIds[i]].voteCount > max) {\r\n                max = _proposals[i].voteCount;\r\n                winningProposalId = _proposalIds[i];\r\n            }\r\n        }\r\n\r\n        WorkflowStatus previousStatus = status;\r\n        status = WorkflowStatus.VotesTallied;\r\n        emit WorkflowStatusChange(previousStatus, status);\r\n        emit VotesTallied();   \r\n    }\r\n    \r\n    function vote(string memory _description) external {\r\n        require(status == WorkflowStatus.VotingSessionStarted, \"This is not yet the time to vote !\");\r\n        require(_voters[msg.sender].isRegistered, \"You must be registered to vote !\");\r\n        require(!_voters[msg.sender].hasVoted, \"You thought you could vote twice ? Nice try ...\");\r\n\r\n        uint propId = this.getProposalIdFromDescription(_description);\r\n        require(propId > 0, \"Proposal Not Found !\");\r\n\r\n        _proposals[propId].voteCount++;  \r\n        _voters[msg.sender].hasVoted = true;\r\n        _voters[msg.sender].votedProposalId = propId;\r\n        \r\n        emit Voted(msg.sender, propId);\r\n    }\r\n    \r\n    function registerVoter(address _address) external onlyOwner {\r\n        require(status == WorkflowStatus.RegisteringVoters, \"This is not the time for voter registration !\");\r\n        require(!_voters[_address].isRegistered, \"This voter is already registered !\");\r\n        Voter memory voter;\r\n        voter.isRegistered = true;\r\n        voter.hasVoted = false;\r\n        _voters[_address] = voter;\r\n        addresses.push(_address); // TODO remove this (only DEBUG)\r\n        emit VoterRegistered(_address);\r\n    }\r\n    \r\n    function registerProposal(string memory _description) external {\r\n        require(status == WorkflowStatus.ProposalsRegistrationStarted, \"This is not the time for proposal registration !\");\r\n        require(_voters[msg.sender].isRegistered, \"You must be registered to send a proposal.\");\r\n\r\n        uint alreadyExistId = this.getProposalIdFromDescription(_description);\r\n        require(alreadyExistId == 0, \"Proposal already exist !\");\r\n\r\n        Proposal memory proposal;\r\n        proposal.description = _description;\r\n        proposal.voteCount = 0;\r\n        \r\n        uint proposalId = random();\r\n        _proposals[proposalId] = proposal;\r\n        _proposalIds.push(proposalId);\r\n        \r\n        emit ProposalRegistered(proposalId);\r\n    }\r\n    \r\n    function startProposalregistration() external onlyOwner {\r\n        require(status != WorkflowStatus.ProposalsRegistrationStarted, \"Registration already started\");\r\n        require(status == WorkflowStatus.RegisteringVoters, \"You can only register proposals after voter registration\");\r\n        WorkflowStatus previousStatus = status;\r\n        status = WorkflowStatus.ProposalsRegistrationStarted;\r\n        emit WorkflowStatusChange(previousStatus, status);\r\n        emit ProposalsRegistrationStarted();\r\n    }\r\n        \r\n    function endProposalregistration() external onlyOwner {\r\n        require(status == WorkflowStatus.ProposalsRegistrationStarted, \"Registration is not started !\");\r\n        WorkflowStatus previousStatus = status;\r\n        status = WorkflowStatus.ProposalsRegistrationEnded;\r\n        emit WorkflowStatusChange(previousStatus, status);\r\n        emit ProposalsRegistrationEnded();\r\n    }\r\n    \r\n    function startVotingSession() external onlyOwner {\r\n        require(status != WorkflowStatus.VotingSessionStarted, \"Voting session already started\");\r\n        require(status == WorkflowStatus.ProposalsRegistrationEnded, \"You can only vote after proposal registration ended\");\r\n        WorkflowStatus previousStatus = status;\r\n        status = WorkflowStatus.VotingSessionStarted;\r\n        emit WorkflowStatusChange(previousStatus, status);\r\n        emit VotingSessionStarted();\r\n    }\r\n        \r\n    function endVotingSession() external onlyOwner {\r\n        require(status == WorkflowStatus.VotingSessionStarted, \"Voting session is not started !\");\r\n        WorkflowStatus previousStatus = status;\r\n        status = WorkflowStatus.VotingSessionEnded;\r\n        emit WorkflowStatusChange(previousStatus, status);\r\n        emit VotingSessionEnded();\r\n    }\r\n\r\n}",
  "sourcePath": "D:/Formation ALYRA/defi-voting/contracts/Voting.sol",
  "compiler": {
    "name": "solc",
    "version": "0.6.12+commit.27d51765.Emscripten.clang"
  },
  "schemaVersion": "3.3.4",
  "updatedAt": "2021-03-14T18:06:01.604Z",
  "devdoc": {
    "kind": "dev",
    "methods": {
      "owner()": {
        "details": "Returns the address of the current owner."
      },
      "renounceOwnership()": {
        "details": "Leaves the contract without owner. It will not be possible to call `onlyOwner` functions anymore. Can only be called by the current owner. NOTE: Renouncing ownership will leave the contract without an owner, thereby removing any functionality that is only available to the owner."
      },
      "transferOwnership(address)": {
        "details": "Transfers ownership of the contract to a new account (`newOwner`). Can only be called by the current owner."
      }
    },
    "version": 1
  },
  "userdoc": {
    "kind": "user",
    "methods": {},
    "version": 1
  }
}