{
  "contractName": "Voting",
  "abi": [
    {
      "anonymous": false,
      "inputs": [
        {
          "indexed": true,
          "internalType": "address",
          "name": "previousOwner",
          "type": "address"
        },
        {
          "indexed": true,
          "internalType": "address",
          "name": "newOwner",
          "type": "address"
        }
      ],
      "name": "OwnershipTransferred",
      "type": "event"
    },
    {
      "anonymous": false,
      "inputs": [
        {
          "indexed": false,
          "internalType": "uint256",
          "name": "proposalId",
          "type": "uint256"
        }
      ],
      "name": "ProposalRegistered",
      "type": "event"
    },
    {
      "anonymous": false,
      "inputs": [],
      "name": "ProposalsRegistrationEnded",
      "type": "event"
    },
    {
      "anonymous": false,
      "inputs": [],
      "name": "ProposalsRegistrationStarted",
      "type": "event"
    },
    {
      "anonymous": false,
      "inputs": [],
      "name": "RegisteringVotersStarted",
      "type": "event"
    },
    {
      "anonymous": false,
      "inputs": [
        {
          "indexed": false,
          "internalType": "address",
          "name": "voter",
          "type": "address"
        },
        {
          "indexed": false,
          "internalType": "uint256",
          "name": "proposalId",
          "type": "uint256"
        }
      ],
      "name": "Voted",
      "type": "event"
    },
    {
      "anonymous": false,
      "inputs": [
        {
          "indexed": false,
          "internalType": "address",
          "name": "voterAddress",
          "type": "address"
        }
      ],
      "name": "VoterRegistered",
      "type": "event"
    },
    {
      "anonymous": false,
      "inputs": [],
      "name": "VotesTallied",
      "type": "event"
    },
    {
      "anonymous": false,
      "inputs": [],
      "name": "VotingSessionEnded",
      "type": "event"
    },
    {
      "anonymous": false,
      "inputs": [],
      "name": "VotingSessionStarted",
      "type": "event"
    },
    {
      "anonymous": false,
      "inputs": [
        {
          "indexed": false,
          "internalType": "enum Voting.WorkflowStatus",
          "name": "previousStatus",
          "type": "uint8"
        },
        {
          "indexed": false,
          "internalType": "enum Voting.WorkflowStatus",
          "name": "newStatus",
          "type": "uint8"
        }
      ],
      "name": "WorkflowStatusChange",
      "type": "event"
    },
    {
      "inputs": [
        {
          "internalType": "uint256",
          "name": "",
          "type": "uint256"
        }
      ],
      "name": "_proposals",
      "outputs": [
        {
          "internalType": "string",
          "name": "description",
          "type": "string"
        },
        {
          "internalType": "uint256",
          "name": "voteCount",
          "type": "uint256"
        }
      ],
      "stateMutability": "view",
      "type": "function",
      "constant": true
    },
    {
      "inputs": [
        {
          "internalType": "address",
          "name": "",
          "type": "address"
        }
      ],
      "name": "_voters",
      "outputs": [
        {
          "internalType": "bool",
          "name": "isRegistered",
          "type": "bool"
        },
        {
          "internalType": "bool",
          "name": "hasVoted",
          "type": "bool"
        },
        {
          "internalType": "uint256",
          "name": "votedProposalId",
          "type": "uint256"
        }
      ],
      "stateMutability": "view",
      "type": "function",
      "constant": true
    },
    {
      "inputs": [
        {
          "internalType": "uint256",
          "name": "",
          "type": "uint256"
        }
      ],
      "name": "addresses",
      "outputs": [
        {
          "internalType": "address",
          "name": "",
          "type": "address"
        }
      ],
      "stateMutability": "view",
      "type": "function",
      "constant": true
    },
    {
      "inputs": [],
      "name": "owner",
      "outputs": [
        {
          "internalType": "address",
          "name": "",
          "type": "address"
        }
      ],
      "stateMutability": "view",
      "type": "function",
      "constant": true
    },
    {
      "inputs": [],
      "name": "renounceOwnership",
      "outputs": [],
      "stateMutability": "nonpayable",
      "type": "function"
    },
    {
      "inputs": [],
      "name": "status",
      "outputs": [
        {
          "internalType": "enum Voting.WorkflowStatus",
          "name": "",
          "type": "uint8"
        }
      ],
      "stateMutability": "view",
      "type": "function",
      "constant": true
    },
    {
      "inputs": [
        {
          "internalType": "address",
          "name": "newOwner",
          "type": "address"
        }
      ],
      "name": "transferOwnership",
      "outputs": [],
      "stateMutability": "nonpayable",
      "type": "function"
    },
    {
      "inputs": [],
      "name": "winningProposalId",
      "outputs": [
        {
          "internalType": "uint256",
          "name": "",
          "type": "uint256"
        }
      ],
      "stateMutability": "view",
      "type": "function",
      "constant": true
    },
    {
      "inputs": [
        {
          "internalType": "string",
          "name": "_description",
          "type": "string"
        }
      ],
      "name": "getProposalIdFromDescription",
      "outputs": [
        {
          "internalType": "uint256",
          "name": "",
          "type": "uint256"
        }
      ],
      "stateMutability": "view",
      "type": "function",
      "constant": true
    },
    {
      "inputs": [],
      "name": "getAddresses",
      "outputs": [
        {
          "internalType": "address[]",
          "name": "",
          "type": "address[]"
        }
      ],
      "stateMutability": "view",
      "type": "function",
      "constant": true
    },
    {
      "inputs": [],
      "name": "getProposals",
      "outputs": [
        {
          "internalType": "string[]",
          "name": "",
          "type": "string[]"
        }
      ],
      "stateMutability": "view",
      "type": "function",
      "constant": true
    },
    {
      "inputs": [],
      "name": "getWinner",
      "outputs": [
        {
          "internalType": "string",
          "name": "",
          "type": "string"
        },
        {
          "internalType": "uint256",
          "name": "",
          "type": "uint256"
        }
      ],
      "stateMutability": "view",
      "type": "function",
      "constant": true
    },
    {
      "inputs": [],
      "name": "tally",
      "outputs": [],
      "stateMutability": "nonpayable",
      "type": "function"
    },
    {
      "inputs": [
        {
          "internalType": "string",
          "name": "_description",
          "type": "string"
        }
      ],
      "name": "vote",
      "outputs": [],
      "stateMutability": "nonpayable",
      "type": "function"
    },
    {
      "inputs": [
        {
          "internalType": "address",
          "name": "_address",
          "type": "address"
        }
      ],
      "name": "registerVoter",
      "outputs": [],
      "stateMutability": "nonpayable",
      "type": "function"
    },
    {
      "inputs": [
        {
          "internalType": "string",
          "name": "_description",
          "type": "string"
        }
      ],
      "name": "registerProposal",
      "outputs": [],
      "stateMutability": "nonpayable",
      "type": "function"
    },
    {
      "inputs": [],
      "name": "startVotersregistration",
      "outputs": [],
      "stateMutability": "nonpayable",
      "type": "function"
    },
    {
      "inputs": [],
      "name": "startProposalregistration",
      "outputs": [],
      "stateMutability": "nonpayable",
      "type": "function"
    },
    {
      "inputs": [],
      "name": "endProposalregistration",
      "outputs": [],
      "stateMutability": "nonpayable",
      "type": "function"
    },
    {
      "inputs": [],
      "name": "startVotingSession",
      "outputs": [],
      "stateMutability": "nonpayable",
      "type": "function"
    },
    {
      "inputs": [],
      "name": "endVotingSession",
      "outputs": [],
      "stateMutability": "nonpayable",
      "type": "function"
    }
  ],
  "bytecode": "0x608060405260006006556000600760006101000a81548160ff0219169083600581111562000056577f4e487b7100000000000000000000000000000000000000000000000000000000600052602160045260246000fd5b02179055503480156200006857600080fd5b5060006200007b6200011f60201b60201c565b9050806000806101000a81548173ffffffffffffffffffffffffffffffffffffffff021916908373ffffffffffffffffffffffffffffffffffffffff1602179055508073ffffffffffffffffffffffffffffffffffffffff16600073ffffffffffffffffffffffffffffffffffffffff167f8be0079c531659141344cd1fd0a4f28419497f9722a3daafe3b4186f6b6457e060405160405180910390a35062000127565b600033905090565b61399480620001376000396000f3fe608060405234801561001057600080fd5b50600436106101375760003560e01c80638e7ea5b2116100b8578063b452eaa41161007c578063b452eaa4146102d0578063c64963c5146102da578063edf26d9b146102f8578063ee74c67814610328578063f2fde38b14610332578063fc36e15b1461034e57610137565b80638e7ea5b2146102275780639029e1cf146102465780639842ee9e14610278578063a39fac12146102a8578063a7bfab16146102c657610137565b806338db6dd3116100ff57806338db6dd3146101bb578063410673e5146101d757806362564c48146101e1578063715018a6146101ff5780638da5cb5b1461020957610137565b80630a4948401461013c5780631b4524ba1461016d578063200d2ed2146101775780632f95355b14610195578063328b8672146101b1575b600080fd5b61015660048036038101906101519190612807565b61036a565b6040516101649291906132bf565b60405180910390f35b610175610416565b005b61017f610631565b60405161018c9190613259565b60405180910390f35b6101af60048036038101906101aa91906127c6565b610644565b005b6101b9610931565b005b6101d560048036038101906101d0919061279d565b610b4b565b005b6101df610e6e565b005b6101e9611237565b6040516101f69190613200565b60405180910390f35b610207611408565b005b610211611542565b60405161021e919061319a565b60405180910390f35b61022f61156b565b60405161023d9291906132bf565b60405180910390f35b610260600480360381019061025b919061279d565b611634565b60405161026f93929190613222565b60405180910390f35b610292600480360381019061028d91906127c6565b611678565b60405161029f919061354f565b60405180910390f35b6102b06117a5565b6040516102bd91906131de565b60405180910390f35b6102ce611833565b005b6102d8611a4d565b005b6102e2611d2a565b6040516102ef919061354f565b60405180910390f35b610312600480360381019061030d9190612807565b611d30565b60405161031f919061319a565b60405180910390f35b610330611d6f565b005b61034c6004803603810190610347919061279d565b61204c565b005b610368600480360381019061036391906127c6565b6121f5565b005b600160205280600052604060002060009150905080600001805461038d90613739565b80601f01602080910402602001604051908101604052809291908181526020018280546103b990613739565b80156104065780601f106103db57610100808354040283529160200191610406565b820191906000526020600020905b8154815290600101906020018083116103e957829003601f168201915b5050505050908060010154905082565b61041e6125b1565b73ffffffffffffffffffffffffffffffffffffffff1661043c611542565b73ffffffffffffffffffffffffffffffffffffffff1614610492576040517f08c379a00000000000000000000000000000000000000000000000000000000081526004016104899061346f565b60405180910390fd5b600060058111156104cc577f4e487b7100000000000000000000000000000000000000000000000000000000600052602160045260246000fd5b600760009054906101000a900460ff166005811115610514577f4e487b7100000000000000000000000000000000000000000000000000000000600052602160045260246000fd5b1415610555576040517f08c379a000000000000000000000000000000000000000000000000000000000815260040161054c9061334f565b60405180910390fd5b6000600760009054906101000a900460ff1690506000600760006101000a81548160ff021916908360058111156105b5577f4e487b7100000000000000000000000000000000000000000000000000000000600052602160045260246000fd5b02179055507f0a97a4ee45751e2abf3e4fc8946939630b11b371ea8ae39ccdc3056e98f5cc3f81600760009054906101000a900460ff166040516105fa929190613274565b60405180910390a17f4af5fb7dc8f21e936cf19959d5a6b75fa54320031fd314788f215d893bcb95e760405160405180910390a150565b600760009054906101000a900460ff1681565b6001600581111561067e577f4e487b7100000000000000000000000000000000000000000000000000000000600052602160045260246000fd5b600760009054906101000a900460ff1660058111156106c6577f4e487b7100000000000000000000000000000000000000000000000000000000600052602160045260246000fd5b14610706576040517f08c379a00000000000000000000000000000000000000000000000000000000081526004016106fd906133af565b60405180910390fd5b600260003373ffffffffffffffffffffffffffffffffffffffff1673ffffffffffffffffffffffffffffffffffffffff16815260200190815260200160002060000160009054906101000a900460ff16610795576040517f08c379a000000000000000000000000000000000000000000000000000000000815260040161078c906133ef565b60405180910390fd5b60003073ffffffffffffffffffffffffffffffffffffffff16639842ee9e836040518263ffffffff1660e01b81526004016107d0919061329d565b60206040518083038186803b1580156107e857600080fd5b505afa1580156107fc573d6000803e3d6000fd5b505050506040513d601f19601f820116820180604052508101906108209190612830565b905060008114610865576040517f08c379a000000000000000000000000000000000000000000000000000000000815260040161085c9061336f565b60405180910390fd5b61086d612614565b8281600001819052506000816020018181525050600061088b6125b9565b9050816001600083815260200190815260200160002060008201518160000190805190602001906108bd92919061262e565b506020820151816001015590505060048190806001815401808255809150506001900390600052602060002001600090919091909150557f92e393e9b54e2f801d3ea4beb0c5e71a21cc34a5d34b77d0fb8a3aa1650dc18f81604051610923919061354f565b60405180910390a150505050565b6109396125b1565b73ffffffffffffffffffffffffffffffffffffffff16610957611542565b73ffffffffffffffffffffffffffffffffffffffff16146109ad576040517f08c379a00000000000000000000000000000000000000000000000000000000081526004016109a49061346f565b60405180910390fd5b600160058111156109e7577f4e487b7100000000000000000000000000000000000000000000000000000000600052602160045260246000fd5b600760009054906101000a900460ff166005811115610a2f577f4e487b7100000000000000000000000000000000000000000000000000000000600052602160045260246000fd5b14610a6f576040517f08c379a0000000000000000000000000000000000000000000000000000000008152600401610a669061344f565b60405180910390fd5b6000600760009054906101000a900460ff1690506002600760006101000a81548160ff02191690836005811115610acf577f4e487b7100000000000000000000000000000000000000000000000000000000600052602160045260246000fd5b02179055507f0a97a4ee45751e2abf3e4fc8946939630b11b371ea8ae39ccdc3056e98f5cc3f81600760009054906101000a900460ff16604051610b14929190613274565b60405180910390a17f240cb87b2e4df4c318e72bd714d45a9cad60249e883ff56b1fffd83a4595a8fa60405160405180910390a150565b610b536125b1565b73ffffffffffffffffffffffffffffffffffffffff16610b71611542565b73ffffffffffffffffffffffffffffffffffffffff1614610bc7576040517f08c379a0000000000000000000000000000000000000000000000000000000008152600401610bbe9061346f565b60405180910390fd5b60006005811115610c01577f4e487b7100000000000000000000000000000000000000000000000000000000600052602160045260246000fd5b600760009054906101000a900460ff166005811115610c49577f4e487b7100000000000000000000000000000000000000000000000000000000600052602160045260246000fd5b14610c89576040517f08c379a0000000000000000000000000000000000000000000000000000000008152600401610c809061340f565b60405180910390fd5b600260008273ffffffffffffffffffffffffffffffffffffffff1673ffffffffffffffffffffffffffffffffffffffff16815260200190815260200160002060000160009054906101000a900460ff1615610d19576040517f08c379a0000000000000000000000000000000000000000000000000000000008152600401610d10906134ef565b60405180910390fd5b610d216126b4565b6001816000019015159081151581525050600081602001901515908115158152505080600260008473ffffffffffffffffffffffffffffffffffffffff1673ffffffffffffffffffffffffffffffffffffffff16815260200190815260200160002060008201518160000160006101000a81548160ff02191690831515021790555060208201518160000160016101000a81548160ff021916908315150217905550604082015181600101559050506003829080600181540180825580915050600190039060005260206000200160009091909190916101000a81548173ffffffffffffffffffffffffffffffffffffffff021916908373ffffffffffffffffffffffffffffffffffffffff1602179055507fb6be2187d059cc2a55fe29e0e503b566e1e0f8c8780096e185429350acffd3dd82604051610e62919061319a565b60405180910390a15050565b610e766125b1565b73ffffffffffffffffffffffffffffffffffffffff16610e94611542565b73ffffffffffffffffffffffffffffffffffffffff1614610eea576040517f08c379a0000000000000000000000000000000000000000000000000000000008152600401610ee19061346f565b60405180910390fd5b60046005811115610f24577f4e487b7100000000000000000000000000000000000000000000000000000000600052602160045260246000fd5b600760009054906101000a900460ff166005811115610f6c577f4e487b7100000000000000000000000000000000000000000000000000000000600052602160045260246000fd5b14610fac576040517f08c379a0000000000000000000000000000000000000000000000000000000008152600401610fa39061350f565b60405180910390fd5b600580811115610fe5577f4e487b7100000000000000000000000000000000000000000000000000000000600052602160045260246000fd5b600760009054906101000a900460ff16600581111561102d577f4e487b7100000000000000000000000000000000000000000000000000000000600052602160045260246000fd5b141561106e576040517f08c379a00000000000000000000000000000000000000000000000000000000081526004016110659061348f565b60405180910390fd5b6000805b600480549050811015611159578160016000600484815481106110be577f4e487b7100000000000000000000000000000000000000000000000000000000600052603260045260246000fd5b90600052602060002001548152602001908152602001600020600101541115611146576001600082815260200190815260200160002060010154915060048181548110611134577f4e487b7100000000000000000000000000000000000000000000000000000000600052603260045260246000fd5b90600052602060002001546005819055505b80806111519061376b565b915050611072565b506000600760009054906101000a900460ff1690506005600760006101000a81548160ff021916908360058111156111ba577f4e487b7100000000000000000000000000000000000000000000000000000000600052602160045260246000fd5b02179055507f0a97a4ee45751e2abf3e4fc8946939630b11b371ea8ae39ccdc3056e98f5cc3f81600760009054906101000a900460ff166040516111ff929190613274565b60405180910390a17f0e5e95ff8725ab3e7a4b6b59998a4c344c2aa8d1485f5e60cb7f337768e6134760405160405180910390a15050565b6060600060048054905067ffffffffffffffff811115611280577f4e487b7100000000000000000000000000000000000000000000000000000000600052604160045260246000fd5b6040519080825280602002602001820160405280156112b357816020015b606081526020019060019003908161129e5790505b50905060005b600480549050811015611400576001600060048381548110611304577f4e487b7100000000000000000000000000000000000000000000000000000000600052603260045260246000fd5b90600052602060002001548152602001908152602001600020600001805461132b90613739565b80601f016020809104026020016040519081016040528092919081815260200182805461135790613739565b80156113a45780601f10611379576101008083540402835291602001916113a4565b820191906000526020600020905b81548152906001019060200180831161138757829003601f168201915b50505050508282815181106113e2577f4e487b7100000000000000000000000000000000000000000000000000000000600052603260045260246000fd5b602002602001018190525080806113f89061376b565b9150506112b9565b508091505090565b6114106125b1565b73ffffffffffffffffffffffffffffffffffffffff1661142e611542565b73ffffffffffffffffffffffffffffffffffffffff1614611484576040517f08c379a000000000000000000000000000000000000000000000000000000000815260040161147b9061346f565b60405180910390fd5b600073ffffffffffffffffffffffffffffffffffffffff1660008054906101000a900473ffffffffffffffffffffffffffffffffffffffff1673ffffffffffffffffffffffffffffffffffffffff167f8be0079c531659141344cd1fd0a4f28419497f9722a3daafe3b4186f6b6457e060405160405180910390a360008060006101000a81548173ffffffffffffffffffffffffffffffffffffffff021916908373ffffffffffffffffffffffffffffffffffffffff160217905550565b60008060009054906101000a900473ffffffffffffffffffffffffffffffffffffffff16905090565b60606000600160006005548152602001908152602001600020600001600160006005548152602001908152602001600020600101548180546115ac90613739565b80601f01602080910402602001604051908101604052809291908181526020018280546115d890613739565b80156116255780601f106115fa57610100808354040283529160200191611625565b820191906000526020600020905b81548152906001019060200180831161160857829003601f168201915b50505050509150915091509091565b60026020528060005260406000206000915090508060000160009054906101000a900460ff16908060000160019054906101000a900460ff16908060010154905083565b6000806000905060005b60048054905081101561179b57836040516020016116a0919061312f565b6040516020818303038152906040528051906020012060016000600484815481106116f4577f4e487b7100000000000000000000000000000000000000000000000000000000600052603260045260246000fd5b906000526020600020015481526020019081526020016000206000016040516020016117209190613146565b6040516020818303038152906040528051906020012014156117885760048181548110611776577f4e487b7100000000000000000000000000000000000000000000000000000000600052603260045260246000fd5b9060005260206000200154915061179b565b80806117939061376b565b915050611682565b5080915050919050565b6060600380548060200260200160405190810160405280929190818152602001828054801561182957602002820191906000526020600020905b8160009054906101000a900473ffffffffffffffffffffffffffffffffffffffff1673ffffffffffffffffffffffffffffffffffffffff16815260200190600101908083116117df575b5050505050905090565b61183b6125b1565b73ffffffffffffffffffffffffffffffffffffffff16611859611542565b73ffffffffffffffffffffffffffffffffffffffff16146118af576040517f08c379a00000000000000000000000000000000000000000000000000000000081526004016118a69061346f565b60405180910390fd5b600360058111156118e9577f4e487b7100000000000000000000000000000000000000000000000000000000600052602160045260246000fd5b600760009054906101000a900460ff166005811115611931577f4e487b7100000000000000000000000000000000000000000000000000000000600052602160045260246000fd5b14611971576040517f08c379a00000000000000000000000000000000000000000000000000000000081526004016119689061342f565b60405180910390fd5b6000600760009054906101000a900460ff1690506004600760006101000a81548160ff021916908360058111156119d1577f4e487b7100000000000000000000000000000000000000000000000000000000600052602160045260246000fd5b02179055507f0a97a4ee45751e2abf3e4fc8946939630b11b371ea8ae39ccdc3056e98f5cc3f81600760009054906101000a900460ff16604051611a16929190613274565b60405180910390a17fc379d349a6301baf50fb2f98d829f4ae10b1cdb7c66f4e4d8117302df7b8cd4c60405160405180910390a150565b611a556125b1565b73ffffffffffffffffffffffffffffffffffffffff16611a73611542565b73ffffffffffffffffffffffffffffffffffffffff1614611ac9576040517f08c379a0000000000000000000000000000000000000000000000000000000008152600401611ac09061346f565b60405180910390fd5b60016005811115611b03577f4e487b7100000000000000000000000000000000000000000000000000000000600052602160045260246000fd5b600760009054906101000a900460ff166005811115611b4b577f4e487b7100000000000000000000000000000000000000000000000000000000600052602160045260246000fd5b1415611b8c576040517f08c379a0000000000000000000000000000000000000000000000000000000008152600401611b839061334f565b60405180910390fd5b60006005811115611bc6577f4e487b7100000000000000000000000000000000000000000000000000000000600052602160045260246000fd5b600760009054906101000a900460ff166005811115611c0e577f4e487b7100000000000000000000000000000000000000000000000000000000600052602160045260246000fd5b14611c4e576040517f08c379a0000000000000000000000000000000000000000000000000000000008152600401611c45906132ef565b60405180910390fd5b6000600760009054906101000a900460ff1690506001600760006101000a81548160ff02191690836005811115611cae577f4e487b7100000000000000000000000000000000000000000000000000000000600052602160045260246000fd5b02179055507f0a97a4ee45751e2abf3e4fc8946939630b11b371ea8ae39ccdc3056e98f5cc3f81600760009054906101000a900460ff16604051611cf3929190613274565b60405180910390a17f344c25562921d075a298d34b6dd1fd00d36ff293974539dfd4a8c625d9f0064c60405160405180910390a150565b60055481565b60038181548110611d4057600080fd5b906000526020600020016000915054906101000a900473ffffffffffffffffffffffffffffffffffffffff1681565b611d776125b1565b73ffffffffffffffffffffffffffffffffffffffff16611d95611542565b73ffffffffffffffffffffffffffffffffffffffff1614611deb576040517f08c379a0000000000000000000000000000000000000000000000000000000008152600401611de29061346f565b60405180910390fd5b60036005811115611e25577f4e487b7100000000000000000000000000000000000000000000000000000000600052602160045260246000fd5b600760009054906101000a900460ff166005811115611e6d577f4e487b7100000000000000000000000000000000000000000000000000000000600052602160045260246000fd5b1415611eae576040517f08c379a0000000000000000000000000000000000000000000000000000000008152600401611ea59061332f565b60405180910390fd5b60026005811115611ee8577f4e487b7100000000000000000000000000000000000000000000000000000000600052602160045260246000fd5b600760009054906101000a900460ff166005811115611f30577f4e487b7100000000000000000000000000000000000000000000000000000000600052602160045260246000fd5b14611f70576040517f08c379a0000000000000000000000000000000000000000000000000000000008152600401611f67906133cf565b60405180910390fd5b6000600760009054906101000a900460ff1690506003600760006101000a81548160ff02191690836005811115611fd0577f4e487b7100000000000000000000000000000000000000000000000000000000600052602160045260246000fd5b02179055507f0a97a4ee45751e2abf3e4fc8946939630b11b371ea8ae39ccdc3056e98f5cc3f81600760009054906101000a900460ff16604051612015929190613274565b60405180910390a17f1b8e19a458c1bcd88553332c518cc5c4e2d5793e712ee766d4f1c14f672ef1f560405160405180910390a150565b6120546125b1565b73ffffffffffffffffffffffffffffffffffffffff16612072611542565b73ffffffffffffffffffffffffffffffffffffffff16146120c8576040517f08c379a00000000000000000000000000000000000000000000000000000000081526004016120bf9061346f565b60405180910390fd5b600073ffffffffffffffffffffffffffffffffffffffff168173ffffffffffffffffffffffffffffffffffffffff161415612138576040517f08c379a000000000000000000000000000000000000000000000000000000000815260040161212f9061330f565b60405180910390fd5b8073ffffffffffffffffffffffffffffffffffffffff1660008054906101000a900473ffffffffffffffffffffffffffffffffffffffff1673ffffffffffffffffffffffffffffffffffffffff167f8be0079c531659141344cd1fd0a4f28419497f9722a3daafe3b4186f6b6457e060405160405180910390a3806000806101000a81548173ffffffffffffffffffffffffffffffffffffffff021916908373ffffffffffffffffffffffffffffffffffffffff16021790555050565b6003600581111561222f577f4e487b7100000000000000000000000000000000000000000000000000000000600052602160045260246000fd5b600760009054906101000a900460ff166005811115612277577f4e487b7100000000000000000000000000000000000000000000000000000000600052602160045260246000fd5b146122b7576040517f08c379a00000000000000000000000000000000000000000000000000000000081526004016122ae906134cf565b60405180910390fd5b600260003373ffffffffffffffffffffffffffffffffffffffff1673ffffffffffffffffffffffffffffffffffffffff16815260200190815260200160002060000160009054906101000a900460ff16612346576040517f08c379a000000000000000000000000000000000000000000000000000000000815260040161233d9061352f565b60405180910390fd5b600260003373ffffffffffffffffffffffffffffffffffffffff1673ffffffffffffffffffffffffffffffffffffffff16815260200190815260200160002060000160019054906101000a900460ff16156123d6576040517f08c379a00000000000000000000000000000000000000000000000000000000081526004016123cd9061338f565b60405180910390fd5b60003073ffffffffffffffffffffffffffffffffffffffff16639842ee9e836040518263ffffffff1660e01b8152600401612411919061329d565b60206040518083038186803b15801561242957600080fd5b505afa15801561243d573d6000803e3d6000fd5b505050506040513d601f19601f820116820180604052508101906124619190612830565b9050600081116124a6576040517f08c379a000000000000000000000000000000000000000000000000000000000815260040161249d906134af565b60405180910390fd5b6001600082815260200190815260200160002060010160008154809291906124cd9061376b565b91905055506001600260003373ffffffffffffffffffffffffffffffffffffffff1673ffffffffffffffffffffffffffffffffffffffff16815260200190815260200160002060000160016101000a81548160ff02191690831515021790555080600260003373ffffffffffffffffffffffffffffffffffffffff1673ffffffffffffffffffffffffffffffffffffffff168152602001908152602001600020600101819055507f4d99b957a2bc29a30ebd96a7be8e68fe50a3c701db28a91436490b7d53870ca433826040516125a59291906131b5565b60405180910390a15050565b600033905090565b6000600660008154809291906125ce9061376b565b9190505550606442336006546040516020016125ec9392919061315d565b6040516020818303038152906040528051906020012060001c61260f91906137e2565b905090565b604051806040016040528060608152602001600081525090565b82805461263a90613739565b90600052602060002090601f01602090048101928261265c57600085556126a3565b82601f1061267557805160ff19168380011785556126a3565b828001600101855582156126a3579182015b828111156126a2578251825591602001919060010190612687565b5b5090506126b091906126d9565b5090565b6040518060600160405280600015158152602001600015158152602001600081525090565b5b808211156126f25760008160009055506001016126da565b5090565b60006127096127048461359b565b61356a565b90508281526020810184848401111561272157600080fd5b61272c8482856136f7565b509392505050565b60008135905061274381613930565b92915050565b600082601f83011261275a57600080fd5b813561276a8482602086016126f6565b91505092915050565b60008135905061278281613947565b92915050565b60008151905061279781613947565b92915050565b6000602082840312156127af57600080fd5b60006127bd84828501612734565b91505092915050565b6000602082840312156127d857600080fd5b600082013567ffffffffffffffff8111156127f257600080fd5b6127fe84828501612749565b91505092915050565b60006020828403121561281957600080fd5b600061282784828501612773565b91505092915050565b60006020828403121561284257600080fd5b600061285084828501612788565b91505092915050565b60006128658383612885565b60208301905092915050565b600061287d83836129ab565b905092915050565b61288e8161368a565b82525050565b61289d8161368a565b82525050565b6128b46128af8261368a565b6137b4565b82525050565b60006128c582613600565b6128cf818561363b565b93506128da836135cb565b8060005b8381101561290b5781516128f28882612859565b97506128fd83613621565b9250506001810190506128de565b5085935050505092915050565b60006129238261360b565b61292d818561364c565b93508360208202850161293f856135db565b8060005b8581101561297b578484038952815161295c8582612871565b94506129678361362e565b925060208a01995050600181019050612943565b50829750879550505050505092915050565b6129968161369c565b82525050565b6129a5816136e5565b82525050565b60006129b682613616565b6129c0818561365d565b93506129d0818560208601613706565b6129d9816138fe565b840191505092915050565b60006129ef82613616565b6129f9818561366e565b9350612a09818560208601613706565b612a12816138fe565b840191505092915050565b6000612a2882613616565b612a32818561367f565b9350612a42818560208601613706565b80840191505092915050565b60008154612a5b81613739565b612a65818661367f565b94506001821660008114612a805760018114612a9157612ac4565b60ff19831686528186019350612ac4565b612a9a856135eb565b60005b83811015612abc57815481890152600182019150602081019050612a9d565b838801955050505b50505092915050565b6000612ada60388361366e565b91507f596f752063616e206f6e6c792072656769737465722070726f706f73616c732060008301527f616674657220766f74657220726567697374726174696f6e00000000000000006020830152604082019050919050565b6000612b4060268361366e565b91507f4f776e61626c653a206e6577206f776e657220697320746865207a65726f206160008301527f64647265737300000000000000000000000000000000000000000000000000006020830152604082019050919050565b6000612ba6601e8361366e565b91507f566f74696e672073657373696f6e20616c7265616479207374617274656400006000830152602082019050919050565b6000612be6601c8361366e565b91507f526567697374726174696f6e20616c72656164792073746172746564000000006000830152602082019050919050565b6000612c2660188361366e565b91507f50726f706f73616c20616c7265616479206578697374202100000000000000006000830152602082019050919050565b6000612c66602f8361366e565b91507f596f752074686f7567687420796f7520636f756c6420766f746520747769636560008301527f203f204e69636520747279202e2e2e00000000000000000000000000000000006020830152604082019050919050565b6000612ccc60308361366e565b91507f54686973206973206e6f74207468652074696d6520666f722070726f706f736160008301527f6c20726567697374726174696f6e2021000000000000000000000000000000006020830152604082019050919050565b6000612d3260338361366e565b91507f596f752063616e206f6e6c7920766f74652061667465722070726f706f73616c60008301527f20726567697374726174696f6e20656e646564000000000000000000000000006020830152604082019050919050565b6000612d98602a8361366e565b91507f596f75206d757374206265207265676973746572656420746f2073656e64206160008301527f2070726f706f73616c2e000000000000000000000000000000000000000000006020830152604082019050919050565b6000612dfe602d8361366e565b91507f54686973206973206e6f74207468652074696d6520666f7220766f746572207260008301527f6567697374726174696f6e2021000000000000000000000000000000000000006020830152604082019050919050565b6000612e64601f8361366e565b91507f566f74696e672073657373696f6e206973206e6f7420737461727465642021006000830152602082019050919050565b6000612ea4601d8361366e565b91507f526567697374726174696f6e206973206e6f74207374617274656420210000006000830152602082019050919050565b6000612ee460208361366e565b91507f4f776e61626c653a2063616c6c6572206973206e6f7420746865206f776e65726000830152602082019050919050565b6000612f2460158361366e565b91507f566f746520616c72656164792074616c6c6965642e00000000000000000000006000830152602082019050919050565b6000612f6460148361366e565b91507f50726f706f73616c204e6f7420466f756e6420210000000000000000000000006000830152602082019050919050565b6000612fa460228361366e565b91507f54686973206973206e6f7420796574207468652074696d6520746f20766f746560008301527f20210000000000000000000000000000000000000000000000000000000000006020830152604082019050919050565b600061300a60228361366e565b91507f5468697320766f74657220697320616c7265616479207265676973746572656460008301527f20210000000000000000000000000000000000000000000000000000000000006020830152604082019050919050565b600061307060258361366e565b91507f576169742c2074686973206973206e6f74207468652074696d6520746f20746160008301527f6c6c7920210000000000000000000000000000000000000000000000000000006020830152604082019050919050565b60006130d660208361366e565b91507f596f75206d757374206265207265676973746572656420746f20766f746520216000830152602082019050919050565b613112816136db565b82525050565b613129613124826136db565b6137d8565b82525050565b600061313b8284612a1d565b915081905092915050565b60006131528284612a4e565b915081905092915050565b60006131698286613118565b60208201915061317982856128a3565b6014820191506131898284613118565b602082019150819050949350505050565b60006020820190506131af6000830184612894565b92915050565b60006040820190506131ca6000830185612894565b6131d76020830184613109565b9392505050565b600060208201905081810360008301526131f881846128ba565b905092915050565b6000602082019050818103600083015261321a8184612918565b905092915050565b6000606082019050613237600083018661298d565b613244602083018561298d565b6132516040830184613109565b949350505050565b600060208201905061326e600083018461299c565b92915050565b6000604082019050613289600083018561299c565b613296602083018461299c565b9392505050565b600060208201905081810360008301526132b781846129e4565b905092915050565b600060408201905081810360008301526132d981856129e4565b90506132e86020830184613109565b9392505050565b6000602082019050818103600083015261330881612acd565b9050919050565b6000602082019050818103600083015261332881612b33565b9050919050565b6000602082019050818103600083015261334881612b99565b9050919050565b6000602082019050818103600083015261336881612bd9565b9050919050565b6000602082019050818103600083015261338881612c19565b9050919050565b600060208201905081810360008301526133a881612c59565b9050919050565b600060208201905081810360008301526133c881612cbf565b9050919050565b600060208201905081810360008301526133e881612d25565b9050919050565b6000602082019050818103600083015261340881612d8b565b9050919050565b6000602082019050818103600083015261342881612df1565b9050919050565b6000602082019050818103600083015261344881612e57565b9050919050565b6000602082019050818103600083015261346881612e97565b9050919050565b6000602082019050818103600083015261348881612ed7565b9050919050565b600060208201905081810360008301526134a881612f17565b9050919050565b600060208201905081810360008301526134c881612f57565b9050919050565b600060208201905081810360008301526134e881612f97565b9050919050565b6000602082019050818103600083015261350881612ffd565b9050919050565b6000602082019050818103600083015261352881613063565b9050919050565b60006020820190508181036000830152613548816130c9565b9050919050565b60006020820190506135646000830184613109565b92915050565b6000604051905081810181811067ffffffffffffffff82111715613591576135906138cf565b5b8060405250919050565b600067ffffffffffffffff8211156135b6576135b56138cf565b5b601f19601f8301169050602081019050919050565b6000819050602082019050919050565b6000819050602082019050919050565b60008190508160005260206000209050919050565b600081519050919050565b600081519050919050565b600081519050919050565b6000602082019050919050565b6000602082019050919050565b600082825260208201905092915050565b600082825260208201905092915050565b600082825260208201905092915050565b600082825260208201905092915050565b600081905092915050565b6000613695826136bb565b9050919050565b60008115159050919050565b60008190506136b68261391c565b919050565b600073ffffffffffffffffffffffffffffffffffffffff82169050919050565b6000819050919050565b60006136f0826136a8565b9050919050565b82818337600083830152505050565b60005b83811015613724578082015181840152602081019050613709565b83811115613733576000848401525b50505050565b6000600282049050600182168061375157607f821691505b60208210811415613765576137646138a0565b5b50919050565b6000613776826136db565b91507fffffffffffffffffffffffffffffffffffffffffffffffffffffffffffffffff8214156137a9576137a8613813565b5b600182019050919050565b60006137bf826137c6565b9050919050565b60006137d18261390f565b9050919050565b6000819050919050565b60006137ed826136db565b91506137f8836136db565b92508261380857613807613842565b5b828206905092915050565b7f4e487b7100000000000000000000000000000000000000000000000000000000600052601160045260246000fd5b7f4e487b7100000000000000000000000000000000000000000000000000000000600052601260045260246000fd5b7f4e487b7100000000000000000000000000000000000000000000000000000000600052602160045260246000fd5b7f4e487b7100000000000000000000000000000000000000000000000000000000600052602260045260246000fd5b7f4e487b7100000000000000000000000000000000000000000000000000000000600052604160045260246000fd5b6000601f19601f8301169050919050565b60008160601b9050919050565b6006811061392d5761392c613871565b5b50565b6139398161368a565b811461394457600080fd5b50565b613950816136db565b811461395b57600080fd5b5056fea2646970667358221220eb6d0f8d5ed652d44fd266e584a756abcc48187973b0a319ec4675dacaff171d64736f6c63430008000033",
  "immutableReferences": {},
  "source": "// contracts/GameItem.sol\r\n// SPDX-License-Identifier: MIT\r\npragma solidity 0.8.0;\r\nimport \"@openzeppelin/contracts/access/Ownable.sol\";\r\npragma experimental ABIEncoderV2;\r\n\r\ncontract Voting is Ownable {\r\n    enum WorkflowStatus {\r\n        RegisteringVoters,\r\n        ProposalsRegistrationStarted,\r\n        ProposalsRegistrationEnded,\r\n        VotingSessionStarted,\r\n        VotingSessionEnded,\r\n        VotesTallied\r\n    }\r\n    struct Voter {\r\n        bool isRegistered;\r\n        bool hasVoted;\r\n        uint votedProposalId;\r\n    }\r\n    struct Proposal {\r\n        string description;\r\n        uint voteCount;\r\n    }\r\n    mapping (uint => Proposal) public _proposals;\r\n    mapping (address => Voter) public _voters;\r\n    address[] public addresses;\r\n    uint[] _proposalIds;\r\n    uint public winningProposalId;\r\n    uint private nonce = 0;\r\n    WorkflowStatus public status = WorkflowStatus.RegisteringVoters;\r\n\r\n    event RegisteringVotersStarted();\r\n    event VoterRegistered(address voterAddress);\r\n    event ProposalsRegistrationStarted();\r\n    event ProposalsRegistrationEnded();\r\n    event ProposalRegistered(uint proposalId);\r\n    event VotingSessionStarted();\r\n    event VotingSessionEnded();\r\n    event Voted (address voter, uint proposalId);\r\n    event VotesTallied();\r\n    event WorkflowStatusChange(WorkflowStatus previousStatus, WorkflowStatus newStatus);\r\n\r\n    function random() internal returns (uint) {\r\n        nonce++;\r\n        return uint(keccak256(abi.encodePacked(block.timestamp, msg.sender, nonce))) % 100;\r\n    }\r\n    \r\n    function getProposalIdFromDescription(string memory _description) external view returns (uint) {\r\n        uint id = 0;\r\n        for(uint i=0; i<_proposalIds.length; i++) {\r\n            if (keccak256(abi.encodePacked(_proposals[_proposalIds[i]].description)) == keccak256(abi.encodePacked(_description))) {\r\n                id = _proposalIds[i];\r\n                break;\r\n            }\r\n        }\r\n        return id;\r\n    }\r\n    \r\n    function getAddresses() external view returns(address[] memory){\r\n        return addresses;\r\n    }\r\n\r\n    function getProposals() external view returns(string[] memory){\r\n        string[] memory arrayProposals = new string[](_proposalIds.length);\r\n        for(uint i=0; i<_proposalIds.length; i++) {\r\n            arrayProposals[i] = _proposals[_proposalIds[i]].description;\r\n        }        \r\n        return arrayProposals;\r\n    }\r\n\r\n    function getWinner() external view returns(string memory, uint) {\r\n        return (_proposals[winningProposalId].description, _proposals[winningProposalId].voteCount);\r\n    }\r\n\r\n    function tally() external onlyOwner {\r\n        require(status == WorkflowStatus.VotingSessionEnded, \"Wait, this is not the time to tally !\");\r\n        require(status != WorkflowStatus.VotesTallied, \"Vote already tallied.\");\r\n        \r\n        uint max = 0;\r\n        for(uint i=0; i<_proposalIds.length; i++) {\r\n            if (_proposals[_proposalIds[i]].voteCount > max) {\r\n                max = _proposals[i].voteCount;\r\n                winningProposalId = _proposalIds[i];\r\n            }\r\n        }\r\n\r\n        WorkflowStatus previousStatus = status;\r\n        status = WorkflowStatus.VotesTallied;\r\n        emit WorkflowStatusChange(previousStatus, status);\r\n        emit VotesTallied();   \r\n    }\r\n    \r\n    function vote(string memory _description) external {\r\n        require(status == WorkflowStatus.VotingSessionStarted, \"This is not yet the time to vote !\");\r\n        require(_voters[msg.sender].isRegistered, \"You must be registered to vote !\");\r\n        require(!_voters[msg.sender].hasVoted, \"You thought you could vote twice ? Nice try ...\");\r\n\r\n        uint propId = this.getProposalIdFromDescription(_description);\r\n        require(propId > 0, \"Proposal Not Found !\");\r\n\r\n        _proposals[propId].voteCount++;  \r\n        _voters[msg.sender].hasVoted = true;\r\n        _voters[msg.sender].votedProposalId = propId;\r\n        \r\n        emit Voted(msg.sender, propId);\r\n    }\r\n    \r\n    function registerVoter(address _address) external onlyOwner {\r\n        require(status == WorkflowStatus.RegisteringVoters, \"This is not the time for voter registration !\");\r\n        require(!_voters[_address].isRegistered, \"This voter is already registered !\");\r\n        Voter memory voter;\r\n        voter.isRegistered = true;\r\n        voter.hasVoted = false;\r\n        _voters[_address] = voter;\r\n        addresses.push(_address);\r\n        emit VoterRegistered(_address);\r\n    }\r\n    \r\n    function registerProposal(string memory _description) external {\r\n        require(status == WorkflowStatus.ProposalsRegistrationStarted, \"This is not the time for proposal registration !\");\r\n        require(_voters[msg.sender].isRegistered, \"You must be registered to send a proposal.\");\r\n\r\n        uint alreadyExistId = this.getProposalIdFromDescription(_description);\r\n        require(alreadyExistId == 0, \"Proposal already exist !\");\r\n\r\n        Proposal memory proposal;\r\n        proposal.description = _description;\r\n        proposal.voteCount = 0;\r\n        \r\n        uint proposalId = random();\r\n        _proposals[proposalId] = proposal;\r\n        _proposalIds.push(proposalId);\r\n        \r\n        emit ProposalRegistered(proposalId);\r\n    }\r\n    \r\n    function startVotersregistration() external onlyOwner {\r\n        require(status != WorkflowStatus.RegisteringVoters, \"Registration already started\");\r\n        WorkflowStatus previousStatus = status;\r\n        status = WorkflowStatus.RegisteringVoters;\r\n        emit WorkflowStatusChange(previousStatus, status);\r\n        emit RegisteringVotersStarted();\r\n    }\r\n\r\n    function startProposalregistration() external onlyOwner {\r\n        require(status != WorkflowStatus.ProposalsRegistrationStarted, \"Registration already started\");\r\n        require(status == WorkflowStatus.RegisteringVoters, \"You can only register proposals after voter registration\");\r\n        WorkflowStatus previousStatus = status;\r\n        status = WorkflowStatus.ProposalsRegistrationStarted;\r\n        emit WorkflowStatusChange(previousStatus, status);\r\n        emit ProposalsRegistrationStarted();\r\n    }\r\n        \r\n    function endProposalregistration() external onlyOwner {\r\n        require(status == WorkflowStatus.ProposalsRegistrationStarted, \"Registration is not started !\");\r\n        WorkflowStatus previousStatus = status;\r\n        status = WorkflowStatus.ProposalsRegistrationEnded;\r\n        emit WorkflowStatusChange(previousStatus, status);\r\n        emit ProposalsRegistrationEnded();\r\n    }\r\n    \r\n    function startVotingSession() external onlyOwner {\r\n        require(status != WorkflowStatus.VotingSessionStarted, \"Voting session already started\");\r\n        require(status == WorkflowStatus.ProposalsRegistrationEnded, \"You can only vote after proposal registration ended\");\r\n        WorkflowStatus previousStatus = status;\r\n        status = WorkflowStatus.VotingSessionStarted;\r\n        emit WorkflowStatusChange(previousStatus, status);\r\n        emit VotingSessionStarted();\r\n    }\r\n        \r\n    function endVotingSession() external onlyOwner {\r\n        require(status == WorkflowStatus.VotingSessionStarted, \"Voting session is not started !\");\r\n        WorkflowStatus previousStatus = status;\r\n        status = WorkflowStatus.VotingSessionEnded;\r\n        emit WorkflowStatusChange(previousStatus, status);\r\n        emit VotingSessionEnded();\r\n    }\r\n\r\n}",
  "sourcePath": "C:/Users/leopo/OneDrive/Documents/Formation ALYRA/defi-voting-2/contracts/Voting.sol",
  "compiler": {
    "name": "solc",
    "version": "0.8.0+commit.c7dfd78e.Emscripten.clang"
  },
  "schemaVersion": "3.3.4",
  "updatedAt": "2021-06-28T16:01:59.251Z",
  "networkType": "ethereum",
  "devdoc": {
    "kind": "dev",
    "methods": {
      "owner()": {
        "details": "Returns the address of the current owner."
      },
      "renounceOwnership()": {
        "details": "Leaves the contract without owner. It will not be possible to call `onlyOwner` functions anymore. Can only be called by the current owner. NOTE: Renouncing ownership will leave the contract without an owner, thereby removing any functionality that is only available to the owner."
      },
      "transferOwnership(address)": {
        "details": "Transfers ownership of the contract to a new account (`newOwner`). Can only be called by the current owner."
      }
    },
    "version": 1
  },
  "userdoc": {
    "kind": "user",
    "methods": {},
    "version": 1
  }
}