{
  "contractName": "Voting",
  "abi": [
    {
      "anonymous": false,
      "inputs": [
        {
          "indexed": true,
          "internalType": "address",
          "name": "previousOwner",
          "type": "address"
        },
        {
          "indexed": true,
          "internalType": "address",
          "name": "newOwner",
          "type": "address"
        }
      ],
      "name": "OwnershipTransferred",
      "type": "event"
    },
    {
      "anonymous": false,
      "inputs": [
        {
          "indexed": false,
          "internalType": "uint256",
          "name": "proposalId",
          "type": "uint256"
        }
      ],
      "name": "ProposalRegistered",
      "type": "event"
    },
    {
      "anonymous": false,
      "inputs": [],
      "name": "ProposalsRegistrationEnded",
      "type": "event"
    },
    {
      "anonymous": false,
      "inputs": [],
      "name": "ProposalsRegistrationStarted",
      "type": "event"
    },
    {
      "anonymous": false,
      "inputs": [],
      "name": "RegisteringVotersStarted",
      "type": "event"
    },
    {
      "anonymous": false,
      "inputs": [
        {
          "indexed": false,
          "internalType": "address",
          "name": "voter",
          "type": "address"
        },
        {
          "indexed": false,
          "internalType": "uint256",
          "name": "proposalId",
          "type": "uint256"
        }
      ],
      "name": "Voted",
      "type": "event"
    },
    {
      "anonymous": false,
      "inputs": [
        {
          "indexed": false,
          "internalType": "address",
          "name": "voterAddress",
          "type": "address"
        }
      ],
      "name": "VoterRegistered",
      "type": "event"
    },
    {
      "anonymous": false,
      "inputs": [],
      "name": "VotesTallied",
      "type": "event"
    },
    {
      "anonymous": false,
      "inputs": [],
      "name": "VotingSessionEnded",
      "type": "event"
    },
    {
      "anonymous": false,
      "inputs": [],
      "name": "VotingSessionStarted",
      "type": "event"
    },
    {
      "anonymous": false,
      "inputs": [
        {
          "indexed": false,
          "internalType": "enum Voting.WorkflowStatus",
          "name": "previousStatus",
          "type": "uint8"
        },
        {
          "indexed": false,
          "internalType": "enum Voting.WorkflowStatus",
          "name": "newStatus",
          "type": "uint8"
        }
      ],
      "name": "WorkflowStatusChange",
      "type": "event"
    },
    {
      "inputs": [
        {
          "internalType": "uint256",
          "name": "",
          "type": "uint256"
        }
      ],
      "name": "_proposals",
      "outputs": [
        {
          "internalType": "string",
          "name": "description",
          "type": "string"
        },
        {
          "internalType": "uint256",
          "name": "voteCount",
          "type": "uint256"
        }
      ],
      "stateMutability": "view",
      "type": "function"
    },
    {
      "inputs": [
        {
          "internalType": "address",
          "name": "",
          "type": "address"
        }
      ],
      "name": "_voters",
      "outputs": [
        {
          "internalType": "bool",
          "name": "isRegistered",
          "type": "bool"
        },
        {
          "internalType": "bool",
          "name": "hasVoted",
          "type": "bool"
        },
        {
          "internalType": "uint256",
          "name": "votedProposalId",
          "type": "uint256"
        }
      ],
      "stateMutability": "view",
      "type": "function"
    },
    {
      "inputs": [
        {
          "internalType": "uint256",
          "name": "",
          "type": "uint256"
        }
      ],
      "name": "addresses",
      "outputs": [
        {
          "internalType": "address",
          "name": "",
          "type": "address"
        }
      ],
      "stateMutability": "view",
      "type": "function"
    },
    {
      "inputs": [],
      "name": "owner",
      "outputs": [
        {
          "internalType": "address",
          "name": "",
          "type": "address"
        }
      ],
      "stateMutability": "view",
      "type": "function"
    },
    {
      "inputs": [],
      "name": "renounceOwnership",
      "outputs": [],
      "stateMutability": "nonpayable",
      "type": "function"
    },
    {
      "inputs": [],
      "name": "status",
      "outputs": [
        {
          "internalType": "enum Voting.WorkflowStatus",
          "name": "",
          "type": "uint8"
        }
      ],
      "stateMutability": "view",
      "type": "function"
    },
    {
      "inputs": [
        {
          "internalType": "address",
          "name": "newOwner",
          "type": "address"
        }
      ],
      "name": "transferOwnership",
      "outputs": [],
      "stateMutability": "nonpayable",
      "type": "function"
    },
    {
      "inputs": [],
      "name": "winningProposalId",
      "outputs": [
        {
          "internalType": "uint256",
          "name": "",
          "type": "uint256"
        }
      ],
      "stateMutability": "view",
      "type": "function"
    },
    {
      "inputs": [
        {
          "internalType": "string",
          "name": "_description",
          "type": "string"
        }
      ],
      "name": "getProposalIdFromDescription",
      "outputs": [
        {
          "internalType": "uint256",
          "name": "",
          "type": "uint256"
        }
      ],
      "stateMutability": "view",
      "type": "function"
    },
    {
      "inputs": [],
      "name": "getAddresses",
      "outputs": [
        {
          "internalType": "address[]",
          "name": "",
          "type": "address[]"
        }
      ],
      "stateMutability": "view",
      "type": "function"
    },
    {
      "inputs": [],
      "name": "getProposals",
      "outputs": [
        {
          "internalType": "address[]",
          "name": "",
          "type": "address[]"
        }
      ],
      "stateMutability": "view",
      "type": "function"
    },
    {
      "inputs": [],
      "name": "tally",
      "outputs": [],
      "stateMutability": "nonpayable",
      "type": "function"
    },
    {
      "inputs": [
        {
          "internalType": "string",
          "name": "_description",
          "type": "string"
        }
      ],
      "name": "vote",
      "outputs": [],
      "stateMutability": "nonpayable",
      "type": "function"
    },
    {
      "inputs": [
        {
          "internalType": "address",
          "name": "_address",
          "type": "address"
        }
      ],
      "name": "registerVoter",
      "outputs": [],
      "stateMutability": "nonpayable",
      "type": "function"
    },
    {
      "inputs": [
        {
          "internalType": "string",
          "name": "_description",
          "type": "string"
        }
      ],
      "name": "registerProposal",
      "outputs": [],
      "stateMutability": "nonpayable",
      "type": "function"
    },
    {
      "inputs": [],
      "name": "startVotersregistration",
      "outputs": [],
      "stateMutability": "nonpayable",
      "type": "function"
    },
    {
      "inputs": [],
      "name": "startProposalregistration",
      "outputs": [],
      "stateMutability": "nonpayable",
      "type": "function"
    },
    {
      "inputs": [],
      "name": "endProposalregistration",
      "outputs": [],
      "stateMutability": "nonpayable",
      "type": "function"
    },
    {
      "inputs": [],
      "name": "startVotingSession",
      "outputs": [],
      "stateMutability": "nonpayable",
      "type": "function"
    },
    {
      "inputs": [],
      "name": "endVotingSession",
      "outputs": [],
      "stateMutability": "nonpayable",
      "type": "function"
    }
  ],
  "bytecode": "0x608060405260006006556000600760006101000a81548160ff0219169083600581111561002857fe5b021790555034801561003957600080fd5b50600061004a6100ed60201b60201c565b9050806000806101000a81548173ffffffffffffffffffffffffffffffffffffffff021916908373ffffffffffffffffffffffffffffffffffffffff1602179055508073ffffffffffffffffffffffffffffffffffffffff16600073ffffffffffffffffffffffffffffffffffffffff167f8be0079c531659141344cd1fd0a4f28419497f9722a3daafe3b4186f6b6457e060405160405180910390a3506100f5565b600033905090565b612b2580620001056000396000f3fe608060405234801561001057600080fd5b506004361061012c5760003560e01c80639029e1cf116100ad578063c64963c511610071578063c64963c51461056e578063edf26d9b1461058c578063ee74c678146105e4578063f2fde38b146105ee578063fc36e15b146106325761012c565b80639029e1cf146103c25780639842ee9e1461042c578063a39fac12146104fb578063a7bfab161461055a578063b452eaa4146105645761012c565b806338db6dd3116100f457806338db6dd3146102d7578063410673e51461031b57806362564c4814610325578063715018a6146103845780638da5cb5b1461038e5761012c565b80630a494840146101315780631b4524ba146101df578063200d2ed2146101e95780632f95355b14610212578063328b8672146102cd575b600080fd5b61015d6004803603602081101561014757600080fd5b81019080803590602001909291905050506106ed565b6040518080602001838152602001828103825284818151815260200191508051906020019080838360005b838110156101a3578082015181840152602081019050610188565b50505050905090810190601f1680156101d05780820380516001836020036101000a031916815260200191505b50935050505060405180910390f35b6101e76107a9565b005b6101f16109bf565b6040518082600581111561020157fe5b815260200191505060405180910390f35b6102cb6004803603602081101561022857600080fd5b810190808035906020019064010000000081111561024557600080fd5b82018360208201111561025757600080fd5b8035906020019184600183028401116401000000008311171561027957600080fd5b91908080601f016020809104026020016040519081016040528093929190818152602001838380828437600081840152601f19601f8201169050808301925050505050505091929192905050506109d2565b005b6102d5610d2c565b005b610319600480360360208110156102ed57600080fd5b81019080803573ffffffffffffffffffffffffffffffffffffffff169060200190929190505050610f41565b005b61032361127f565b005b61032d61159f565b6040518080602001828103825283818151815260200191508051906020019060200280838360005b83811015610370578082015181840152602081019050610355565b505050509050019250505060405180910390f35b61038c61162d565b005b61039661179a565b604051808273ffffffffffffffffffffffffffffffffffffffff16815260200191505060405180910390f35b610404600480360360208110156103d857600080fd5b81019080803573ffffffffffffffffffffffffffffffffffffffff1690602001909291905050506117c3565b6040518084151581526020018315158152602001828152602001935050505060405180910390f35b6104e56004803603602081101561044257600080fd5b810190808035906020019064010000000081111561045f57600080fd5b82018360208201111561047157600080fd5b8035906020019184600183028401116401000000008311171561049357600080fd5b91908080601f016020809104026020016040519081016040528093929190818152602001838380828437600081840152601f19601f820116905080830192505050505050509192919290505050611807565b6040518082815260200191505060405180910390f35b610503611972565b6040518080602001828103825283818151815260200191508051906020019060200280838360005b8381101561054657808201518184015260208101905061052b565b505050509050019250505060405180910390f35b610562611a00565b005b61056c611c15565b005b610576611ea9565b6040518082815260200191505060405180910390f35b6105b8600480360360208110156105a257600080fd5b8101908080359060200190929190505050611eaf565b604051808273ffffffffffffffffffffffffffffffffffffffff16815260200191505060405180910390f35b6105ec611eeb565b005b6106306004803603602081101561060457600080fd5b81019080803573ffffffffffffffffffffffffffffffffffffffff16906020019092919050505061217f565b005b6106eb6004803603602081101561064857600080fd5b810190808035906020019064010000000081111561066557600080fd5b82018360208201111561067757600080fd5b8035906020019184600183028401116401000000008311171561069957600080fd5b91908080601f016020809104026020016040519081016040528093929190818152602001838380828437600081840152601f19601f820116905080830192505050505050509192919290505050612371565b005b6001602052806000526040600020600091509050806000018054600181600116156101000203166002900480601f0160208091040260200160405190810160405280929190818152602001828054600181600116156101000203166002900480156107995780601f1061076e57610100808354040283529160200191610799565b820191906000526020600020905b81548152906001019060200180831161077c57829003601f168201915b5050505050908060010154905082565b6107b16127e3565b73ffffffffffffffffffffffffffffffffffffffff166107cf61179a565b73ffffffffffffffffffffffffffffffffffffffff1614610858576040517f08c379a00000000000000000000000000000000000000000000000000000000081526004018080602001828103825260208152602001807f4f776e61626c653a2063616c6c6572206973206e6f7420746865206f776e657281525060200191505060405180910390fd5b6000600581111561086557fe5b600760009054906101000a900460ff16600581111561088057fe5b14156108f4576040517f08c379a000000000000000000000000000000000000000000000000000000000815260040180806020018281038252601c8152602001807f526567697374726174696f6e20616c726561647920737461727465640000000081525060200191505060405180910390fd5b6000600760009054906101000a900460ff1690506000600760006101000a81548160ff0219169083600581111561092757fe5b02179055507f0a97a4ee45751e2abf3e4fc8946939630b11b371ea8ae39ccdc3056e98f5cc3f81600760009054906101000a900460ff166040518083600581111561096e57fe5b815260200182600581111561097f57fe5b81526020019250505060405180910390a17f4af5fb7dc8f21e936cf19959d5a6b75fa54320031fd314788f215d893bcb95e760405160405180910390a150565b600760009054906101000a900460ff1681565b600160058111156109df57fe5b600760009054906101000a900460ff1660058111156109fa57fe5b14610a50576040517f08c379a00000000000000000000000000000000000000000000000000000000081526004018080602001828103825260308152602001806129cd6030913960400191505060405180910390fd5b600260003373ffffffffffffffffffffffffffffffffffffffff1673ffffffffffffffffffffffffffffffffffffffff16815260200190815260200160002060000160009054906101000a900460ff16610af5576040517f08c379a000000000000000000000000000000000000000000000000000000000815260040180806020018281038252602a815260200180612a30602a913960400191505060405180910390fd5b60003073ffffffffffffffffffffffffffffffffffffffff16639842ee9e836040518263ffffffff1660e01b81526004018080602001828103825283818151815260200191508051906020019080838360005b83811015610b63578082015181840152602081019050610b48565b50505050905090810190601f168015610b905780820380516001836020036101000a031916815260200191505b509250505060206040518083038186803b158015610bad57600080fd5b505afa158015610bc1573d6000803e3d6000fd5b505050506040513d6020811015610bd757600080fd5b8101908080519060200190929190505050905060008114610c60576040517f08c379a00000000000000000000000000000000000000000000000000000000081526004018080602001828103825260188152602001807f50726f706f73616c20616c72656164792065786973742021000000000000000081525060200191505060405180910390fd5b610c68612863565b82816000018190525060008160200181815250506000610c866127eb565b905081600160008381526020019081526020016000206000820151816000019080519060200190610cb892919061287d565b506020820151816001015590505060048190806001815401808255809150506001900390600052602060002001600090919091909150557f92e393e9b54e2f801d3ea4beb0c5e71a21cc34a5d34b77d0fb8a3aa1650dc18f816040518082815260200191505060405180910390a150505050565b610d346127e3565b73ffffffffffffffffffffffffffffffffffffffff16610d5261179a565b73ffffffffffffffffffffffffffffffffffffffff1614610ddb576040517f08c379a00000000000000000000000000000000000000000000000000000000081526004018080602001828103825260208152602001807f4f776e61626c653a2063616c6c6572206973206e6f7420746865206f776e657281525060200191505060405180910390fd5b60016005811115610de857fe5b600760009054906101000a900460ff166005811115610e0357fe5b14610e76576040517f08c379a000000000000000000000000000000000000000000000000000000000815260040180806020018281038252601d8152602001807f526567697374726174696f6e206973206e6f742073746172746564202100000081525060200191505060405180910390fd5b6000600760009054906101000a900460ff1690506002600760006101000a81548160ff02191690836005811115610ea957fe5b02179055507f0a97a4ee45751e2abf3e4fc8946939630b11b371ea8ae39ccdc3056e98f5cc3f81600760009054906101000a900460ff1660405180836005811115610ef057fe5b8152602001826005811115610f0157fe5b81526020019250505060405180910390a17f240cb87b2e4df4c318e72bd714d45a9cad60249e883ff56b1fffd83a4595a8fa60405160405180910390a150565b610f496127e3565b73ffffffffffffffffffffffffffffffffffffffff16610f6761179a565b73ffffffffffffffffffffffffffffffffffffffff1614610ff0576040517f08c379a00000000000000000000000000000000000000000000000000000000081526004018080602001828103825260208152602001807f4f776e61626c653a2063616c6c6572206973206e6f7420746865206f776e657281525060200191505060405180910390fd5b60006005811115610ffd57fe5b600760009054906101000a900460ff16600581111561101857fe5b1461106e576040517f08c379a000000000000000000000000000000000000000000000000000000000815260040180806020018281038252602d815260200180612a5a602d913960400191505060405180910390fd5b600260008273ffffffffffffffffffffffffffffffffffffffff1673ffffffffffffffffffffffffffffffffffffffff16815260200190815260200160002060000160009054906101000a900460ff1615611114576040517f08c379a0000000000000000000000000000000000000000000000000000000008152600401808060200182810382526022815260200180612aa96022913960400191505060405180910390fd5b61111c6128fd565b6001816000019015159081151581525050600081602001901515908115158152505080600260008473ffffffffffffffffffffffffffffffffffffffff1673ffffffffffffffffffffffffffffffffffffffff16815260200190815260200160002060008201518160000160006101000a81548160ff02191690831515021790555060208201518160000160016101000a81548160ff021916908315150217905550604082015181600101559050506003829080600181540180825580915050600190039060005260206000200160009091909190916101000a81548173ffffffffffffffffffffffffffffffffffffffff021916908373ffffffffffffffffffffffffffffffffffffffff1602179055507fb6be2187d059cc2a55fe29e0e503b566e1e0f8c8780096e185429350acffd3dd82604051808273ffffffffffffffffffffffffffffffffffffffff16815260200191505060405180910390a15050565b6112876127e3565b73ffffffffffffffffffffffffffffffffffffffff166112a561179a565b73ffffffffffffffffffffffffffffffffffffffff161461132e576040517f08c379a00000000000000000000000000000000000000000000000000000000081526004018080602001828103825260208152602001807f4f776e61626c653a2063616c6c6572206973206e6f7420746865206f776e657281525060200191505060405180910390fd5b6004600581111561133b57fe5b600760009054906101000a900460ff16600581111561135657fe5b146113ac576040517f08c379a0000000000000000000000000000000000000000000000000000000008152600401808060200182810382526025815260200180612acb6025913960400191505060405180910390fd5b6005808111156113b857fe5b600760009054906101000a900460ff1660058111156113d357fe5b1415611447576040517f08c379a00000000000000000000000000000000000000000000000000000000081526004018080602001828103825260158152602001807f566f746520616c72656164792074616c6c6965642e000000000000000000000081525060200191505060405180910390fd5b6000805b6004805490508110156114d25781600160006004848154811061146a57fe5b906000526020600020015481526020019081526020016000206001015411156114c55760016000828152602001908152602001600020600101549150600481815481106114b357fe5b90600052602060002001546005819055505b808060010191505061144b565b506000600760009054906101000a900460ff1690506005600760006101000a81548160ff0219169083600581111561150657fe5b02179055507f0a97a4ee45751e2abf3e4fc8946939630b11b371ea8ae39ccdc3056e98f5cc3f81600760009054906101000a900460ff166040518083600581111561154d57fe5b815260200182600581111561155e57fe5b81526020019250505060405180910390a17f0e5e95ff8725ab3e7a4b6b59998a4c344c2aa8d1485f5e60cb7f337768e6134760405160405180910390a15050565b6060600380548060200260200160405190810160405280929190818152602001828054801561162357602002820191906000526020600020905b8160009054906101000a900473ffffffffffffffffffffffffffffffffffffffff1673ffffffffffffffffffffffffffffffffffffffff16815260200190600101908083116115d9575b5050505050905090565b6116356127e3565b73ffffffffffffffffffffffffffffffffffffffff1661165361179a565b73ffffffffffffffffffffffffffffffffffffffff16146116dc576040517f08c379a00000000000000000000000000000000000000000000000000000000081526004018080602001828103825260208152602001807f4f776e61626c653a2063616c6c6572206973206e6f7420746865206f776e657281525060200191505060405180910390fd5b600073ffffffffffffffffffffffffffffffffffffffff1660008054906101000a900473ffffffffffffffffffffffffffffffffffffffff1673ffffffffffffffffffffffffffffffffffffffff167f8be0079c531659141344cd1fd0a4f28419497f9722a3daafe3b4186f6b6457e060405160405180910390a360008060006101000a81548173ffffffffffffffffffffffffffffffffffffffff021916908373ffffffffffffffffffffffffffffffffffffffff160217905550565b60008060009054906101000a900473ffffffffffffffffffffffffffffffffffffffff16905090565b60026020528060005260406000206000915090508060000160009054906101000a900460ff16908060000160019054906101000a900460ff16908060010154905083565b6000806000905060005b60048054905081101561196857836040516020018082805190602001908083835b602083106118555780518252602082019150602081019050602083039250611832565b6001836020036101000a0380198251168184511680821785525050505050509050019150506040516020818303038152906040528051906020012060016000600484815481106118a157fe5b90600052602060002001548152602001908152602001600020600001604051602001808280546001816001161561010002031660029004801561191b5780601f106118f957610100808354040283529182019161191b565b820191906000526020600020905b815481529060010190602001808311611907575b505091505060405160208183030381529060405280519060200120141561195b576004818154811061194957fe5b90600052602060002001549150611968565b8080600101915050611811565b5080915050919050565b606060038054806020026020016040519081016040528092919081815260200182805480156119f657602002820191906000526020600020905b8160009054906101000a900473ffffffffffffffffffffffffffffffffffffffff1673ffffffffffffffffffffffffffffffffffffffff16815260200190600101908083116119ac575b5050505050905090565b611a086127e3565b73ffffffffffffffffffffffffffffffffffffffff16611a2661179a565b73ffffffffffffffffffffffffffffffffffffffff1614611aaf576040517f08c379a00000000000000000000000000000000000000000000000000000000081526004018080602001828103825260208152602001807f4f776e61626c653a2063616c6c6572206973206e6f7420746865206f776e657281525060200191505060405180910390fd5b60036005811115611abc57fe5b600760009054906101000a900460ff166005811115611ad757fe5b14611b4a576040517f08c379a000000000000000000000000000000000000000000000000000000000815260040180806020018281038252601f8152602001807f566f74696e672073657373696f6e206973206e6f74207374617274656420210081525060200191505060405180910390fd5b6000600760009054906101000a900460ff1690506004600760006101000a81548160ff02191690836005811115611b7d57fe5b02179055507f0a97a4ee45751e2abf3e4fc8946939630b11b371ea8ae39ccdc3056e98f5cc3f81600760009054906101000a900460ff1660405180836005811115611bc457fe5b8152602001826005811115611bd557fe5b81526020019250505060405180910390a17fc379d349a6301baf50fb2f98d829f4ae10b1cdb7c66f4e4d8117302df7b8cd4c60405160405180910390a150565b611c1d6127e3565b73ffffffffffffffffffffffffffffffffffffffff16611c3b61179a565b73ffffffffffffffffffffffffffffffffffffffff1614611cc4576040517f08c379a00000000000000000000000000000000000000000000000000000000081526004018080602001828103825260208152602001807f4f776e61626c653a2063616c6c6572206973206e6f7420746865206f776e657281525060200191505060405180910390fd5b60016005811115611cd157fe5b600760009054906101000a900460ff166005811115611cec57fe5b1415611d60576040517f08c379a000000000000000000000000000000000000000000000000000000000815260040180806020018281038252601c8152602001807f526567697374726174696f6e20616c726561647920737461727465640000000081525060200191505060405180910390fd5b60006005811115611d6d57fe5b600760009054906101000a900460ff166005811115611d8857fe5b14611dde576040517f08c379a00000000000000000000000000000000000000000000000000000000081526004018080602001828103825260388152602001806129406038913960400191505060405180910390fd5b6000600760009054906101000a900460ff1690506001600760006101000a81548160ff02191690836005811115611e1157fe5b02179055507f0a97a4ee45751e2abf3e4fc8946939630b11b371ea8ae39ccdc3056e98f5cc3f81600760009054906101000a900460ff1660405180836005811115611e5857fe5b8152602001826005811115611e6957fe5b81526020019250505060405180910390a17f344c25562921d075a298d34b6dd1fd00d36ff293974539dfd4a8c625d9f0064c60405160405180910390a150565b60055481565b60038181548110611ebc57fe5b906000526020600020016000915054906101000a900473ffffffffffffffffffffffffffffffffffffffff1681565b611ef36127e3565b73ffffffffffffffffffffffffffffffffffffffff16611f1161179a565b73ffffffffffffffffffffffffffffffffffffffff1614611f9a576040517f08c379a00000000000000000000000000000000000000000000000000000000081526004018080602001828103825260208152602001807f4f776e61626c653a2063616c6c6572206973206e6f7420746865206f776e657281525060200191505060405180910390fd5b60036005811115611fa757fe5b600760009054906101000a900460ff166005811115611fc257fe5b1415612036576040517f08c379a000000000000000000000000000000000000000000000000000000000815260040180806020018281038252601e8152602001807f566f74696e672073657373696f6e20616c72656164792073746172746564000081525060200191505060405180910390fd5b6002600581111561204357fe5b600760009054906101000a900460ff16600581111561205e57fe5b146120b4576040517f08c379a00000000000000000000000000000000000000000000000000000000081526004018080602001828103825260338152602001806129fd6033913960400191505060405180910390fd5b6000600760009054906101000a900460ff1690506003600760006101000a81548160ff021916908360058111156120e757fe5b02179055507f0a97a4ee45751e2abf3e4fc8946939630b11b371ea8ae39ccdc3056e98f5cc3f81600760009054906101000a900460ff166040518083600581111561212e57fe5b815260200182600581111561213f57fe5b81526020019250505060405180910390a17f1b8e19a458c1bcd88553332c518cc5c4e2d5793e712ee766d4f1c14f672ef1f560405160405180910390a150565b6121876127e3565b73ffffffffffffffffffffffffffffffffffffffff166121a561179a565b73ffffffffffffffffffffffffffffffffffffffff161461222e576040517f08c379a00000000000000000000000000000000000000000000000000000000081526004018080602001828103825260208152602001807f4f776e61626c653a2063616c6c6572206973206e6f7420746865206f776e657281525060200191505060405180910390fd5b600073ffffffffffffffffffffffffffffffffffffffff168173ffffffffffffffffffffffffffffffffffffffff1614156122b4576040517f08c379a00000000000000000000000000000000000000000000000000000000081526004018080602001828103825260268152602001806129786026913960400191505060405180910390fd5b8073ffffffffffffffffffffffffffffffffffffffff1660008054906101000a900473ffffffffffffffffffffffffffffffffffffffff1673ffffffffffffffffffffffffffffffffffffffff167f8be0079c531659141344cd1fd0a4f28419497f9722a3daafe3b4186f6b6457e060405160405180910390a3806000806101000a81548173ffffffffffffffffffffffffffffffffffffffff021916908373ffffffffffffffffffffffffffffffffffffffff16021790555050565b6003600581111561237e57fe5b600760009054906101000a900460ff16600581111561239957fe5b146123ef576040517f08c379a0000000000000000000000000000000000000000000000000000000008152600401808060200182810382526022815260200180612a876022913960400191505060405180910390fd5b600260003373ffffffffffffffffffffffffffffffffffffffff1673ffffffffffffffffffffffffffffffffffffffff16815260200190815260200160002060000160009054906101000a900460ff166124b1576040517f08c379a00000000000000000000000000000000000000000000000000000000081526004018080602001828103825260208152602001807f596f75206d757374206265207265676973746572656420746f20766f7465202181525060200191505060405180910390fd5b600260003373ffffffffffffffffffffffffffffffffffffffff1673ffffffffffffffffffffffffffffffffffffffff16815260200190815260200160002060000160019054906101000a900460ff1615612557576040517f08c379a000000000000000000000000000000000000000000000000000000000815260040180806020018281038252602f81526020018061299e602f913960400191505060405180910390fd5b60003073ffffffffffffffffffffffffffffffffffffffff16639842ee9e836040518263ffffffff1660e01b81526004018080602001828103825283818151815260200191508051906020019080838360005b838110156125c55780820151818401526020810190506125aa565b50505050905090810190601f1680156125f25780820380516001836020036101000a031916815260200191505b509250505060206040518083038186803b15801561260f57600080fd5b505afa158015612623573d6000803e3d6000fd5b505050506040513d602081101561263957600080fd5b81019080805190602001909291905050509050600081116126c2576040517f08c379a00000000000000000000000000000000000000000000000000000000081526004018080602001828103825260148152602001807f50726f706f73616c204e6f7420466f756e64202100000000000000000000000081525060200191505060405180910390fd5b60016000828152602001908152602001600020600101600081548092919060010191905055506001600260003373ffffffffffffffffffffffffffffffffffffffff1673ffffffffffffffffffffffffffffffffffffffff16815260200190815260200160002060000160016101000a81548160ff02191690831515021790555080600260003373ffffffffffffffffffffffffffffffffffffffff1673ffffffffffffffffffffffffffffffffffffffff168152602001908152602001600020600101819055507f4d99b957a2bc29a30ebd96a7be8e68fe50a3c701db28a91436490b7d53870ca43382604051808373ffffffffffffffffffffffffffffffffffffffff1681526020018281526020019250505060405180910390a15050565b600033905090565b600060066000815480929190600101919050555060644233600654604051602001808481526020018373ffffffffffffffffffffffffffffffffffffffff1660601b815260140182815260200193505050506040516020818303038152906040528051906020012060001c8161285d57fe5b06905090565b604051806040016040528060608152602001600081525090565b828054600181600116156101000203166002900490600052602060002090601f016020900481019282601f106128be57805160ff19168380011785556128ec565b828001600101855582156128ec579182015b828111156128eb5782518255916020019190600101906128d0565b5b5090506128f99190612922565b5090565b6040518060600160405280600015158152602001600015158152602001600081525090565b5b8082111561293b576000816000905550600101612923565b509056fe596f752063616e206f6e6c792072656769737465722070726f706f73616c7320616674657220766f74657220726567697374726174696f6e4f776e61626c653a206e6577206f776e657220697320746865207a65726f2061646472657373596f752074686f7567687420796f7520636f756c6420766f7465207477696365203f204e69636520747279202e2e2e54686973206973206e6f74207468652074696d6520666f722070726f706f73616c20726567697374726174696f6e2021596f752063616e206f6e6c7920766f74652061667465722070726f706f73616c20726567697374726174696f6e20656e646564596f75206d757374206265207265676973746572656420746f2073656e6420612070726f706f73616c2e54686973206973206e6f74207468652074696d6520666f7220766f74657220726567697374726174696f6e202154686973206973206e6f7420796574207468652074696d6520746f20766f746520215468697320766f74657220697320616c726561647920726567697374657265642021576169742c2074686973206973206e6f74207468652074696d6520746f2074616c6c792021a26469706673582212203763dcf4a192efa519c70fb53c1e39087aa0d2041d2baafdfc346d9ff60169ea64736f6c634300060c0033",
  "immutableReferences": {},
  "source": "// contracts/GameItem.sol\r\n// SPDX-License-Identifier: MIT\r\npragma solidity 0.6.12;\r\nimport \"@openzeppelin/contracts/access/Ownable.sol\";\r\n\r\ncontract Voting is Ownable {\r\n    enum WorkflowStatus {\r\n        RegisteringVoters,\r\n        ProposalsRegistrationStarted,\r\n        ProposalsRegistrationEnded,\r\n        VotingSessionStarted,\r\n        VotingSessionEnded,\r\n        VotesTallied\r\n    }\r\n    struct Voter {\r\n        bool isRegistered;\r\n        bool hasVoted;\r\n        uint votedProposalId;\r\n    }\r\n    struct Proposal {\r\n        string description;\r\n        uint voteCount;\r\n    }\r\n    mapping (uint => Proposal) public _proposals;\r\n    mapping (address => Voter) public _voters;\r\n    address[] public addresses; // TODO remove this (only DEBUG)\r\n    uint[] _proposalIds;\r\n    uint public winningProposalId;\r\n    uint private nonce = 0;\r\n    WorkflowStatus public status = WorkflowStatus.RegisteringVoters;\r\n\r\n    event RegisteringVotersStarted();\r\n    event VoterRegistered(address voterAddress);\r\n    event ProposalsRegistrationStarted();\r\n    event ProposalsRegistrationEnded();\r\n    event ProposalRegistered(uint proposalId);\r\n    event VotingSessionStarted();\r\n    event VotingSessionEnded();\r\n    event Voted (address voter, uint proposalId);\r\n    event VotesTallied();\r\n    event WorkflowStatusChange(WorkflowStatus previousStatus, WorkflowStatus newStatus);\r\n\r\n    function random() internal returns (uint) {\r\n        nonce++;\r\n        return uint(keccak256(abi.encodePacked(block.timestamp, msg.sender, nonce))) % 100;\r\n    }\r\n    \r\n    function getProposalIdFromDescription(string memory _description) external view returns (uint) {\r\n        uint id = 0;\r\n        for(uint i=0; i<_proposalIds.length; i++) {\r\n            if (keccak256(abi.encodePacked((_proposals[_proposalIds[i]].description))) == keccak256(abi.encodePacked((_description)))) {\r\n                id = _proposalIds[i];\r\n                break;\r\n            }\r\n        }\r\n        return id;\r\n    }\r\n    \r\n    // TODO remove this (only DEBUG)\r\n    function getAddresses() external view returns(address[] memory){\r\n        return addresses;\r\n    }\r\n\r\n    function getProposals() external view returns(address[] memory){\r\n        //bytes32[] memory arrayProposals = new bytes32[](_proposalIds.length);\r\n        //for(uint i=0; i<_proposalIds.length; i++) {\r\n        //    arrayProposals[i] = keccak256(abi.encodePacked((_proposals[_proposalIds[i]].description)));\r\n        //}        \r\n        return addresses;\r\n    }\r\n\r\n    function tally() external onlyOwner {\r\n        require(status == WorkflowStatus.VotingSessionEnded, \"Wait, this is not the time to tally !\");\r\n        require(status != WorkflowStatus.VotesTallied, \"Vote already tallied.\");\r\n        \r\n        uint max = 0;\r\n        for(uint i=0; i<_proposalIds.length; i++) {\r\n            if (_proposals[_proposalIds[i]].voteCount > max) {\r\n                max = _proposals[i].voteCount;\r\n                winningProposalId = _proposalIds[i];\r\n            }\r\n        }\r\n\r\n        WorkflowStatus previousStatus = status;\r\n        status = WorkflowStatus.VotesTallied;\r\n        emit WorkflowStatusChange(previousStatus, status);\r\n        emit VotesTallied();   \r\n    }\r\n    \r\n    function vote(string memory _description) external {\r\n        require(status == WorkflowStatus.VotingSessionStarted, \"This is not yet the time to vote !\");\r\n        require(_voters[msg.sender].isRegistered, \"You must be registered to vote !\");\r\n        require(!_voters[msg.sender].hasVoted, \"You thought you could vote twice ? Nice try ...\");\r\n\r\n        uint propId = this.getProposalIdFromDescription(_description);\r\n        require(propId > 0, \"Proposal Not Found !\");\r\n\r\n        _proposals[propId].voteCount++;  \r\n        _voters[msg.sender].hasVoted = true;\r\n        _voters[msg.sender].votedProposalId = propId;\r\n        \r\n        emit Voted(msg.sender, propId);\r\n    }\r\n    \r\n    function registerVoter(address _address) external onlyOwner {\r\n        require(status == WorkflowStatus.RegisteringVoters, \"This is not the time for voter registration !\");\r\n        require(!_voters[_address].isRegistered, \"This voter is already registered !\");\r\n        Voter memory voter;\r\n        voter.isRegistered = true;\r\n        voter.hasVoted = false;\r\n        _voters[_address] = voter;\r\n        addresses.push(_address); // TODO remove this (only DEBUG)\r\n        emit VoterRegistered(_address);\r\n    }\r\n    \r\n    function registerProposal(string memory _description) external {\r\n        require(status == WorkflowStatus.ProposalsRegistrationStarted, \"This is not the time for proposal registration !\");\r\n        require(_voters[msg.sender].isRegistered, \"You must be registered to send a proposal.\");\r\n\r\n        uint alreadyExistId = this.getProposalIdFromDescription(_description);\r\n        require(alreadyExistId == 0, \"Proposal already exist !\");\r\n\r\n        Proposal memory proposal;\r\n        proposal.description = _description;\r\n        proposal.voteCount = 0;\r\n        \r\n        uint proposalId = random();\r\n        _proposals[proposalId] = proposal;\r\n        _proposalIds.push(proposalId);\r\n        \r\n        emit ProposalRegistered(proposalId);\r\n    }\r\n    \r\n    function startVotersregistration() external onlyOwner {\r\n        require(status != WorkflowStatus.RegisteringVoters, \"Registration already started\");\r\n        WorkflowStatus previousStatus = status;\r\n        status = WorkflowStatus.RegisteringVoters;\r\n        emit WorkflowStatusChange(previousStatus, status);\r\n        emit RegisteringVotersStarted();\r\n    }\r\n\r\n    function startProposalregistration() external onlyOwner {\r\n        require(status != WorkflowStatus.ProposalsRegistrationStarted, \"Registration already started\");\r\n        require(status == WorkflowStatus.RegisteringVoters, \"You can only register proposals after voter registration\");\r\n        WorkflowStatus previousStatus = status;\r\n        status = WorkflowStatus.ProposalsRegistrationStarted;\r\n        emit WorkflowStatusChange(previousStatus, status);\r\n        emit ProposalsRegistrationStarted();\r\n    }\r\n        \r\n    function endProposalregistration() external onlyOwner {\r\n        require(status == WorkflowStatus.ProposalsRegistrationStarted, \"Registration is not started !\");\r\n        WorkflowStatus previousStatus = status;\r\n        status = WorkflowStatus.ProposalsRegistrationEnded;\r\n        emit WorkflowStatusChange(previousStatus, status);\r\n        emit ProposalsRegistrationEnded();\r\n    }\r\n    \r\n    function startVotingSession() external onlyOwner {\r\n        require(status != WorkflowStatus.VotingSessionStarted, \"Voting session already started\");\r\n        require(status == WorkflowStatus.ProposalsRegistrationEnded, \"You can only vote after proposal registration ended\");\r\n        WorkflowStatus previousStatus = status;\r\n        status = WorkflowStatus.VotingSessionStarted;\r\n        emit WorkflowStatusChange(previousStatus, status);\r\n        emit VotingSessionStarted();\r\n    }\r\n        \r\n    function endVotingSession() external onlyOwner {\r\n        require(status == WorkflowStatus.VotingSessionStarted, \"Voting session is not started !\");\r\n        WorkflowStatus previousStatus = status;\r\n        status = WorkflowStatus.VotingSessionEnded;\r\n        emit WorkflowStatusChange(previousStatus, status);\r\n        emit VotingSessionEnded();\r\n    }\r\n\r\n}",
  "sourcePath": "D:/Formation ALYRA/defi-voting/contracts/Voting.sol",
  "compiler": {
    "name": "solc",
    "version": "0.6.12+commit.27d51765.Emscripten.clang"
  },
  "schemaVersion": "3.3.4",
  "updatedAt": "2021-04-25T18:15:28.277Z",
  "devdoc": {
    "kind": "dev",
    "methods": {
      "owner()": {
        "details": "Returns the address of the current owner."
      },
      "renounceOwnership()": {
        "details": "Leaves the contract without owner. It will not be possible to call `onlyOwner` functions anymore. Can only be called by the current owner. NOTE: Renouncing ownership will leave the contract without an owner, thereby removing any functionality that is only available to the owner."
      },
      "transferOwnership(address)": {
        "details": "Transfers ownership of the contract to a new account (`newOwner`). Can only be called by the current owner."
      }
    },
    "version": 1
  },
  "userdoc": {
    "kind": "user",
    "methods": {},
    "version": 1
  }
}