{
  "contractName": "Voting",
  "abi": [
    {
      "anonymous": false,
      "inputs": [
        {
          "indexed": true,
          "internalType": "address",
          "name": "previousOwner",
          "type": "address"
        },
        {
          "indexed": true,
          "internalType": "address",
          "name": "newOwner",
          "type": "address"
        }
      ],
      "name": "OwnershipTransferred",
      "type": "event"
    },
    {
      "anonymous": false,
      "inputs": [
        {
          "indexed": false,
          "internalType": "uint256",
          "name": "proposalId",
          "type": "uint256"
        }
      ],
      "name": "ProposalRegistered",
      "type": "event"
    },
    {
      "anonymous": false,
      "inputs": [],
      "name": "ProposalsRegistrationEnded",
      "type": "event"
    },
    {
      "anonymous": false,
      "inputs": [],
      "name": "ProposalsRegistrationStarted",
      "type": "event"
    },
    {
      "anonymous": false,
      "inputs": [],
      "name": "RegisteringVotersStarted",
      "type": "event"
    },
    {
      "anonymous": false,
      "inputs": [
        {
          "indexed": false,
          "internalType": "address",
          "name": "voter",
          "type": "address"
        },
        {
          "indexed": false,
          "internalType": "uint256",
          "name": "proposalId",
          "type": "uint256"
        }
      ],
      "name": "Voted",
      "type": "event"
    },
    {
      "anonymous": false,
      "inputs": [
        {
          "indexed": false,
          "internalType": "address",
          "name": "voterAddress",
          "type": "address"
        }
      ],
      "name": "VoterRegistered",
      "type": "event"
    },
    {
      "anonymous": false,
      "inputs": [],
      "name": "VotesTallied",
      "type": "event"
    },
    {
      "anonymous": false,
      "inputs": [],
      "name": "VotingSessionEnded",
      "type": "event"
    },
    {
      "anonymous": false,
      "inputs": [],
      "name": "VotingSessionStarted",
      "type": "event"
    },
    {
      "anonymous": false,
      "inputs": [
        {
          "indexed": false,
          "internalType": "enum Voting.WorkflowStatus",
          "name": "previousStatus",
          "type": "uint8"
        },
        {
          "indexed": false,
          "internalType": "enum Voting.WorkflowStatus",
          "name": "newStatus",
          "type": "uint8"
        }
      ],
      "name": "WorkflowStatusChange",
      "type": "event"
    },
    {
      "inputs": [
        {
          "internalType": "uint256",
          "name": "",
          "type": "uint256"
        }
      ],
      "name": "_proposals",
      "outputs": [
        {
          "internalType": "string",
          "name": "description",
          "type": "string"
        },
        {
          "internalType": "uint256",
          "name": "voteCount",
          "type": "uint256"
        }
      ],
      "stateMutability": "view",
      "type": "function",
      "constant": true
    },
    {
      "inputs": [
        {
          "internalType": "address",
          "name": "",
          "type": "address"
        }
      ],
      "name": "_voters",
      "outputs": [
        {
          "internalType": "bool",
          "name": "isRegistered",
          "type": "bool"
        },
        {
          "internalType": "bool",
          "name": "hasVoted",
          "type": "bool"
        },
        {
          "internalType": "uint256",
          "name": "votedProposalId",
          "type": "uint256"
        }
      ],
      "stateMutability": "view",
      "type": "function",
      "constant": true
    },
    {
      "inputs": [
        {
          "internalType": "uint256",
          "name": "",
          "type": "uint256"
        }
      ],
      "name": "addresses",
      "outputs": [
        {
          "internalType": "address",
          "name": "",
          "type": "address"
        }
      ],
      "stateMutability": "view",
      "type": "function",
      "constant": true
    },
    {
      "inputs": [],
      "name": "owner",
      "outputs": [
        {
          "internalType": "address",
          "name": "",
          "type": "address"
        }
      ],
      "stateMutability": "view",
      "type": "function",
      "constant": true
    },
    {
      "inputs": [],
      "name": "renounceOwnership",
      "outputs": [],
      "stateMutability": "nonpayable",
      "type": "function"
    },
    {
      "inputs": [],
      "name": "status",
      "outputs": [
        {
          "internalType": "enum Voting.WorkflowStatus",
          "name": "",
          "type": "uint8"
        }
      ],
      "stateMutability": "view",
      "type": "function",
      "constant": true
    },
    {
      "inputs": [
        {
          "internalType": "address",
          "name": "newOwner",
          "type": "address"
        }
      ],
      "name": "transferOwnership",
      "outputs": [],
      "stateMutability": "nonpayable",
      "type": "function"
    },
    {
      "inputs": [],
      "name": "winningProposalId",
      "outputs": [
        {
          "internalType": "uint256",
          "name": "",
          "type": "uint256"
        }
      ],
      "stateMutability": "view",
      "type": "function",
      "constant": true
    },
    {
      "inputs": [
        {
          "internalType": "string",
          "name": "_description",
          "type": "string"
        }
      ],
      "name": "getProposalIdFromDescription",
      "outputs": [
        {
          "internalType": "uint256",
          "name": "",
          "type": "uint256"
        }
      ],
      "stateMutability": "view",
      "type": "function",
      "constant": true
    },
    {
      "inputs": [],
      "name": "getAddresses",
      "outputs": [
        {
          "internalType": "address[]",
          "name": "",
          "type": "address[]"
        }
      ],
      "stateMutability": "view",
      "type": "function",
      "constant": true
    },
    {
      "inputs": [],
      "name": "getProposals",
      "outputs": [
        {
          "internalType": "string[]",
          "name": "",
          "type": "string[]"
        }
      ],
      "stateMutability": "view",
      "type": "function",
      "constant": true
    },
    {
      "inputs": [],
      "name": "getWinner",
      "outputs": [
        {
          "internalType": "string",
          "name": "",
          "type": "string"
        }
      ],
      "stateMutability": "view",
      "type": "function",
      "constant": true
    },
    {
      "inputs": [],
      "name": "getWinnerVoteCount",
      "outputs": [
        {
          "internalType": "uint256",
          "name": "",
          "type": "uint256"
        }
      ],
      "stateMutability": "view",
      "type": "function",
      "constant": true
    },
    {
      "inputs": [],
      "name": "tally",
      "outputs": [],
      "stateMutability": "nonpayable",
      "type": "function"
    },
    {
      "inputs": [
        {
          "internalType": "string",
          "name": "_description",
          "type": "string"
        }
      ],
      "name": "vote",
      "outputs": [],
      "stateMutability": "nonpayable",
      "type": "function"
    },
    {
      "inputs": [
        {
          "internalType": "address",
          "name": "_address",
          "type": "address"
        }
      ],
      "name": "registerVoter",
      "outputs": [],
      "stateMutability": "nonpayable",
      "type": "function"
    },
    {
      "inputs": [
        {
          "internalType": "string",
          "name": "_description",
          "type": "string"
        }
      ],
      "name": "registerProposal",
      "outputs": [],
      "stateMutability": "nonpayable",
      "type": "function"
    },
    {
      "inputs": [],
      "name": "startVotersregistration",
      "outputs": [],
      "stateMutability": "nonpayable",
      "type": "function"
    },
    {
      "inputs": [],
      "name": "startProposalregistration",
      "outputs": [],
      "stateMutability": "nonpayable",
      "type": "function"
    },
    {
      "inputs": [],
      "name": "endProposalregistration",
      "outputs": [],
      "stateMutability": "nonpayable",
      "type": "function"
    },
    {
      "inputs": [],
      "name": "startVotingSession",
      "outputs": [],
      "stateMutability": "nonpayable",
      "type": "function"
    },
    {
      "inputs": [],
      "name": "endVotingSession",
      "outputs": [],
      "stateMutability": "nonpayable",
      "type": "function"
    }
  ],
  "bytecode": "0x608060405260006006556000600760006101000a81548160ff021916908360058111156200002957fe5b02179055503480156200003b57600080fd5b5060006200004e620000f260201b60201c565b9050806000806101000a81548173ffffffffffffffffffffffffffffffffffffffff021916908373ffffffffffffffffffffffffffffffffffffffff1602179055508073ffffffffffffffffffffffffffffffffffffffff16600073ffffffffffffffffffffffffffffffffffffffff167f8be0079c531659141344cd1fd0a4f28419497f9722a3daafe3b4186f6b6457e060405160405180910390a350620000fa565b600033905090565b6131f1806200010a6000396000f3fe608060405234801561001057600080fd5b50600436106101425760003560e01c80639029e1cf116100b8578063c64963c51161007c578063c64963c5146102e4578063edf26d9b14610302578063ee74c67814610332578063f2fde38b1461033c578063f31adac314610358578063fc36e15b1461037657610142565b80639029e1cf146102505780639842ee9e14610282578063a39fac12146102b2578063a7bfab16146102d0578063b452eaa4146102da57610142565b806338db6dd31161010a57806338db6dd3146101c6578063410673e5146101e257806362564c48146101ec578063715018a61461020a5780638da5cb5b146102145780638e7ea5b21461023257610142565b80630a494840146101475780631b4524ba14610178578063200d2ed2146101825780632f95355b146101a0578063328b8672146101bc575b600080fd5b610161600480360381019061015c91906121a4565b610392565b60405161016f929190612c7a565b60405180910390f35b61018061044e565b005b61018a6105e2565b6040516101979190612c14565b60405180910390f35b6101ba60048036038101906101b59190612163565b6105f5565b005b6101c4610888565b005b6101e060048036038101906101db919061213a565b610a1b565b005b6101ea610ce4565b005b6101f4610f6c565b6040516102019190612bbb565b60405180910390f35b6102126110c4565b005b61021c6111fe565b6040516102299190612b55565b60405180910390f35b61023a611227565b6040516102479190612c58565b60405180910390f35b61026a6004803603810190610265919061213a565b6112df565b60405161027993929190612bdd565b60405180910390f35b61029c60048036038101906102979190612163565b611323565b6040516102a99190612f0a565b60405180910390f35b6102ba6113f0565b6040516102c79190612b99565b60405180910390f35b6102d861147e565b005b6102e2611611565b005b6102ec61180d565b6040516102f99190612f0a565b60405180910390f35b61031c600480360381019061031791906121a4565b611813565b6040516103299190612b55565b60405180910390f35b61033a61184f565b005b6103566004803603810190610351919061213a565b611a4b565b005b610360611bf4565b60405161036d9190612f0a565b60405180910390f35b610390600480360381019061038b9190612163565b611c14565b005b6001602052806000526040600020600091509050806000018054600181600116156101000203166002900480601f01602080910402602001604051908101604052809291908181526020018280546001816001161561010002031660029004801561043e5780601f106104135761010080835404028352916020019161043e565b820191906000526020600020905b81548152906001019060200180831161042157829003601f168201915b5050505050908060010154905082565b610456611f70565b73ffffffffffffffffffffffffffffffffffffffff166104746111fe565b73ffffffffffffffffffffffffffffffffffffffff16146104ca576040517f08c379a00000000000000000000000000000000000000000000000000000000081526004016104c190612e2a565b60405180910390fd5b600060058111156104d757fe5b600760009054906101000a900460ff1660058111156104f257fe5b1415610533576040517f08c379a000000000000000000000000000000000000000000000000000000000815260040161052a90612d0a565b60405180910390fd5b6000600760009054906101000a900460ff1690506000600760006101000a81548160ff0219169083600581111561056657fe5b02179055507f0a97a4ee45751e2abf3e4fc8946939630b11b371ea8ae39ccdc3056e98f5cc3f81600760009054906101000a900460ff166040516105ab929190612c2f565b60405180910390a17f4af5fb7dc8f21e936cf19959d5a6b75fa54320031fd314788f215d893bcb95e760405160405180910390a150565b600760009054906101000a900460ff1681565b6001600581111561060257fe5b600760009054906101000a900460ff16600581111561061d57fe5b1461065d576040517f08c379a000000000000000000000000000000000000000000000000000000000815260040161065490612d6a565b60405180910390fd5b600260003373ffffffffffffffffffffffffffffffffffffffff1673ffffffffffffffffffffffffffffffffffffffff16815260200190815260200160002060000160009054906101000a900460ff166106ec576040517f08c379a00000000000000000000000000000000000000000000000000000000081526004016106e390612daa565b60405180910390fd5b60003073ffffffffffffffffffffffffffffffffffffffff16639842ee9e836040518263ffffffff1660e01b81526004016107279190612c58565b60206040518083038186803b15801561073f57600080fd5b505afa158015610753573d6000803e3d6000fd5b505050506040513d601f19601f8201168201806040525081019061077791906121cd565b9050600081146107bc576040517f08c379a00000000000000000000000000000000000000000000000000000000081526004016107b390612d2a565b60405180910390fd5b6107c4611fcb565b828160000181905250600081602001818152505060006107e2611f78565b905081600160008381526020019081526020016000206000820151816000019080519060200190610814929190611fe5565b506020820151816001015590505060048190806001815401808255809150506001900390600052602060002001600090919091909150557f92e393e9b54e2f801d3ea4beb0c5e71a21cc34a5d34b77d0fb8a3aa1650dc18f8160405161087a9190612f0a565b60405180910390a150505050565b610890611f70565b73ffffffffffffffffffffffffffffffffffffffff166108ae6111fe565b73ffffffffffffffffffffffffffffffffffffffff1614610904576040517f08c379a00000000000000000000000000000000000000000000000000000000081526004016108fb90612e2a565b60405180910390fd5b6001600581111561091157fe5b600760009054906101000a900460ff16600581111561092c57fe5b1461096c576040517f08c379a000000000000000000000000000000000000000000000000000000000815260040161096390612e0a565b60405180910390fd5b6000600760009054906101000a900460ff1690506002600760006101000a81548160ff0219169083600581111561099f57fe5b02179055507f0a97a4ee45751e2abf3e4fc8946939630b11b371ea8ae39ccdc3056e98f5cc3f81600760009054906101000a900460ff166040516109e4929190612c2f565b60405180910390a17f240cb87b2e4df4c318e72bd714d45a9cad60249e883ff56b1fffd83a4595a8fa60405160405180910390a150565b610a23611f70565b73ffffffffffffffffffffffffffffffffffffffff16610a416111fe565b73ffffffffffffffffffffffffffffffffffffffff1614610a97576040517f08c379a0000000000000000000000000000000000000000000000000000000008152600401610a8e90612e2a565b60405180910390fd5b60006005811115610aa457fe5b600760009054906101000a900460ff166005811115610abf57fe5b14610aff576040517f08c379a0000000000000000000000000000000000000000000000000000000008152600401610af690612dca565b60405180910390fd5b600260008273ffffffffffffffffffffffffffffffffffffffff1673ffffffffffffffffffffffffffffffffffffffff16815260200190815260200160002060000160009054906101000a900460ff1615610b8f576040517f08c379a0000000000000000000000000000000000000000000000000000000008152600401610b8690612eaa565b60405180910390fd5b610b97612065565b6001816000019015159081151581525050600081602001901515908115158152505080600260008473ffffffffffffffffffffffffffffffffffffffff1673ffffffffffffffffffffffffffffffffffffffff16815260200190815260200160002060008201518160000160006101000a81548160ff02191690831515021790555060208201518160000160016101000a81548160ff021916908315150217905550604082015181600101559050506003829080600181540180825580915050600190039060005260206000200160009091909190916101000a81548173ffffffffffffffffffffffffffffffffffffffff021916908373ffffffffffffffffffffffffffffffffffffffff1602179055507fb6be2187d059cc2a55fe29e0e503b566e1e0f8c8780096e185429350acffd3dd82604051610cd89190612b55565b60405180910390a15050565b610cec611f70565b73ffffffffffffffffffffffffffffffffffffffff16610d0a6111fe565b73ffffffffffffffffffffffffffffffffffffffff1614610d60576040517f08c379a0000000000000000000000000000000000000000000000000000000008152600401610d5790612e2a565b60405180910390fd5b60046005811115610d6d57fe5b600760009054906101000a900460ff166005811115610d8857fe5b14610dc8576040517f08c379a0000000000000000000000000000000000000000000000000000000008152600401610dbf90612eca565b60405180910390fd5b600580811115610dd457fe5b600760009054906101000a900460ff166005811115610def57fe5b1415610e30576040517f08c379a0000000000000000000000000000000000000000000000000000000008152600401610e2790612e4a565b60405180910390fd5b6000805b600480549050811015610ebb57816001600060048481548110610e5357fe5b90600052602060002001548152602001908152602001600020600101541115610eae576001600082815260200190815260200160002060010154915060048181548110610e9c57fe5b90600052602060002001546005819055505b8080600101915050610e34565b506000600760009054906101000a900460ff1690506005600760006101000a81548160ff02191690836005811115610eef57fe5b02179055507f0a97a4ee45751e2abf3e4fc8946939630b11b371ea8ae39ccdc3056e98f5cc3f81600760009054906101000a900460ff16604051610f34929190612c2f565b60405180910390a17f0e5e95ff8725ab3e7a4b6b59998a4c344c2aa8d1485f5e60cb7f337768e6134760405160405180910390a15050565b60608060048054905067ffffffffffffffff81118015610f8b57600080fd5b50604051908082528060200260200182016040528015610fbf57816020015b6060815260200190600190039081610faa5790505b50905060005b6004805490508110156110bc576001600060048381548110610fe357fe5b906000526020600020015481526020019081526020016000206000018054600181600116156101000203166002900480601f0160208091040260200160405190810160405280929190818152602001828054600181600116156101000203166002900480156110935780601f1061106857610100808354040283529160200191611093565b820191906000526020600020905b81548152906001019060200180831161107657829003601f168201915b50505050508282815181106110a457fe5b60200260200101819052508080600101915050610fc5565b508091505090565b6110cc611f70565b73ffffffffffffffffffffffffffffffffffffffff166110ea6111fe565b73ffffffffffffffffffffffffffffffffffffffff1614611140576040517f08c379a000000000000000000000000000000000000000000000000000000000815260040161113790612e2a565b60405180910390fd5b600073ffffffffffffffffffffffffffffffffffffffff1660008054906101000a900473ffffffffffffffffffffffffffffffffffffffff1673ffffffffffffffffffffffffffffffffffffffff167f8be0079c531659141344cd1fd0a4f28419497f9722a3daafe3b4186f6b6457e060405160405180910390a360008060006101000a81548173ffffffffffffffffffffffffffffffffffffffff021916908373ffffffffffffffffffffffffffffffffffffffff160217905550565b60008060009054906101000a900473ffffffffffffffffffffffffffffffffffffffff16905090565b60606001600060055481526020019081526020016000206000018054600181600116156101000203166002900480601f0160208091040260200160405190810160405280929190818152602001828054600181600116156101000203166002900480156112d55780601f106112aa576101008083540402835291602001916112d5565b820191906000526020600020905b8154815290600101906020018083116112b857829003601f168201915b5050505050905090565b60026020528060005260406000206000915090508060000160009054906101000a900460ff16908060000160019054906101000a900460ff16908060010154905083565b6000806000905060005b6004805490508110156113e6578360405160200161134b9190612aea565b60405160208183030381529060405280519060200120600160006004848154811061137257fe5b9060005260206000200154815260200190815260200160002060000160405160200161139e9190612b01565b6040516020818303038152906040528051906020012014156113d957600481815481106113c757fe5b906000526020600020015491506113e6565b808060010191505061132d565b5080915050919050565b6060600380548060200260200160405190810160405280929190818152602001828054801561147457602002820191906000526020600020905b8160009054906101000a900473ffffffffffffffffffffffffffffffffffffffff1673ffffffffffffffffffffffffffffffffffffffff168152602001906001019080831161142a575b5050505050905090565b611486611f70565b73ffffffffffffffffffffffffffffffffffffffff166114a46111fe565b73ffffffffffffffffffffffffffffffffffffffff16146114fa576040517f08c379a00000000000000000000000000000000000000000000000000000000081526004016114f190612e2a565b60405180910390fd5b6003600581111561150757fe5b600760009054906101000a900460ff16600581111561152257fe5b14611562576040517f08c379a000000000000000000000000000000000000000000000000000000000815260040161155990612dea565b60405180910390fd5b6000600760009054906101000a900460ff1690506004600760006101000a81548160ff0219169083600581111561159557fe5b02179055507f0a97a4ee45751e2abf3e4fc8946939630b11b371ea8ae39ccdc3056e98f5cc3f81600760009054906101000a900460ff166040516115da929190612c2f565b60405180910390a17fc379d349a6301baf50fb2f98d829f4ae10b1cdb7c66f4e4d8117302df7b8cd4c60405160405180910390a150565b611619611f70565b73ffffffffffffffffffffffffffffffffffffffff166116376111fe565b73ffffffffffffffffffffffffffffffffffffffff161461168d576040517f08c379a000000000000000000000000000000000000000000000000000000000815260040161168490612e2a565b60405180910390fd5b6001600581111561169a57fe5b600760009054906101000a900460ff1660058111156116b557fe5b14156116f6576040517f08c379a00000000000000000000000000000000000000000000000000000000081526004016116ed90612d0a565b60405180910390fd5b6000600581111561170357fe5b600760009054906101000a900460ff16600581111561171e57fe5b1461175e576040517f08c379a000000000000000000000000000000000000000000000000000000000815260040161175590612caa565b60405180910390fd5b6000600760009054906101000a900460ff1690506001600760006101000a81548160ff0219169083600581111561179157fe5b02179055507f0a97a4ee45751e2abf3e4fc8946939630b11b371ea8ae39ccdc3056e98f5cc3f81600760009054906101000a900460ff166040516117d6929190612c2f565b60405180910390a17f344c25562921d075a298d34b6dd1fd00d36ff293974539dfd4a8c625d9f0064c60405160405180910390a150565b60055481565b6003818154811061182057fe5b906000526020600020016000915054906101000a900473ffffffffffffffffffffffffffffffffffffffff1681565b611857611f70565b73ffffffffffffffffffffffffffffffffffffffff166118756111fe565b73ffffffffffffffffffffffffffffffffffffffff16146118cb576040517f08c379a00000000000000000000000000000000000000000000000000000000081526004016118c290612e2a565b60405180910390fd5b600360058111156118d857fe5b600760009054906101000a900460ff1660058111156118f357fe5b1415611934576040517f08c379a000000000000000000000000000000000000000000000000000000000815260040161192b90612cea565b60405180910390fd5b6002600581111561194157fe5b600760009054906101000a900460ff16600581111561195c57fe5b1461199c576040517f08c379a000000000000000000000000000000000000000000000000000000000815260040161199390612d8a565b60405180910390fd5b6000600760009054906101000a900460ff1690506003600760006101000a81548160ff021916908360058111156119cf57fe5b02179055507f0a97a4ee45751e2abf3e4fc8946939630b11b371ea8ae39ccdc3056e98f5cc3f81600760009054906101000a900460ff16604051611a14929190612c2f565b60405180910390a17f1b8e19a458c1bcd88553332c518cc5c4e2d5793e712ee766d4f1c14f672ef1f560405160405180910390a150565b611a53611f70565b73ffffffffffffffffffffffffffffffffffffffff16611a716111fe565b73ffffffffffffffffffffffffffffffffffffffff1614611ac7576040517f08c379a0000000000000000000000000000000000000000000000000000000008152600401611abe90612e2a565b60405180910390fd5b600073ffffffffffffffffffffffffffffffffffffffff168173ffffffffffffffffffffffffffffffffffffffff161415611b37576040517f08c379a0000000000000000000000000000000000000000000000000000000008152600401611b2e90612cca565b60405180910390fd5b8073ffffffffffffffffffffffffffffffffffffffff1660008054906101000a900473ffffffffffffffffffffffffffffffffffffffff1673ffffffffffffffffffffffffffffffffffffffff167f8be0079c531659141344cd1fd0a4f28419497f9722a3daafe3b4186f6b6457e060405160405180910390a3806000806101000a81548173ffffffffffffffffffffffffffffffffffffffff021916908373ffffffffffffffffffffffffffffffffffffffff16021790555050565b600060016000600554815260200190815260200160002060010154905090565b60036005811115611c2157fe5b600760009054906101000a900460ff166005811115611c3c57fe5b14611c7c576040517f08c379a0000000000000000000000000000000000000000000000000000000008152600401611c7390612e8a565b60405180910390fd5b600260003373ffffffffffffffffffffffffffffffffffffffff1673ffffffffffffffffffffffffffffffffffffffff16815260200190815260200160002060000160009054906101000a900460ff16611d0b576040517f08c379a0000000000000000000000000000000000000000000000000000000008152600401611d0290612eea565b60405180910390fd5b600260003373ffffffffffffffffffffffffffffffffffffffff1673ffffffffffffffffffffffffffffffffffffffff16815260200190815260200160002060000160019054906101000a900460ff1615611d9b576040517f08c379a0000000000000000000000000000000000000000000000000000000008152600401611d9290612d4a565b60405180910390fd5b60003073ffffffffffffffffffffffffffffffffffffffff16639842ee9e836040518263ffffffff1660e01b8152600401611dd69190612c58565b60206040518083038186803b158015611dee57600080fd5b505afa158015611e02573d6000803e3d6000fd5b505050506040513d601f19601f82011682018060405250810190611e2691906121cd565b905060008111611e6b576040517f08c379a0000000000000000000000000000000000000000000000000000000008152600401611e6290612e6a565b60405180910390fd5b60016000828152602001908152602001600020600101600081548092919060010191905055506001600260003373ffffffffffffffffffffffffffffffffffffffff1673ffffffffffffffffffffffffffffffffffffffff16815260200190815260200160002060000160016101000a81548160ff02191690831515021790555080600260003373ffffffffffffffffffffffffffffffffffffffff1673ffffffffffffffffffffffffffffffffffffffff168152602001908152602001600020600101819055507f4d99b957a2bc29a30ebd96a7be8e68fe50a3c701db28a91436490b7d53870ca43382604051611f64929190612b70565b60405180910390a15050565b600033905090565b600060066000815480929190600101919050555060644233600654604051602001611fa593929190612b18565b6040516020818303038152906040528051906020012060001c81611fc557fe5b06905090565b604051806040016040528060608152602001600081525090565b828054600181600116156101000203166002900490600052602060002090601f016020900481019282601f1061202657805160ff1916838001178555612054565b82800160010185558215612054579182015b82811115612053578251825591602001919060010190612038565b5b509050612061919061208a565b5090565b6040518060600160405280600015158152602001600015158152602001600081525090565b5b808211156120a357600081600090555060010161208b565b5090565b6000813590506120b68161318d565b92915050565b600082601f8301126120cd57600080fd5b81356120e06120db82612f52565b612f25565b915080825260208301602083018583830111156120fc57600080fd5b6121078382846130f2565b50505092915050565b60008135905061211f816131a4565b92915050565b600081519050612134816131a4565b92915050565b60006020828403121561214c57600080fd5b600061215a848285016120a7565b91505092915050565b60006020828403121561217557600080fd5b600082013567ffffffffffffffff81111561218f57600080fd5b61219b848285016120bc565b91505092915050565b6000602082840312156121b657600080fd5b60006121c484828501612110565b91505092915050565b6000602082840312156121df57600080fd5b60006121ed84828501612125565b91505092915050565b60006122028383612248565b60208301905092915050565b600061221a8383612357565b905092915050565b61222b816130aa565b82525050565b61224261223d8261304f565b613134565b82525050565b6122518161303d565b82525050565b6122608161303d565b82525050565b600061227182612fb3565b61227b8185612fee565b935061228683612f7e565b8060005b838110156122b757815161229e88826121f6565b97506122a983612fd4565b92505060018101905061228a565b5085935050505092915050565b60006122cf82612fbe565b6122d98185612fff565b9350836020820285016122eb85612f8e565b8060005b858110156123275784840389528151612308858261220e565b945061231383612fe1565b925060208a019950506001810190506122ef565b50829750879550505050505092915050565b61234281613061565b82525050565b612351816130bc565b82525050565b600061236282612fc9565b61236c8185613010565b935061237c818560208601613101565b61238581613162565b840191505092915050565b600061239b82612fc9565b6123a58185613021565b93506123b5818560208601613101565b6123be81613162565b840191505092915050565b60006123d482612fc9565b6123de8185613032565b93506123ee818560208601613101565b80840191505092915050565b600081546001811660008114612417576001811461243c57612480565b607f60028304166124288187613032565b955060ff1983168652808601935050612480565b6002820461244a8187613032565b955061245585612f9e565b60005b8281101561247757815481890152600182019150602081019050612458565b82880195505050505b505092915050565b6000612495603883613021565b91507f596f752063616e206f6e6c792072656769737465722070726f706f73616c732060008301527f616674657220766f74657220726567697374726174696f6e00000000000000006020830152604082019050919050565b60006124fb602683613021565b91507f4f776e61626c653a206e6577206f776e657220697320746865207a65726f206160008301527f64647265737300000000000000000000000000000000000000000000000000006020830152604082019050919050565b6000612561601e83613021565b91507f566f74696e672073657373696f6e20616c7265616479207374617274656400006000830152602082019050919050565b60006125a1601c83613021565b91507f526567697374726174696f6e20616c72656164792073746172746564000000006000830152602082019050919050565b60006125e1601883613021565b91507f50726f706f73616c20616c7265616479206578697374202100000000000000006000830152602082019050919050565b6000612621602f83613021565b91507f596f752074686f7567687420796f7520636f756c6420766f746520747769636560008301527f203f204e69636520747279202e2e2e00000000000000000000000000000000006020830152604082019050919050565b6000612687603083613021565b91507f54686973206973206e6f74207468652074696d6520666f722070726f706f736160008301527f6c20726567697374726174696f6e2021000000000000000000000000000000006020830152604082019050919050565b60006126ed603383613021565b91507f596f752063616e206f6e6c7920766f74652061667465722070726f706f73616c60008301527f20726567697374726174696f6e20656e646564000000000000000000000000006020830152604082019050919050565b6000612753602a83613021565b91507f596f75206d757374206265207265676973746572656420746f2073656e64206160008301527f2070726f706f73616c2e000000000000000000000000000000000000000000006020830152604082019050919050565b60006127b9602d83613021565b91507f54686973206973206e6f74207468652074696d6520666f7220766f746572207260008301527f6567697374726174696f6e2021000000000000000000000000000000000000006020830152604082019050919050565b600061281f601f83613021565b91507f566f74696e672073657373696f6e206973206e6f7420737461727465642021006000830152602082019050919050565b600061285f601d83613021565b91507f526567697374726174696f6e206973206e6f74207374617274656420210000006000830152602082019050919050565b600061289f602083613021565b91507f4f776e61626c653a2063616c6c6572206973206e6f7420746865206f776e65726000830152602082019050919050565b60006128df601583613021565b91507f566f746520616c72656164792074616c6c6965642e00000000000000000000006000830152602082019050919050565b600061291f601483613021565b91507f50726f706f73616c204e6f7420466f756e6420210000000000000000000000006000830152602082019050919050565b600061295f602283613021565b91507f54686973206973206e6f7420796574207468652074696d6520746f20766f746560008301527f20210000000000000000000000000000000000000000000000000000000000006020830152604082019050919050565b60006129c5602283613021565b91507f5468697320766f74657220697320616c7265616479207265676973746572656460008301527f20210000000000000000000000000000000000000000000000000000000000006020830152604082019050919050565b6000612a2b602583613021565b91507f576169742c2074686973206973206e6f74207468652074696d6520746f20746160008301527f6c6c7920210000000000000000000000000000000000000000000000000000006020830152604082019050919050565b6000612a91602083613021565b91507f596f75206d757374206265207265676973746572656420746f20766f746520216000830152602082019050919050565b612acd816130a0565b82525050565b612ae4612adf826130a0565b613158565b82525050565b6000612af682846123c9565b915081905092915050565b6000612b0d82846123fa565b915081905092915050565b6000612b248286612ad3565b602082019150612b348285612231565b601482019150612b448284612ad3565b602082019150819050949350505050565b6000602082019050612b6a6000830184612257565b92915050565b6000604082019050612b856000830185612222565b612b926020830184612ac4565b9392505050565b60006020820190508181036000830152612bb38184612266565b905092915050565b60006020820190508181036000830152612bd581846122c4565b905092915050565b6000606082019050612bf26000830186612339565b612bff6020830185612339565b612c0c6040830184612ac4565b949350505050565b6000602082019050612c296000830184612348565b92915050565b6000604082019050612c446000830185612348565b612c516020830184612348565b9392505050565b60006020820190508181036000830152612c728184612390565b905092915050565b60006040820190508181036000830152612c948185612390565b9050612ca36020830184612ac4565b9392505050565b60006020820190508181036000830152612cc381612488565b9050919050565b60006020820190508181036000830152612ce3816124ee565b9050919050565b60006020820190508181036000830152612d0381612554565b9050919050565b60006020820190508181036000830152612d2381612594565b9050919050565b60006020820190508181036000830152612d43816125d4565b9050919050565b60006020820190508181036000830152612d6381612614565b9050919050565b60006020820190508181036000830152612d838161267a565b9050919050565b60006020820190508181036000830152612da3816126e0565b9050919050565b60006020820190508181036000830152612dc381612746565b9050919050565b60006020820190508181036000830152612de3816127ac565b9050919050565b60006020820190508181036000830152612e0381612812565b9050919050565b60006020820190508181036000830152612e2381612852565b9050919050565b60006020820190508181036000830152612e4381612892565b9050919050565b60006020820190508181036000830152612e63816128d2565b9050919050565b60006020820190508181036000830152612e8381612912565b9050919050565b60006020820190508181036000830152612ea381612952565b9050919050565b60006020820190508181036000830152612ec3816129b8565b9050919050565b60006020820190508181036000830152612ee381612a1e565b9050919050565b60006020820190508181036000830152612f0381612a84565b9050919050565b6000602082019050612f1f6000830184612ac4565b92915050565b6000604051905081810181811067ffffffffffffffff82111715612f4857600080fd5b8060405250919050565b600067ffffffffffffffff821115612f6957600080fd5b601f19601f8301169050602081019050919050565b6000819050602082019050919050565b6000819050602082019050919050565b60008190508160005260206000209050919050565b600081519050919050565b600081519050919050565b600081519050919050565b6000602082019050919050565b6000602082019050919050565b600082825260208201905092915050565b600082825260208201905092915050565b600082825260208201905092915050565b600082825260208201905092915050565b600081905092915050565b600061304882613080565b9050919050565b600061305a82613080565b9050919050565b60008115159050919050565b600081905061307b82613180565b919050565b600073ffffffffffffffffffffffffffffffffffffffff82169050919050565b6000819050919050565b60006130b5826130ce565b9050919050565b60006130c78261306d565b9050919050565b60006130d9826130e0565b9050919050565b60006130eb82613080565b9050919050565b82818337600083830152505050565b60005b8381101561311f578082015181840152602081019050613104565b8381111561312e576000848401525b50505050565b600061313f82613146565b9050919050565b600061315182613173565b9050919050565b6000819050919050565b6000601f19601f8301169050919050565b60008160601b9050919050565b6006811061318a57fe5b50565b6131968161303d565b81146131a157600080fd5b50565b6131ad816130a0565b81146131b857600080fd5b5056fea264697066735822122002bfd3b26d5b0727fe8951a3727d4f3157902e5f3ab8b5186fceba4299e4037664736f6c634300060c0033",
  "immutableReferences": {},
  "source": "// contracts/GameItem.sol\r\n// SPDX-License-Identifier: MIT\r\npragma solidity 0.6.12;\r\nimport \"@openzeppelin/contracts/access/Ownable.sol\";\r\npragma experimental ABIEncoderV2;\r\n\r\ncontract Voting is Ownable {\r\n    enum WorkflowStatus {\r\n        RegisteringVoters,\r\n        ProposalsRegistrationStarted,\r\n        ProposalsRegistrationEnded,\r\n        VotingSessionStarted,\r\n        VotingSessionEnded,\r\n        VotesTallied\r\n    }\r\n    struct Voter {\r\n        bool isRegistered;\r\n        bool hasVoted;\r\n        uint votedProposalId;\r\n    }\r\n    struct Proposal {\r\n        string description;\r\n        uint voteCount;\r\n    }\r\n    mapping (uint => Proposal) public _proposals;\r\n    mapping (address => Voter) public _voters;\r\n    address[] public addresses; // TODO remove this (only DEBUG)\r\n    uint[] _proposalIds;\r\n    uint public winningProposalId;\r\n    uint private nonce = 0;\r\n    WorkflowStatus public status = WorkflowStatus.RegisteringVoters;\r\n\r\n    event RegisteringVotersStarted();\r\n    event VoterRegistered(address voterAddress);\r\n    event ProposalsRegistrationStarted();\r\n    event ProposalsRegistrationEnded();\r\n    event ProposalRegistered(uint proposalId);\r\n    event VotingSessionStarted();\r\n    event VotingSessionEnded();\r\n    event Voted (address voter, uint proposalId);\r\n    event VotesTallied();\r\n    event WorkflowStatusChange(WorkflowStatus previousStatus, WorkflowStatus newStatus);\r\n\r\n    function random() internal returns (uint) {\r\n        nonce++;\r\n        return uint(keccak256(abi.encodePacked(block.timestamp, msg.sender, nonce))) % 100;\r\n    }\r\n    \r\n    function getProposalIdFromDescription(string memory _description) external view returns (uint) {\r\n        uint id = 0;\r\n        for(uint i=0; i<_proposalIds.length; i++) {\r\n            if (keccak256(abi.encodePacked(_proposals[_proposalIds[i]].description)) == keccak256(abi.encodePacked(_description))) {\r\n                id = _proposalIds[i];\r\n                break;\r\n            }\r\n        }\r\n        return id;\r\n    }\r\n    \r\n    // TODO remove this (only DEBUG)\r\n    function getAddresses() external view returns(address[] memory){\r\n        return addresses;\r\n    }\r\n\r\n        // TODO remove this (only DEBUG)\r\n    // function getAddressesWhoHasVoted() external view returns(address[] memory){\r\n    //     return addresses;\r\n    // }\r\n\r\n\r\n    // TODO getVoters(address) qui return un voter\r\n\r\n    function getProposals() external view returns(string[] memory){\r\n        string[] memory arrayProposals = new string[](_proposalIds.length);\r\n        for(uint i=0; i<_proposalIds.length; i++) {\r\n            arrayProposals[i] = _proposals[_proposalIds[i]].description;\r\n        }        \r\n        return arrayProposals;\r\n    }\r\n\r\n    function getWinner() external view returns(string memory) {\r\n        return _proposals[winningProposalId].description;\r\n    }\r\n\r\n    // function getWinner() external view returns(string memory) {\r\n    //     // require(winningProposalId != 0, \"Error, there is no winner or the vote is not ended.\");\r\n    //     return _proposals[winningProposalId].description;\r\n    // }\r\n\r\n    function getWinnerVoteCount() external view returns(uint) {\r\n        // require(winningProposalId != 0, \"Error, there is no winner or the vote is not ended.\");\r\n        return _proposals[winningProposalId].voteCount;\r\n    }\r\n\r\n    function tally() external onlyOwner {\r\n        require(status == WorkflowStatus.VotingSessionEnded, \"Wait, this is not the time to tally !\");\r\n        require(status != WorkflowStatus.VotesTallied, \"Vote already tallied.\");\r\n        \r\n        uint max = 0;\r\n        for(uint i=0; i<_proposalIds.length; i++) {\r\n            if (_proposals[_proposalIds[i]].voteCount > max) {\r\n                max = _proposals[i].voteCount;\r\n                winningProposalId = _proposalIds[i];\r\n            }\r\n        }\r\n\r\n        WorkflowStatus previousStatus = status;\r\n        status = WorkflowStatus.VotesTallied;\r\n        emit WorkflowStatusChange(previousStatus, status);\r\n        emit VotesTallied();   \r\n    }\r\n    \r\n    function vote(string memory _description) external {\r\n        require(status == WorkflowStatus.VotingSessionStarted, \"This is not yet the time to vote !\");\r\n        require(_voters[msg.sender].isRegistered, \"You must be registered to vote !\");\r\n        require(!_voters[msg.sender].hasVoted, \"You thought you could vote twice ? Nice try ...\");\r\n\r\n        uint propId = this.getProposalIdFromDescription(_description);\r\n        require(propId > 0, \"Proposal Not Found !\");\r\n\r\n        _proposals[propId].voteCount++;  \r\n        _voters[msg.sender].hasVoted = true;\r\n        _voters[msg.sender].votedProposalId = propId;\r\n        \r\n        emit Voted(msg.sender, propId);\r\n    }\r\n    \r\n    function registerVoter(address _address) external onlyOwner {\r\n        require(status == WorkflowStatus.RegisteringVoters, \"This is not the time for voter registration !\");\r\n        require(!_voters[_address].isRegistered, \"This voter is already registered !\");\r\n        Voter memory voter;\r\n        voter.isRegistered = true;\r\n        voter.hasVoted = false;\r\n        _voters[_address] = voter;\r\n        addresses.push(_address); // TODO remove this (only DEBUG)\r\n        emit VoterRegistered(_address);\r\n    }\r\n    \r\n    function registerProposal(string memory _description) external {\r\n        require(status == WorkflowStatus.ProposalsRegistrationStarted, \"This is not the time for proposal registration !\");\r\n        require(_voters[msg.sender].isRegistered, \"You must be registered to send a proposal.\");\r\n\r\n        uint alreadyExistId = this.getProposalIdFromDescription(_description);\r\n        require(alreadyExistId == 0, \"Proposal already exist !\");\r\n\r\n        Proposal memory proposal;\r\n        proposal.description = _description;\r\n        proposal.voteCount = 0;\r\n        \r\n        uint proposalId = random();\r\n        _proposals[proposalId] = proposal;\r\n        _proposalIds.push(proposalId);\r\n        \r\n        emit ProposalRegistered(proposalId);\r\n    }\r\n    \r\n    function startVotersregistration() external onlyOwner {\r\n        require(status != WorkflowStatus.RegisteringVoters, \"Registration already started\");\r\n        WorkflowStatus previousStatus = status;\r\n        status = WorkflowStatus.RegisteringVoters;\r\n        emit WorkflowStatusChange(previousStatus, status);\r\n        emit RegisteringVotersStarted();\r\n    }\r\n\r\n    function startProposalregistration() external onlyOwner {\r\n        require(status != WorkflowStatus.ProposalsRegistrationStarted, \"Registration already started\");\r\n        require(status == WorkflowStatus.RegisteringVoters, \"You can only register proposals after voter registration\");\r\n        WorkflowStatus previousStatus = status;\r\n        status = WorkflowStatus.ProposalsRegistrationStarted;\r\n        emit WorkflowStatusChange(previousStatus, status);\r\n        emit ProposalsRegistrationStarted();\r\n    }\r\n        \r\n    function endProposalregistration() external onlyOwner {\r\n        require(status == WorkflowStatus.ProposalsRegistrationStarted, \"Registration is not started !\");\r\n        WorkflowStatus previousStatus = status;\r\n        status = WorkflowStatus.ProposalsRegistrationEnded;\r\n        emit WorkflowStatusChange(previousStatus, status);\r\n        emit ProposalsRegistrationEnded();\r\n    }\r\n    \r\n    function startVotingSession() external onlyOwner {\r\n        require(status != WorkflowStatus.VotingSessionStarted, \"Voting session already started\");\r\n        require(status == WorkflowStatus.ProposalsRegistrationEnded, \"You can only vote after proposal registration ended\");\r\n        WorkflowStatus previousStatus = status;\r\n        status = WorkflowStatus.VotingSessionStarted;\r\n        emit WorkflowStatusChange(previousStatus, status);\r\n        emit VotingSessionStarted();\r\n    }\r\n        \r\n    function endVotingSession() external onlyOwner {\r\n        require(status == WorkflowStatus.VotingSessionStarted, \"Voting session is not started !\");\r\n        WorkflowStatus previousStatus = status;\r\n        status = WorkflowStatus.VotingSessionEnded;\r\n        emit WorkflowStatusChange(previousStatus, status);\r\n        emit VotingSessionEnded();\r\n    }\r\n\r\n}",
  "sourcePath": "C:/Users/leopo/OneDrive/Documents/Formation ALYRA/defi-voting-2/contracts/Voting.sol",
  "compiler": {
    "name": "solc",
    "version": "0.6.12+commit.27d51765.Emscripten.clang"
  },
  "schemaVersion": "3.3.4",
  "updatedAt": "2021-06-07T16:54:10.916Z",
  "networkType": "ethereum",
  "devdoc": {
    "kind": "dev",
    "methods": {
      "owner()": {
        "details": "Returns the address of the current owner."
      },
      "renounceOwnership()": {
        "details": "Leaves the contract without owner. It will not be possible to call `onlyOwner` functions anymore. Can only be called by the current owner. NOTE: Renouncing ownership will leave the contract without an owner, thereby removing any functionality that is only available to the owner."
      },
      "transferOwnership(address)": {
        "details": "Transfers ownership of the contract to a new account (`newOwner`). Can only be called by the current owner."
      }
    },
    "version": 1
  },
  "userdoc": {
    "kind": "user",
    "methods": {},
    "version": 1
  }
}