{
  "contractName": "Voting",
  "abi": [
    {
      "anonymous": false,
      "inputs": [
        {
          "indexed": true,
          "internalType": "address",
          "name": "previousOwner",
          "type": "address"
        },
        {
          "indexed": true,
          "internalType": "address",
          "name": "newOwner",
          "type": "address"
        }
      ],
      "name": "OwnershipTransferred",
      "type": "event"
    },
    {
      "anonymous": false,
      "inputs": [
        {
          "indexed": false,
          "internalType": "uint256",
          "name": "proposalId",
          "type": "uint256"
        }
      ],
      "name": "ProposalRegistered",
      "type": "event"
    },
    {
      "anonymous": false,
      "inputs": [],
      "name": "ProposalsRegistrationEnded",
      "type": "event"
    },
    {
      "anonymous": false,
      "inputs": [],
      "name": "ProposalsRegistrationStarted",
      "type": "event"
    },
    {
      "anonymous": false,
      "inputs": [],
      "name": "RegisteringVotersStarted",
      "type": "event"
    },
    {
      "anonymous": false,
      "inputs": [
        {
          "indexed": false,
          "internalType": "address",
          "name": "voter",
          "type": "address"
        },
        {
          "indexed": false,
          "internalType": "uint256",
          "name": "proposalId",
          "type": "uint256"
        }
      ],
      "name": "Voted",
      "type": "event"
    },
    {
      "anonymous": false,
      "inputs": [
        {
          "indexed": false,
          "internalType": "address",
          "name": "voterAddress",
          "type": "address"
        }
      ],
      "name": "VoterRegistered",
      "type": "event"
    },
    {
      "anonymous": false,
      "inputs": [],
      "name": "VotesTallied",
      "type": "event"
    },
    {
      "anonymous": false,
      "inputs": [],
      "name": "VotingSessionEnded",
      "type": "event"
    },
    {
      "anonymous": false,
      "inputs": [],
      "name": "VotingSessionStarted",
      "type": "event"
    },
    {
      "anonymous": false,
      "inputs": [
        {
          "indexed": false,
          "internalType": "enum Voting.WorkflowStatus",
          "name": "previousStatus",
          "type": "uint8"
        },
        {
          "indexed": false,
          "internalType": "enum Voting.WorkflowStatus",
          "name": "newStatus",
          "type": "uint8"
        }
      ],
      "name": "WorkflowStatusChange",
      "type": "event"
    },
    {
      "inputs": [
        {
          "internalType": "uint256",
          "name": "",
          "type": "uint256"
        }
      ],
      "name": "_proposals",
      "outputs": [
        {
          "internalType": "string",
          "name": "description",
          "type": "string"
        },
        {
          "internalType": "uint256",
          "name": "voteCount",
          "type": "uint256"
        }
      ],
      "stateMutability": "view",
      "type": "function"
    },
    {
      "inputs": [
        {
          "internalType": "address",
          "name": "",
          "type": "address"
        }
      ],
      "name": "_voters",
      "outputs": [
        {
          "internalType": "bool",
          "name": "isRegistered",
          "type": "bool"
        },
        {
          "internalType": "bool",
          "name": "hasVoted",
          "type": "bool"
        },
        {
          "internalType": "uint256",
          "name": "votedProposalId",
          "type": "uint256"
        }
      ],
      "stateMutability": "view",
      "type": "function"
    },
    {
      "inputs": [
        {
          "internalType": "uint256",
          "name": "",
          "type": "uint256"
        }
      ],
      "name": "addresses",
      "outputs": [
        {
          "internalType": "address",
          "name": "",
          "type": "address"
        }
      ],
      "stateMutability": "view",
      "type": "function"
    },
    {
      "inputs": [],
      "name": "owner",
      "outputs": [
        {
          "internalType": "address",
          "name": "",
          "type": "address"
        }
      ],
      "stateMutability": "view",
      "type": "function"
    },
    {
      "inputs": [],
      "name": "renounceOwnership",
      "outputs": [],
      "stateMutability": "nonpayable",
      "type": "function"
    },
    {
      "inputs": [],
      "name": "status",
      "outputs": [
        {
          "internalType": "enum Voting.WorkflowStatus",
          "name": "",
          "type": "uint8"
        }
      ],
      "stateMutability": "view",
      "type": "function"
    },
    {
      "inputs": [
        {
          "internalType": "address",
          "name": "newOwner",
          "type": "address"
        }
      ],
      "name": "transferOwnership",
      "outputs": [],
      "stateMutability": "nonpayable",
      "type": "function"
    },
    {
      "inputs": [],
      "name": "winningProposalId",
      "outputs": [
        {
          "internalType": "uint256",
          "name": "",
          "type": "uint256"
        }
      ],
      "stateMutability": "view",
      "type": "function"
    },
    {
      "inputs": [
        {
          "internalType": "string",
          "name": "_description",
          "type": "string"
        }
      ],
      "name": "getProposalIdFromDescription",
      "outputs": [
        {
          "internalType": "uint256",
          "name": "",
          "type": "uint256"
        }
      ],
      "stateMutability": "view",
      "type": "function"
    },
    {
      "inputs": [],
      "name": "getAddresses",
      "outputs": [
        {
          "internalType": "address[]",
          "name": "",
          "type": "address[]"
        }
      ],
      "stateMutability": "view",
      "type": "function"
    },
    {
      "inputs": [],
      "name": "getCustomProposals",
      "outputs": [
        {
          "internalType": "uint256",
          "name": "",
          "type": "uint256"
        }
      ],
      "stateMutability": "view",
      "type": "function"
    },
    {
      "inputs": [],
      "name": "getProposals",
      "outputs": [
        {
          "internalType": "bytes32[]",
          "name": "",
          "type": "bytes32[]"
        }
      ],
      "stateMutability": "view",
      "type": "function"
    },
    {
      "inputs": [],
      "name": "tally",
      "outputs": [],
      "stateMutability": "nonpayable",
      "type": "function"
    },
    {
      "inputs": [
        {
          "internalType": "string",
          "name": "_description",
          "type": "string"
        }
      ],
      "name": "vote",
      "outputs": [],
      "stateMutability": "nonpayable",
      "type": "function"
    },
    {
      "inputs": [
        {
          "internalType": "address",
          "name": "_address",
          "type": "address"
        }
      ],
      "name": "registerVoter",
      "outputs": [],
      "stateMutability": "nonpayable",
      "type": "function"
    },
    {
      "inputs": [
        {
          "internalType": "string",
          "name": "_description",
          "type": "string"
        }
      ],
      "name": "registerProposal",
      "outputs": [],
      "stateMutability": "nonpayable",
      "type": "function"
    },
    {
      "inputs": [],
      "name": "startVotersregistration",
      "outputs": [],
      "stateMutability": "nonpayable",
      "type": "function"
    },
    {
      "inputs": [],
      "name": "startProposalregistration",
      "outputs": [],
      "stateMutability": "nonpayable",
      "type": "function"
    },
    {
      "inputs": [],
      "name": "endProposalregistration",
      "outputs": [],
      "stateMutability": "nonpayable",
      "type": "function"
    },
    {
      "inputs": [],
      "name": "startVotingSession",
      "outputs": [],
      "stateMutability": "nonpayable",
      "type": "function"
    },
    {
      "inputs": [],
      "name": "endVotingSession",
      "outputs": [],
      "stateMutability": "nonpayable",
      "type": "function"
    }
  ],
  "bytecode": "0x608060405260006006556000600760006101000a81548160ff0219169083600581111561002857fe5b021790555034801561003957600080fd5b50600061004a6100ed60201b60201c565b9050806000806101000a81548173ffffffffffffffffffffffffffffffffffffffff021916908373ffffffffffffffffffffffffffffffffffffffff1602179055508073ffffffffffffffffffffffffffffffffffffffff16600073ffffffffffffffffffffffffffffffffffffffff167f8be0079c531659141344cd1fd0a4f28419497f9722a3daafe3b4186f6b6457e060405160405180910390a3506100f5565b600033905090565b612bfd80620001056000396000f3fe608060405234801561001057600080fd5b50600436106101375760003560e01c80638da5cb5b116100b8578063b452eaa41161007c578063b452eaa41461058d578063c64963c514610597578063edf26d9b146105b5578063ee74c6781461060d578063f2fde38b14610617578063fc36e15b1461065b57610137565b80638da5cb5b146103b75780639029e1cf146103eb5780639842ee9e14610455578063a39fac1214610524578063a7bfab161461058357610137565b8063328b8672116100ff578063328b8672146102f657806338db6dd314610300578063410673e51461034457806362564c481461034e578063715018a6146103ad57610137565b80630a4948401461013c5780631b4524ba146101ea578063200d2ed2146101f4578063250cd7461461021d5780632f95355b1461023b575b600080fd5b6101686004803603602081101561015257600080fd5b8101908080359060200190929190505050610716565b6040518080602001838152602001828103825284818151815260200191508051906020019080838360005b838110156101ae578082015181840152602081019050610193565b50505050905090810190601f1680156101db5780820380516001836020036101000a031916815260200191505b50935050505060405180910390f35b6101f26107d2565b005b6101fc6109e8565b6040518082600581111561020c57fe5b815260200191505060405180910390f35b6102256109fb565b6040518082815260200191505060405180910390f35b6102f46004803603602081101561025157600080fd5b810190808035906020019064010000000081111561026e57600080fd5b82018360208201111561028057600080fd5b803590602001918460018302840111640100000000831117156102a257600080fd5b91908080601f016020809104026020016040519081016040528093929190818152602001838380828437600081840152601f19601f820116905080830192505050505050509192919290505050610a04565b005b6102fe610d5e565b005b6103426004803603602081101561031657600080fd5b81019080803573ffffffffffffffffffffffffffffffffffffffff169060200190929190505050610f73565b005b61034c6112b1565b005b6103566115d1565b6040518080602001828103825283818151815260200191508051906020019060200280838360005b8381101561039957808201518184015260208101905061037e565b505050509050019250505060405180910390f35b6103b5611705565b005b6103bf611872565b604051808273ffffffffffffffffffffffffffffffffffffffff16815260200191505060405180910390f35b61042d6004803603602081101561040157600080fd5b81019080803573ffffffffffffffffffffffffffffffffffffffff16906020019092919050505061189b565b6040518084151581526020018315158152602001828152602001935050505060405180910390f35b61050e6004803603602081101561046b57600080fd5b810190808035906020019064010000000081111561048857600080fd5b82018360208201111561049a57600080fd5b803590602001918460018302840111640100000000831117156104bc57600080fd5b91908080601f016020809104026020016040519081016040528093929190818152602001838380828437600081840152601f19601f8201169050808301925050505050505091929192905050506118df565b6040518082815260200191505060405180910390f35b61052c611a4a565b6040518080602001828103825283818151815260200191508051906020019060200280838360005b8381101561056f578082015181840152602081019050610554565b505050509050019250505060405180910390f35b61058b611ad8565b005b610595611ced565b005b61059f611f81565b6040518082815260200191505060405180910390f35b6105e1600480360360208110156105cb57600080fd5b8101908080359060200190929190505050611f87565b604051808273ffffffffffffffffffffffffffffffffffffffff16815260200191505060405180910390f35b610615611fc3565b005b6106596004803603602081101561062d57600080fd5b81019080803573ffffffffffffffffffffffffffffffffffffffff169060200190929190505050612257565b005b6107146004803603602081101561067157600080fd5b810190808035906020019064010000000081111561068e57600080fd5b8201836020820111156106a057600080fd5b803590602001918460018302840111640100000000831117156106c257600080fd5b91908080601f016020809104026020016040519081016040528093929190818152602001838380828437600081840152601f19601f820116905080830192505050505050509192919290505050612449565b005b6001602052806000526040600020600091509050806000018054600181600116156101000203166002900480601f0160208091040260200160405190810160405280929190818152602001828054600181600116156101000203166002900480156107c25780601f10610797576101008083540402835291602001916107c2565b820191906000526020600020905b8154815290600101906020018083116107a557829003601f168201915b5050505050908060010154905082565b6107da6128bb565b73ffffffffffffffffffffffffffffffffffffffff166107f8611872565b73ffffffffffffffffffffffffffffffffffffffff1614610881576040517f08c379a00000000000000000000000000000000000000000000000000000000081526004018080602001828103825260208152602001807f4f776e61626c653a2063616c6c6572206973206e6f7420746865206f776e657281525060200191505060405180910390fd5b6000600581111561088e57fe5b600760009054906101000a900460ff1660058111156108a957fe5b141561091d576040517f08c379a000000000000000000000000000000000000000000000000000000000815260040180806020018281038252601c8152602001807f526567697374726174696f6e20616c726561647920737461727465640000000081525060200191505060405180910390fd5b6000600760009054906101000a900460ff1690506000600760006101000a81548160ff0219169083600581111561095057fe5b02179055507f0a97a4ee45751e2abf3e4fc8946939630b11b371ea8ae39ccdc3056e98f5cc3f81600760009054906101000a900460ff166040518083600581111561099757fe5b81526020018260058111156109a857fe5b81526020019250505060405180910390a17f4af5fb7dc8f21e936cf19959d5a6b75fa54320031fd314788f215d893bcb95e760405160405180910390a150565b600760009054906101000a900460ff1681565b60006001905090565b60016005811115610a1157fe5b600760009054906101000a900460ff166005811115610a2c57fe5b14610a82576040517f08c379a0000000000000000000000000000000000000000000000000000000008152600401808060200182810382526030815260200180612aa56030913960400191505060405180910390fd5b600260003373ffffffffffffffffffffffffffffffffffffffff1673ffffffffffffffffffffffffffffffffffffffff16815260200190815260200160002060000160009054906101000a900460ff16610b27576040517f08c379a000000000000000000000000000000000000000000000000000000000815260040180806020018281038252602a815260200180612b08602a913960400191505060405180910390fd5b60003073ffffffffffffffffffffffffffffffffffffffff16639842ee9e836040518263ffffffff1660e01b81526004018080602001828103825283818151815260200191508051906020019080838360005b83811015610b95578082015181840152602081019050610b7a565b50505050905090810190601f168015610bc25780820380516001836020036101000a031916815260200191505b509250505060206040518083038186803b158015610bdf57600080fd5b505afa158015610bf3573d6000803e3d6000fd5b505050506040513d6020811015610c0957600080fd5b8101908080519060200190929190505050905060008114610c92576040517f08c379a00000000000000000000000000000000000000000000000000000000081526004018080602001828103825260188152602001807f50726f706f73616c20616c72656164792065786973742021000000000000000081525060200191505060405180910390fd5b610c9a61293b565b82816000018190525060008160200181815250506000610cb86128c3565b905081600160008381526020019081526020016000206000820151816000019080519060200190610cea929190612955565b506020820151816001015590505060048190806001815401808255809150506001900390600052602060002001600090919091909150557f92e393e9b54e2f801d3ea4beb0c5e71a21cc34a5d34b77d0fb8a3aa1650dc18f816040518082815260200191505060405180910390a150505050565b610d666128bb565b73ffffffffffffffffffffffffffffffffffffffff16610d84611872565b73ffffffffffffffffffffffffffffffffffffffff1614610e0d576040517f08c379a00000000000000000000000000000000000000000000000000000000081526004018080602001828103825260208152602001807f4f776e61626c653a2063616c6c6572206973206e6f7420746865206f776e657281525060200191505060405180910390fd5b60016005811115610e1a57fe5b600760009054906101000a900460ff166005811115610e3557fe5b14610ea8576040517f08c379a000000000000000000000000000000000000000000000000000000000815260040180806020018281038252601d8152602001807f526567697374726174696f6e206973206e6f742073746172746564202100000081525060200191505060405180910390fd5b6000600760009054906101000a900460ff1690506002600760006101000a81548160ff02191690836005811115610edb57fe5b02179055507f0a97a4ee45751e2abf3e4fc8946939630b11b371ea8ae39ccdc3056e98f5cc3f81600760009054906101000a900460ff1660405180836005811115610f2257fe5b8152602001826005811115610f3357fe5b81526020019250505060405180910390a17f240cb87b2e4df4c318e72bd714d45a9cad60249e883ff56b1fffd83a4595a8fa60405160405180910390a150565b610f7b6128bb565b73ffffffffffffffffffffffffffffffffffffffff16610f99611872565b73ffffffffffffffffffffffffffffffffffffffff1614611022576040517f08c379a00000000000000000000000000000000000000000000000000000000081526004018080602001828103825260208152602001807f4f776e61626c653a2063616c6c6572206973206e6f7420746865206f776e657281525060200191505060405180910390fd5b6000600581111561102f57fe5b600760009054906101000a900460ff16600581111561104a57fe5b146110a0576040517f08c379a000000000000000000000000000000000000000000000000000000000815260040180806020018281038252602d815260200180612b32602d913960400191505060405180910390fd5b600260008273ffffffffffffffffffffffffffffffffffffffff1673ffffffffffffffffffffffffffffffffffffffff16815260200190815260200160002060000160009054906101000a900460ff1615611146576040517f08c379a0000000000000000000000000000000000000000000000000000000008152600401808060200182810382526022815260200180612b816022913960400191505060405180910390fd5b61114e6129d5565b6001816000019015159081151581525050600081602001901515908115158152505080600260008473ffffffffffffffffffffffffffffffffffffffff1673ffffffffffffffffffffffffffffffffffffffff16815260200190815260200160002060008201518160000160006101000a81548160ff02191690831515021790555060208201518160000160016101000a81548160ff021916908315150217905550604082015181600101559050506003829080600181540180825580915050600190039060005260206000200160009091909190916101000a81548173ffffffffffffffffffffffffffffffffffffffff021916908373ffffffffffffffffffffffffffffffffffffffff1602179055507fb6be2187d059cc2a55fe29e0e503b566e1e0f8c8780096e185429350acffd3dd82604051808273ffffffffffffffffffffffffffffffffffffffff16815260200191505060405180910390a15050565b6112b96128bb565b73ffffffffffffffffffffffffffffffffffffffff166112d7611872565b73ffffffffffffffffffffffffffffffffffffffff1614611360576040517f08c379a00000000000000000000000000000000000000000000000000000000081526004018080602001828103825260208152602001807f4f776e61626c653a2063616c6c6572206973206e6f7420746865206f776e657281525060200191505060405180910390fd5b6004600581111561136d57fe5b600760009054906101000a900460ff16600581111561138857fe5b146113de576040517f08c379a0000000000000000000000000000000000000000000000000000000008152600401808060200182810382526025815260200180612ba36025913960400191505060405180910390fd5b6005808111156113ea57fe5b600760009054906101000a900460ff16600581111561140557fe5b1415611479576040517f08c379a00000000000000000000000000000000000000000000000000000000081526004018080602001828103825260158152602001807f566f746520616c72656164792074616c6c6965642e000000000000000000000081525060200191505060405180910390fd5b6000805b6004805490508110156115045781600160006004848154811061149c57fe5b906000526020600020015481526020019081526020016000206001015411156114f75760016000828152602001908152602001600020600101549150600481815481106114e557fe5b90600052602060002001546005819055505b808060010191505061147d565b506000600760009054906101000a900460ff1690506005600760006101000a81548160ff0219169083600581111561153857fe5b02179055507f0a97a4ee45751e2abf3e4fc8946939630b11b371ea8ae39ccdc3056e98f5cc3f81600760009054906101000a900460ff166040518083600581111561157f57fe5b815260200182600581111561159057fe5b81526020019250505060405180910390a17f0e5e95ff8725ab3e7a4b6b59998a4c344c2aa8d1485f5e60cb7f337768e6134760405160405180910390a15050565b60608060048054905067ffffffffffffffff811180156115f057600080fd5b5060405190808252806020026020018201604052801561161f5781602001602082028036833780820191505090505b50905060005b6004805490508110156116fd57600160006004838154811061164357fe5b9060005260206000200154815260200190815260200160002060000160405160200180828054600181600116156101000203166002900480156116bd5780601f1061169b5761010080835404028352918201916116bd565b820191906000526020600020905b8154815290600101906020018083116116a9575b5050915050604051602081830303815290604052805190602001208282815181106116e457fe5b6020026020010181815250508080600101915050611625565b508091505090565b61170d6128bb565b73ffffffffffffffffffffffffffffffffffffffff1661172b611872565b73ffffffffffffffffffffffffffffffffffffffff16146117b4576040517f08c379a00000000000000000000000000000000000000000000000000000000081526004018080602001828103825260208152602001807f4f776e61626c653a2063616c6c6572206973206e6f7420746865206f776e657281525060200191505060405180910390fd5b600073ffffffffffffffffffffffffffffffffffffffff1660008054906101000a900473ffffffffffffffffffffffffffffffffffffffff1673ffffffffffffffffffffffffffffffffffffffff167f8be0079c531659141344cd1fd0a4f28419497f9722a3daafe3b4186f6b6457e060405160405180910390a360008060006101000a81548173ffffffffffffffffffffffffffffffffffffffff021916908373ffffffffffffffffffffffffffffffffffffffff160217905550565b60008060009054906101000a900473ffffffffffffffffffffffffffffffffffffffff16905090565b60026020528060005260406000206000915090508060000160009054906101000a900460ff16908060000160019054906101000a900460ff16908060010154905083565b6000806000905060005b600480549050811015611a4057836040516020018082805190602001908083835b6020831061192d578051825260208201915060208101905060208303925061190a565b6001836020036101000a03801982511681845116808217855250505050505090500191505060405160208183030381529060405280519060200120600160006004848154811061197957fe5b9060005260206000200154815260200190815260200160002060000160405160200180828054600181600116156101000203166002900480156119f35780601f106119d15761010080835404028352918201916119f3565b820191906000526020600020905b8154815290600101906020018083116119df575b5050915050604051602081830303815290604052805190602001201415611a335760048181548110611a2157fe5b90600052602060002001549150611a40565b80806001019150506118e9565b5080915050919050565b60606003805480602002602001604051908101604052809291908181526020018280548015611ace57602002820191906000526020600020905b8160009054906101000a900473ffffffffffffffffffffffffffffffffffffffff1673ffffffffffffffffffffffffffffffffffffffff1681526020019060010190808311611a84575b5050505050905090565b611ae06128bb565b73ffffffffffffffffffffffffffffffffffffffff16611afe611872565b73ffffffffffffffffffffffffffffffffffffffff1614611b87576040517f08c379a00000000000000000000000000000000000000000000000000000000081526004018080602001828103825260208152602001807f4f776e61626c653a2063616c6c6572206973206e6f7420746865206f776e657281525060200191505060405180910390fd5b60036005811115611b9457fe5b600760009054906101000a900460ff166005811115611baf57fe5b14611c22576040517f08c379a000000000000000000000000000000000000000000000000000000000815260040180806020018281038252601f8152602001807f566f74696e672073657373696f6e206973206e6f74207374617274656420210081525060200191505060405180910390fd5b6000600760009054906101000a900460ff1690506004600760006101000a81548160ff02191690836005811115611c5557fe5b02179055507f0a97a4ee45751e2abf3e4fc8946939630b11b371ea8ae39ccdc3056e98f5cc3f81600760009054906101000a900460ff1660405180836005811115611c9c57fe5b8152602001826005811115611cad57fe5b81526020019250505060405180910390a17fc379d349a6301baf50fb2f98d829f4ae10b1cdb7c66f4e4d8117302df7b8cd4c60405160405180910390a150565b611cf56128bb565b73ffffffffffffffffffffffffffffffffffffffff16611d13611872565b73ffffffffffffffffffffffffffffffffffffffff1614611d9c576040517f08c379a00000000000000000000000000000000000000000000000000000000081526004018080602001828103825260208152602001807f4f776e61626c653a2063616c6c6572206973206e6f7420746865206f776e657281525060200191505060405180910390fd5b60016005811115611da957fe5b600760009054906101000a900460ff166005811115611dc457fe5b1415611e38576040517f08c379a000000000000000000000000000000000000000000000000000000000815260040180806020018281038252601c8152602001807f526567697374726174696f6e20616c726561647920737461727465640000000081525060200191505060405180910390fd5b60006005811115611e4557fe5b600760009054906101000a900460ff166005811115611e6057fe5b14611eb6576040517f08c379a0000000000000000000000000000000000000000000000000000000008152600401808060200182810382526038815260200180612a186038913960400191505060405180910390fd5b6000600760009054906101000a900460ff1690506001600760006101000a81548160ff02191690836005811115611ee957fe5b02179055507f0a97a4ee45751e2abf3e4fc8946939630b11b371ea8ae39ccdc3056e98f5cc3f81600760009054906101000a900460ff1660405180836005811115611f3057fe5b8152602001826005811115611f4157fe5b81526020019250505060405180910390a17f344c25562921d075a298d34b6dd1fd00d36ff293974539dfd4a8c625d9f0064c60405160405180910390a150565b60055481565b60038181548110611f9457fe5b906000526020600020016000915054906101000a900473ffffffffffffffffffffffffffffffffffffffff1681565b611fcb6128bb565b73ffffffffffffffffffffffffffffffffffffffff16611fe9611872565b73ffffffffffffffffffffffffffffffffffffffff1614612072576040517f08c379a00000000000000000000000000000000000000000000000000000000081526004018080602001828103825260208152602001807f4f776e61626c653a2063616c6c6572206973206e6f7420746865206f776e657281525060200191505060405180910390fd5b6003600581111561207f57fe5b600760009054906101000a900460ff16600581111561209a57fe5b141561210e576040517f08c379a000000000000000000000000000000000000000000000000000000000815260040180806020018281038252601e8152602001807f566f74696e672073657373696f6e20616c72656164792073746172746564000081525060200191505060405180910390fd5b6002600581111561211b57fe5b600760009054906101000a900460ff16600581111561213657fe5b1461218c576040517f08c379a0000000000000000000000000000000000000000000000000000000008152600401808060200182810382526033815260200180612ad56033913960400191505060405180910390fd5b6000600760009054906101000a900460ff1690506003600760006101000a81548160ff021916908360058111156121bf57fe5b02179055507f0a97a4ee45751e2abf3e4fc8946939630b11b371ea8ae39ccdc3056e98f5cc3f81600760009054906101000a900460ff166040518083600581111561220657fe5b815260200182600581111561221757fe5b81526020019250505060405180910390a17f1b8e19a458c1bcd88553332c518cc5c4e2d5793e712ee766d4f1c14f672ef1f560405160405180910390a150565b61225f6128bb565b73ffffffffffffffffffffffffffffffffffffffff1661227d611872565b73ffffffffffffffffffffffffffffffffffffffff1614612306576040517f08c379a00000000000000000000000000000000000000000000000000000000081526004018080602001828103825260208152602001807f4f776e61626c653a2063616c6c6572206973206e6f7420746865206f776e657281525060200191505060405180910390fd5b600073ffffffffffffffffffffffffffffffffffffffff168173ffffffffffffffffffffffffffffffffffffffff16141561238c576040517f08c379a0000000000000000000000000000000000000000000000000000000008152600401808060200182810382526026815260200180612a506026913960400191505060405180910390fd5b8073ffffffffffffffffffffffffffffffffffffffff1660008054906101000a900473ffffffffffffffffffffffffffffffffffffffff1673ffffffffffffffffffffffffffffffffffffffff167f8be0079c531659141344cd1fd0a4f28419497f9722a3daafe3b4186f6b6457e060405160405180910390a3806000806101000a81548173ffffffffffffffffffffffffffffffffffffffff021916908373ffffffffffffffffffffffffffffffffffffffff16021790555050565b6003600581111561245657fe5b600760009054906101000a900460ff16600581111561247157fe5b146124c7576040517f08c379a0000000000000000000000000000000000000000000000000000000008152600401808060200182810382526022815260200180612b5f6022913960400191505060405180910390fd5b600260003373ffffffffffffffffffffffffffffffffffffffff1673ffffffffffffffffffffffffffffffffffffffff16815260200190815260200160002060000160009054906101000a900460ff16612589576040517f08c379a00000000000000000000000000000000000000000000000000000000081526004018080602001828103825260208152602001807f596f75206d757374206265207265676973746572656420746f20766f7465202181525060200191505060405180910390fd5b600260003373ffffffffffffffffffffffffffffffffffffffff1673ffffffffffffffffffffffffffffffffffffffff16815260200190815260200160002060000160019054906101000a900460ff161561262f576040517f08c379a000000000000000000000000000000000000000000000000000000000815260040180806020018281038252602f815260200180612a76602f913960400191505060405180910390fd5b60003073ffffffffffffffffffffffffffffffffffffffff16639842ee9e836040518263ffffffff1660e01b81526004018080602001828103825283818151815260200191508051906020019080838360005b8381101561269d578082015181840152602081019050612682565b50505050905090810190601f1680156126ca5780820380516001836020036101000a031916815260200191505b509250505060206040518083038186803b1580156126e757600080fd5b505afa1580156126fb573d6000803e3d6000fd5b505050506040513d602081101561271157600080fd5b810190808051906020019092919050505090506000811161279a576040517f08c379a00000000000000000000000000000000000000000000000000000000081526004018080602001828103825260148152602001807f50726f706f73616c204e6f7420466f756e64202100000000000000000000000081525060200191505060405180910390fd5b60016000828152602001908152602001600020600101600081548092919060010191905055506001600260003373ffffffffffffffffffffffffffffffffffffffff1673ffffffffffffffffffffffffffffffffffffffff16815260200190815260200160002060000160016101000a81548160ff02191690831515021790555080600260003373ffffffffffffffffffffffffffffffffffffffff1673ffffffffffffffffffffffffffffffffffffffff168152602001908152602001600020600101819055507f4d99b957a2bc29a30ebd96a7be8e68fe50a3c701db28a91436490b7d53870ca43382604051808373ffffffffffffffffffffffffffffffffffffffff1681526020018281526020019250505060405180910390a15050565b600033905090565b600060066000815480929190600101919050555060644233600654604051602001808481526020018373ffffffffffffffffffffffffffffffffffffffff1660601b815260140182815260200193505050506040516020818303038152906040528051906020012060001c8161293557fe5b06905090565b604051806040016040528060608152602001600081525090565b828054600181600116156101000203166002900490600052602060002090601f016020900481019282601f1061299657805160ff19168380011785556129c4565b828001600101855582156129c4579182015b828111156129c35782518255916020019190600101906129a8565b5b5090506129d191906129fa565b5090565b6040518060600160405280600015158152602001600015158152602001600081525090565b5b80821115612a135760008160009055506001016129fb565b509056fe596f752063616e206f6e6c792072656769737465722070726f706f73616c7320616674657220766f74657220726567697374726174696f6e4f776e61626c653a206e6577206f776e657220697320746865207a65726f2061646472657373596f752074686f7567687420796f7520636f756c6420766f7465207477696365203f204e69636520747279202e2e2e54686973206973206e6f74207468652074696d6520666f722070726f706f73616c20726567697374726174696f6e2021596f752063616e206f6e6c7920766f74652061667465722070726f706f73616c20726567697374726174696f6e20656e646564596f75206d757374206265207265676973746572656420746f2073656e6420612070726f706f73616c2e54686973206973206e6f74207468652074696d6520666f7220766f74657220726567697374726174696f6e202154686973206973206e6f7420796574207468652074696d6520746f20766f746520215468697320766f74657220697320616c726561647920726567697374657265642021576169742c2074686973206973206e6f74207468652074696d6520746f2074616c6c792021a2646970667358221220c2808dfe96e558f81f1a5e14f99d186035e87a38fc5fbb94ca314720f1cfcc9164736f6c634300060c0033",
  "immutableReferences": {},
  "source": "// contracts/GameItem.sol\r\n// SPDX-License-Identifier: MIT\r\npragma solidity 0.6.12;\r\nimport \"@openzeppelin/contracts/access/Ownable.sol\";\r\n\r\ncontract Voting is Ownable {\r\n    enum WorkflowStatus {\r\n        RegisteringVoters,\r\n        ProposalsRegistrationStarted,\r\n        ProposalsRegistrationEnded,\r\n        VotingSessionStarted,\r\n        VotingSessionEnded,\r\n        VotesTallied\r\n    }\r\n    struct Voter {\r\n        bool isRegistered;\r\n        bool hasVoted;\r\n        uint votedProposalId;\r\n    }\r\n    struct Proposal {\r\n        string description;\r\n        uint voteCount;\r\n    }\r\n    mapping (uint => Proposal) public _proposals;\r\n    mapping (address => Voter) public _voters;\r\n    address[] public addresses; // TODO remove this (only DEBUG)\r\n    uint[] _proposalIds;\r\n    uint public winningProposalId;\r\n    uint private nonce = 0;\r\n    WorkflowStatus public status = WorkflowStatus.RegisteringVoters;\r\n\r\n    event RegisteringVotersStarted();\r\n    event VoterRegistered(address voterAddress);\r\n    event ProposalsRegistrationStarted();\r\n    event ProposalsRegistrationEnded();\r\n    event ProposalRegistered(uint proposalId);\r\n    event VotingSessionStarted();\r\n    event VotingSessionEnded();\r\n    event Voted (address voter, uint proposalId);\r\n    event VotesTallied();\r\n    event WorkflowStatusChange(WorkflowStatus previousStatus, WorkflowStatus newStatus);\r\n\r\n    function random() internal returns (uint) {\r\n        nonce++;\r\n        return uint(keccak256(abi.encodePacked(block.timestamp, msg.sender, nonce))) % 100;\r\n    }\r\n    \r\n    function getProposalIdFromDescription(string memory _description) external view returns (uint) {\r\n        uint id = 0;\r\n        for(uint i=0; i<_proposalIds.length; i++) {\r\n            if (keccak256(abi.encodePacked((_proposals[_proposalIds[i]].description))) == keccak256(abi.encodePacked((_description)))) {\r\n                id = _proposalIds[i];\r\n                break;\r\n            }\r\n        }\r\n        return id;\r\n    }\r\n    \r\n    // TODO remove this (only DEBUG)\r\n    function getAddresses() external view returns(address[] memory){\r\n        return addresses;\r\n    }\r\n\r\n    function getCustomProposals() external view returns(uint){\r\n        return 1;\r\n    }\r\n\r\n    function getProposals() external view returns(bytes32[] memory){\r\n        bytes32[] memory arrayProposals = new bytes32[](_proposalIds.length);\r\n        for(uint i=0; i<_proposalIds.length; i++) {\r\n            arrayProposals[i] = keccak256(abi.encodePacked((_proposals[_proposalIds[i]].description)));\r\n        }        \r\n        return arrayProposals;\r\n    }\r\n\r\n    function tally() external onlyOwner {\r\n        require(status == WorkflowStatus.VotingSessionEnded, \"Wait, this is not the time to tally !\");\r\n        require(status != WorkflowStatus.VotesTallied, \"Vote already tallied.\");\r\n        \r\n        uint max = 0;\r\n        for(uint i=0; i<_proposalIds.length; i++) {\r\n            if (_proposals[_proposalIds[i]].voteCount > max) {\r\n                max = _proposals[i].voteCount;\r\n                winningProposalId = _proposalIds[i];\r\n            }\r\n        }\r\n\r\n        WorkflowStatus previousStatus = status;\r\n        status = WorkflowStatus.VotesTallied;\r\n        emit WorkflowStatusChange(previousStatus, status);\r\n        emit VotesTallied();   \r\n    }\r\n    \r\n    function vote(string memory _description) external {\r\n        require(status == WorkflowStatus.VotingSessionStarted, \"This is not yet the time to vote !\");\r\n        require(_voters[msg.sender].isRegistered, \"You must be registered to vote !\");\r\n        require(!_voters[msg.sender].hasVoted, \"You thought you could vote twice ? Nice try ...\");\r\n\r\n        uint propId = this.getProposalIdFromDescription(_description);\r\n        require(propId > 0, \"Proposal Not Found !\");\r\n\r\n        _proposals[propId].voteCount++;  \r\n        _voters[msg.sender].hasVoted = true;\r\n        _voters[msg.sender].votedProposalId = propId;\r\n        \r\n        emit Voted(msg.sender, propId);\r\n    }\r\n    \r\n    function registerVoter(address _address) external onlyOwner {\r\n        require(status == WorkflowStatus.RegisteringVoters, \"This is not the time for voter registration !\");\r\n        require(!_voters[_address].isRegistered, \"This voter is already registered !\");\r\n        Voter memory voter;\r\n        voter.isRegistered = true;\r\n        voter.hasVoted = false;\r\n        _voters[_address] = voter;\r\n        addresses.push(_address); // TODO remove this (only DEBUG)\r\n        emit VoterRegistered(_address);\r\n    }\r\n    \r\n    function registerProposal(string memory _description) external {\r\n        require(status == WorkflowStatus.ProposalsRegistrationStarted, \"This is not the time for proposal registration !\");\r\n        require(_voters[msg.sender].isRegistered, \"You must be registered to send a proposal.\");\r\n\r\n        uint alreadyExistId = this.getProposalIdFromDescription(_description);\r\n        require(alreadyExistId == 0, \"Proposal already exist !\");\r\n\r\n        Proposal memory proposal;\r\n        proposal.description = _description;\r\n        proposal.voteCount = 0;\r\n        \r\n        uint proposalId = random();\r\n        _proposals[proposalId] = proposal;\r\n        _proposalIds.push(proposalId);\r\n        \r\n        emit ProposalRegistered(proposalId);\r\n    }\r\n    \r\n    function startVotersregistration() external onlyOwner {\r\n        require(status != WorkflowStatus.RegisteringVoters, \"Registration already started\");\r\n        WorkflowStatus previousStatus = status;\r\n        status = WorkflowStatus.RegisteringVoters;\r\n        emit WorkflowStatusChange(previousStatus, status);\r\n        emit RegisteringVotersStarted();\r\n    }\r\n\r\n    function startProposalregistration() external onlyOwner {\r\n        require(status != WorkflowStatus.ProposalsRegistrationStarted, \"Registration already started\");\r\n        require(status == WorkflowStatus.RegisteringVoters, \"You can only register proposals after voter registration\");\r\n        WorkflowStatus previousStatus = status;\r\n        status = WorkflowStatus.ProposalsRegistrationStarted;\r\n        emit WorkflowStatusChange(previousStatus, status);\r\n        emit ProposalsRegistrationStarted();\r\n    }\r\n        \r\n    function endProposalregistration() external onlyOwner {\r\n        require(status == WorkflowStatus.ProposalsRegistrationStarted, \"Registration is not started !\");\r\n        WorkflowStatus previousStatus = status;\r\n        status = WorkflowStatus.ProposalsRegistrationEnded;\r\n        emit WorkflowStatusChange(previousStatus, status);\r\n        emit ProposalsRegistrationEnded();\r\n    }\r\n    \r\n    function startVotingSession() external onlyOwner {\r\n        require(status != WorkflowStatus.VotingSessionStarted, \"Voting session already started\");\r\n        require(status == WorkflowStatus.ProposalsRegistrationEnded, \"You can only vote after proposal registration ended\");\r\n        WorkflowStatus previousStatus = status;\r\n        status = WorkflowStatus.VotingSessionStarted;\r\n        emit WorkflowStatusChange(previousStatus, status);\r\n        emit VotingSessionStarted();\r\n    }\r\n        \r\n    function endVotingSession() external onlyOwner {\r\n        require(status == WorkflowStatus.VotingSessionStarted, \"Voting session is not started !\");\r\n        WorkflowStatus previousStatus = status;\r\n        status = WorkflowStatus.VotingSessionEnded;\r\n        emit WorkflowStatusChange(previousStatus, status);\r\n        emit VotingSessionEnded();\r\n    }\r\n\r\n}",
  "sourcePath": "D:/Formation ALYRA/defi-voting/contracts/Voting.sol",
  "compiler": {
    "name": "solc",
    "version": "0.6.12+commit.27d51765.Emscripten.clang"
  },
  "schemaVersion": "3.3.4",
  "updatedAt": "2021-04-29T19:06:07.834Z",
  "devdoc": {
    "kind": "dev",
    "methods": {
      "owner()": {
        "details": "Returns the address of the current owner."
      },
      "renounceOwnership()": {
        "details": "Leaves the contract without owner. It will not be possible to call `onlyOwner` functions anymore. Can only be called by the current owner. NOTE: Renouncing ownership will leave the contract without an owner, thereby removing any functionality that is only available to the owner."
      },
      "transferOwnership(address)": {
        "details": "Transfers ownership of the contract to a new account (`newOwner`). Can only be called by the current owner."
      }
    },
    "version": 1
  },
  "userdoc": {
    "kind": "user",
    "methods": {},
    "version": 1
  }
}